{
	"data": {
		"bytecode": {
			"linkReferences": {},
			"object": "608060405234801561001057600080fd5b506107a9806100206000396000f3fe608060405234801561001057600080fd5b506004361061002b5760003560e01c8063f5429e7314610030575b600080fd5b61004a600480360381019061004591906103a6565b610060565b604051610057919061055a565b60405180910390f35b606060008267ffffffffffffffff81111561007e5761007d61020d565b5b6040519080825280602002602001820160405280156100ac5781602001602082028036833780820191505090505b50905060005b83811015610170578473ffffffffffffffffffffffffffffffffffffffff1663d998b15a8b8b8b8b8b6040518663ffffffff1660e01b81526004016100fb959493929190610622565b6020604051808303816000875af115801561011a573d6000803e3d6000fd5b505050506040513d601f19601f8201168201806040525081019061013e919061069f565b828281518110610151576101506106cc565b5b60200260200101818152505080806101689061072a565b9150506100b2565b5080915050979650505050505050565b6000604051905090565b600080fd5b600080fd5b600073ffffffffffffffffffffffffffffffffffffffff82169050919050565b60006101bf82610194565b9050919050565b6101cf816101b4565b81146101da57600080fd5b50565b6000813590506101ec816101c6565b92915050565b600080fd5b600080fd5b6000601f19601f8301169050919050565b7f4e487b7100000000000000000000000000000000000000000000000000000000600052604160045260246000fd5b610245826101fc565b810181811067ffffffffffffffff821117156102645761026361020d565b5b80604052505050565b6000610277610180565b9050610283828261023c565b919050565b600067ffffffffffffffff8211156102a3576102a261020d565b5b6102ac826101fc565b9050602081019050919050565b82818337600083830152505050565b60006102db6102d684610288565b61026d565b9050828152602081018484840111156102f7576102f66101f7565b5b6103028482856102b9565b509392505050565b600082601f83011261031f5761031e6101f2565b5b813561032f8482602086016102c8565b91505092915050565b60008115159050919050565b61034d81610338565b811461035857600080fd5b50565b60008135905061036a81610344565b92915050565b6000819050919050565b61038381610370565b811461038e57600080fd5b50565b6000813590506103a08161037a565b92915050565b600080600080600080600060e0888a0312156103c5576103c461018a565b5b60006103d38a828b016101dd565b975050602088013567ffffffffffffffff8111156103f4576103f361018f565b5b6104008a828b0161030a565b965050604088013567ffffffffffffffff8111156104215761042061018f565b5b61042d8a828b0161030a565b955050606061043e8a828b0161035b565b945050608088013567ffffffffffffffff81111561045f5761045e61018f565b5b61046b8a828b0161030a565b93505060a061047c8a828b016101dd565b92505060c061048d8a828b01610391565b91505092959891949750929550565b600081519050919050565b600082825260208201905092915050565b6000819050602082019050919050565b6104d181610370565b82525050565b60006104e383836104c8565b60208301905092915050565b6000602082019050919050565b60006105078261049c565b61051181856104a7565b935061051c836104b8565b8060005b8381101561054d57815161053488826104d7565b975061053f836104ef565b925050600181019050610520565b5085935050505092915050565b6000602082019050818103600083015261057481846104fc565b905092915050565b610585816101b4565b82525050565b600081519050919050565b600082825260208201905092915050565b60005b838110156105c55780820151818401526020810190506105aa565b838111156105d4576000848401525b50505050565b60006105e58261058b565b6105ef8185610596565b93506105ff8185602086016105a7565b610608816101fc565b840191505092915050565b61061c81610338565b82525050565b600060a082019050610637600083018861057c565b818103602083015261064981876105da565b9050818103604083015261065d81866105da565b905061066c6060830185610613565b818103608083015261067e81846105da565b90509695505050505050565b6000815190506106998161037a565b92915050565b6000602082840312156106b5576106b461018a565b5b60006106c38482850161068a565b91505092915050565b7f4e487b7100000000000000000000000000000000000000000000000000000000600052603260045260246000fd5b7f4e487b7100000000000000000000000000000000000000000000000000000000600052601160045260246000fd5b600061073582610370565b91507fffffffffffffffffffffffffffffffffffffffffffffffffffffffffffffffff821415610768576107676106fb565b5b60018201905091905056fea2646970667358221220f55ccbc556793867ea59f7cd768473fcf54edfbb93aeb7ef4afc6f214d58dd4664736f6c634300080a0033",
			"opcodes": "PUSH1 0x80 PUSH1 0x40 MSTORE CALLVALUE DUP1 ISZERO PUSH2 0x10 JUMPI PUSH1 0x0 DUP1 REVERT JUMPDEST POP PUSH2 0x7A9 DUP1 PUSH2 0x20 PUSH1 0x0 CODECOPY PUSH1 0x0 RETURN INVALID PUSH1 0x80 PUSH1 0x40 MSTORE CALLVALUE DUP1 ISZERO PUSH2 0x10 JUMPI PUSH1 0x0 DUP1 REVERT JUMPDEST POP PUSH1 0x4 CALLDATASIZE LT PUSH2 0x2B JUMPI PUSH1 0x0 CALLDATALOAD PUSH1 0xE0 SHR DUP1 PUSH4 0xF5429E73 EQ PUSH2 0x30 JUMPI JUMPDEST PUSH1 0x0 DUP1 REVERT JUMPDEST PUSH2 0x4A PUSH1 0x4 DUP1 CALLDATASIZE SUB DUP2 ADD SWAP1 PUSH2 0x45 SWAP2 SWAP1 PUSH2 0x3A6 JUMP JUMPDEST PUSH2 0x60 JUMP JUMPDEST PUSH1 0x40 MLOAD PUSH2 0x57 SWAP2 SWAP1 PUSH2 0x55A JUMP JUMPDEST PUSH1 0x40 MLOAD DUP1 SWAP2 SUB SWAP1 RETURN JUMPDEST PUSH1 0x60 PUSH1 0x0 DUP3 PUSH8 0xFFFFFFFFFFFFFFFF DUP2 GT ISZERO PUSH2 0x7E JUMPI PUSH2 0x7D PUSH2 0x20D JUMP JUMPDEST JUMPDEST PUSH1 0x40 MLOAD SWAP1 DUP1 DUP3 MSTORE DUP1 PUSH1 0x20 MUL PUSH1 0x20 ADD DUP3 ADD PUSH1 0x40 MSTORE DUP1 ISZERO PUSH2 0xAC JUMPI DUP2 PUSH1 0x20 ADD PUSH1 0x20 DUP3 MUL DUP1 CALLDATASIZE DUP4 CALLDATACOPY DUP1 DUP3 ADD SWAP2 POP POP SWAP1 POP JUMPDEST POP SWAP1 POP PUSH1 0x0 JUMPDEST DUP4 DUP2 LT ISZERO PUSH2 0x170 JUMPI DUP5 PUSH20 0xFFFFFFFFFFFFFFFFFFFFFFFFFFFFFFFFFFFFFFFF AND PUSH4 0xD998B15A DUP12 DUP12 DUP12 DUP12 DUP12 PUSH1 0x40 MLOAD DUP7 PUSH4 0xFFFFFFFF AND PUSH1 0xE0 SHL DUP2 MSTORE PUSH1 0x4 ADD PUSH2 0xFB SWAP6 SWAP5 SWAP4 SWAP3 SWAP2 SWAP1 PUSH2 0x622 JUMP JUMPDEST PUSH1 0x20 PUSH1 0x40 MLOAD DUP1 DUP4 SUB DUP2 PUSH1 0x0 DUP8 GAS CALL ISZERO DUP1 ISZERO PUSH2 0x11A JUMPI RETURNDATASIZE PUSH1 0x0 DUP1 RETURNDATACOPY RETURNDATASIZE PUSH1 0x0 REVERT JUMPDEST POP POP POP POP PUSH1 0x40 MLOAD RETURNDATASIZE PUSH1 0x1F NOT PUSH1 0x1F DUP3 ADD AND DUP3 ADD DUP1 PUSH1 0x40 MSTORE POP DUP2 ADD SWAP1 PUSH2 0x13E SWAP2 SWAP1 PUSH2 0x69F JUMP JUMPDEST DUP3 DUP3 DUP2 MLOAD DUP2 LT PUSH2 0x151 JUMPI PUSH2 0x150 PUSH2 0x6CC JUMP JUMPDEST JUMPDEST PUSH1 0x20 MUL PUSH1 0x20 ADD ADD DUP2 DUP2 MSTORE POP POP DUP1 DUP1 PUSH2 0x168 SWAP1 PUSH2 0x72A JUMP JUMPDEST SWAP2 POP POP PUSH2 0xB2 JUMP JUMPDEST POP DUP1 SWAP2 POP POP SWAP8 SWAP7 POP POP POP POP POP POP POP JUMP JUMPDEST PUSH1 0x0 PUSH1 0x40 MLOAD SWAP1 POP SWAP1 JUMP JUMPDEST PUSH1 0x0 DUP1 REVERT JUMPDEST PUSH1 0x0 DUP1 REVERT JUMPDEST PUSH1 0x0 PUSH20 0xFFFFFFFFFFFFFFFFFFFFFFFFFFFFFFFFFFFFFFFF DUP3 AND SWAP1 POP SWAP2 SWAP1 POP JUMP JUMPDEST PUSH1 0x0 PUSH2 0x1BF DUP3 PUSH2 0x194 JUMP JUMPDEST SWAP1 POP SWAP2 SWAP1 POP JUMP JUMPDEST PUSH2 0x1CF DUP2 PUSH2 0x1B4 JUMP JUMPDEST DUP2 EQ PUSH2 0x1DA JUMPI PUSH1 0x0 DUP1 REVERT JUMPDEST POP JUMP JUMPDEST PUSH1 0x0 DUP2 CALLDATALOAD SWAP1 POP PUSH2 0x1EC DUP2 PUSH2 0x1C6 JUMP JUMPDEST SWAP3 SWAP2 POP POP JUMP JUMPDEST PUSH1 0x0 DUP1 REVERT JUMPDEST PUSH1 0x0 DUP1 REVERT JUMPDEST PUSH1 0x0 PUSH1 0x1F NOT PUSH1 0x1F DUP4 ADD AND SWAP1 POP SWAP2 SWAP1 POP JUMP JUMPDEST PUSH32 0x4E487B7100000000000000000000000000000000000000000000000000000000 PUSH1 0x0 MSTORE PUSH1 0x41 PUSH1 0x4 MSTORE PUSH1 0x24 PUSH1 0x0 REVERT JUMPDEST PUSH2 0x245 DUP3 PUSH2 0x1FC JUMP JUMPDEST DUP2 ADD DUP2 DUP2 LT PUSH8 0xFFFFFFFFFFFFFFFF DUP3 GT OR ISZERO PUSH2 0x264 JUMPI PUSH2 0x263 PUSH2 0x20D JUMP JUMPDEST JUMPDEST DUP1 PUSH1 0x40 MSTORE POP POP POP JUMP JUMPDEST PUSH1 0x0 PUSH2 0x277 PUSH2 0x180 JUMP JUMPDEST SWAP1 POP PUSH2 0x283 DUP3 DUP3 PUSH2 0x23C JUMP JUMPDEST SWAP2 SWAP1 POP JUMP JUMPDEST PUSH1 0x0 PUSH8 0xFFFFFFFFFFFFFFFF DUP3 GT ISZERO PUSH2 0x2A3 JUMPI PUSH2 0x2A2 PUSH2 0x20D JUMP JUMPDEST JUMPDEST PUSH2 0x2AC DUP3 PUSH2 0x1FC JUMP JUMPDEST SWAP1 POP PUSH1 0x20 DUP2 ADD SWAP1 POP SWAP2 SWAP1 POP JUMP JUMPDEST DUP3 DUP2 DUP4 CALLDATACOPY PUSH1 0x0 DUP4 DUP4 ADD MSTORE POP POP POP JUMP JUMPDEST PUSH1 0x0 PUSH2 0x2DB PUSH2 0x2D6 DUP5 PUSH2 0x288 JUMP JUMPDEST PUSH2 0x26D JUMP JUMPDEST SWAP1 POP DUP3 DUP2 MSTORE PUSH1 0x20 DUP2 ADD DUP5 DUP5 DUP5 ADD GT ISZERO PUSH2 0x2F7 JUMPI PUSH2 0x2F6 PUSH2 0x1F7 JUMP JUMPDEST JUMPDEST PUSH2 0x302 DUP5 DUP3 DUP6 PUSH2 0x2B9 JUMP JUMPDEST POP SWAP4 SWAP3 POP POP POP JUMP JUMPDEST PUSH1 0x0 DUP3 PUSH1 0x1F DUP4 ADD SLT PUSH2 0x31F JUMPI PUSH2 0x31E PUSH2 0x1F2 JUMP JUMPDEST JUMPDEST DUP2 CALLDATALOAD PUSH2 0x32F DUP5 DUP3 PUSH1 0x20 DUP7 ADD PUSH2 0x2C8 JUMP JUMPDEST SWAP2 POP POP SWAP3 SWAP2 POP POP JUMP JUMPDEST PUSH1 0x0 DUP2 ISZERO ISZERO SWAP1 POP SWAP2 SWAP1 POP JUMP JUMPDEST PUSH2 0x34D DUP2 PUSH2 0x338 JUMP JUMPDEST DUP2 EQ PUSH2 0x358 JUMPI PUSH1 0x0 DUP1 REVERT JUMPDEST POP JUMP JUMPDEST PUSH1 0x0 DUP2 CALLDATALOAD SWAP1 POP PUSH2 0x36A DUP2 PUSH2 0x344 JUMP JUMPDEST SWAP3 SWAP2 POP POP JUMP JUMPDEST PUSH1 0x0 DUP2 SWAP1 POP SWAP2 SWAP1 POP JUMP JUMPDEST PUSH2 0x383 DUP2 PUSH2 0x370 JUMP JUMPDEST DUP2 EQ PUSH2 0x38E JUMPI PUSH1 0x0 DUP1 REVERT JUMPDEST POP JUMP JUMPDEST PUSH1 0x0 DUP2 CALLDATALOAD SWAP1 POP PUSH2 0x3A0 DUP2 PUSH2 0x37A JUMP JUMPDEST SWAP3 SWAP2 POP POP JUMP JUMPDEST PUSH1 0x0 DUP1 PUSH1 0x0 DUP1 PUSH1 0x0 DUP1 PUSH1 0x0 PUSH1 0xE0 DUP9 DUP11 SUB SLT ISZERO PUSH2 0x3C5 JUMPI PUSH2 0x3C4 PUSH2 0x18A JUMP JUMPDEST JUMPDEST PUSH1 0x0 PUSH2 0x3D3 DUP11 DUP3 DUP12 ADD PUSH2 0x1DD JUMP JUMPDEST SWAP8 POP POP PUSH1 0x20 DUP9 ADD CALLDATALOAD PUSH8 0xFFFFFFFFFFFFFFFF DUP2 GT ISZERO PUSH2 0x3F4 JUMPI PUSH2 0x3F3 PUSH2 0x18F JUMP JUMPDEST JUMPDEST PUSH2 0x400 DUP11 DUP3 DUP12 ADD PUSH2 0x30A JUMP JUMPDEST SWAP7 POP POP PUSH1 0x40 DUP9 ADD CALLDATALOAD PUSH8 0xFFFFFFFFFFFFFFFF DUP2 GT ISZERO PUSH2 0x421 JUMPI PUSH2 0x420 PUSH2 0x18F JUMP JUMPDEST JUMPDEST PUSH2 0x42D DUP11 DUP3 DUP12 ADD PUSH2 0x30A JUMP JUMPDEST SWAP6 POP POP PUSH1 0x60 PUSH2 0x43E DUP11 DUP3 DUP12 ADD PUSH2 0x35B JUMP JUMPDEST SWAP5 POP POP PUSH1 0x80 DUP9 ADD CALLDATALOAD PUSH8 0xFFFFFFFFFFFFFFFF DUP2 GT ISZERO PUSH2 0x45F JUMPI PUSH2 0x45E PUSH2 0x18F JUMP JUMPDEST JUMPDEST PUSH2 0x46B DUP11 DUP3 DUP12 ADD PUSH2 0x30A JUMP JUMPDEST SWAP4 POP POP PUSH1 0xA0 PUSH2 0x47C DUP11 DUP3 DUP12 ADD PUSH2 0x1DD JUMP JUMPDEST SWAP3 POP POP PUSH1 0xC0 PUSH2 0x48D DUP11 DUP3 DUP12 ADD PUSH2 0x391 JUMP JUMPDEST SWAP2 POP POP SWAP3 SWAP6 SWAP9 SWAP2 SWAP5 SWAP8 POP SWAP3 SWAP6 POP JUMP JUMPDEST PUSH1 0x0 DUP2 MLOAD SWAP1 POP SWAP2 SWAP1 POP JUMP JUMPDEST PUSH1 0x0 DUP3 DUP3 MSTORE PUSH1 0x20 DUP3 ADD SWAP1 POP SWAP3 SWAP2 POP POP JUMP JUMPDEST PUSH1 0x0 DUP2 SWAP1 POP PUSH1 0x20 DUP3 ADD SWAP1 POP SWAP2 SWAP1 POP JUMP JUMPDEST PUSH2 0x4D1 DUP2 PUSH2 0x370 JUMP JUMPDEST DUP3 MSTORE POP POP JUMP JUMPDEST PUSH1 0x0 PUSH2 0x4E3 DUP4 DUP4 PUSH2 0x4C8 JUMP JUMPDEST PUSH1 0x20 DUP4 ADD SWAP1 POP SWAP3 SWAP2 POP POP JUMP JUMPDEST PUSH1 0x0 PUSH1 0x20 DUP3 ADD SWAP1 POP SWAP2 SWAP1 POP JUMP JUMPDEST PUSH1 0x0 PUSH2 0x507 DUP3 PUSH2 0x49C JUMP JUMPDEST PUSH2 0x511 DUP2 DUP6 PUSH2 0x4A7 JUMP JUMPDEST SWAP4 POP PUSH2 0x51C DUP4 PUSH2 0x4B8 JUMP JUMPDEST DUP1 PUSH1 0x0 JUMPDEST DUP4 DUP2 LT ISZERO PUSH2 0x54D JUMPI DUP2 MLOAD PUSH2 0x534 DUP9 DUP3 PUSH2 0x4D7 JUMP JUMPDEST SWAP8 POP PUSH2 0x53F DUP4 PUSH2 0x4EF JUMP JUMPDEST SWAP3 POP POP PUSH1 0x1 DUP2 ADD SWAP1 POP PUSH2 0x520 JUMP JUMPDEST POP DUP6 SWAP4 POP POP POP POP SWAP3 SWAP2 POP POP JUMP JUMPDEST PUSH1 0x0 PUSH1 0x20 DUP3 ADD SWAP1 POP DUP2 DUP2 SUB PUSH1 0x0 DUP4 ADD MSTORE PUSH2 0x574 DUP2 DUP5 PUSH2 0x4FC JUMP JUMPDEST SWAP1 POP SWAP3 SWAP2 POP POP JUMP JUMPDEST PUSH2 0x585 DUP2 PUSH2 0x1B4 JUMP JUMPDEST DUP3 MSTORE POP POP JUMP JUMPDEST PUSH1 0x0 DUP2 MLOAD SWAP1 POP SWAP2 SWAP1 POP JUMP JUMPDEST PUSH1 0x0 DUP3 DUP3 MSTORE PUSH1 0x20 DUP3 ADD SWAP1 POP SWAP3 SWAP2 POP POP JUMP JUMPDEST PUSH1 0x0 JUMPDEST DUP4 DUP2 LT ISZERO PUSH2 0x5C5 JUMPI DUP1 DUP3 ADD MLOAD DUP2 DUP5 ADD MSTORE PUSH1 0x20 DUP2 ADD SWAP1 POP PUSH2 0x5AA JUMP JUMPDEST DUP4 DUP2 GT ISZERO PUSH2 0x5D4 JUMPI PUSH1 0x0 DUP5 DUP5 ADD MSTORE JUMPDEST POP POP POP POP JUMP JUMPDEST PUSH1 0x0 PUSH2 0x5E5 DUP3 PUSH2 0x58B JUMP JUMPDEST PUSH2 0x5EF DUP2 DUP6 PUSH2 0x596 JUMP JUMPDEST SWAP4 POP PUSH2 0x5FF DUP2 DUP6 PUSH1 0x20 DUP7 ADD PUSH2 0x5A7 JUMP JUMPDEST PUSH2 0x608 DUP2 PUSH2 0x1FC JUMP JUMPDEST DUP5 ADD SWAP2 POP POP SWAP3 SWAP2 POP POP JUMP JUMPDEST PUSH2 0x61C DUP2 PUSH2 0x338 JUMP JUMPDEST DUP3 MSTORE POP POP JUMP JUMPDEST PUSH1 0x0 PUSH1 0xA0 DUP3 ADD SWAP1 POP PUSH2 0x637 PUSH1 0x0 DUP4 ADD DUP9 PUSH2 0x57C JUMP JUMPDEST DUP2 DUP2 SUB PUSH1 0x20 DUP4 ADD MSTORE PUSH2 0x649 DUP2 DUP8 PUSH2 0x5DA JUMP JUMPDEST SWAP1 POP DUP2 DUP2 SUB PUSH1 0x40 DUP4 ADD MSTORE PUSH2 0x65D DUP2 DUP7 PUSH2 0x5DA JUMP JUMPDEST SWAP1 POP PUSH2 0x66C PUSH1 0x60 DUP4 ADD DUP6 PUSH2 0x613 JUMP JUMPDEST DUP2 DUP2 SUB PUSH1 0x80 DUP4 ADD MSTORE PUSH2 0x67E DUP2 DUP5 PUSH2 0x5DA JUMP JUMPDEST SWAP1 POP SWAP7 SWAP6 POP POP POP POP POP POP JUMP JUMPDEST PUSH1 0x0 DUP2 MLOAD SWAP1 POP PUSH2 0x699 DUP2 PUSH2 0x37A JUMP JUMPDEST SWAP3 SWAP2 POP POP JUMP JUMPDEST PUSH1 0x0 PUSH1 0x20 DUP3 DUP5 SUB SLT ISZERO PUSH2 0x6B5 JUMPI PUSH2 0x6B4 PUSH2 0x18A JUMP JUMPDEST JUMPDEST PUSH1 0x0 PUSH2 0x6C3 DUP5 DUP3 DUP6 ADD PUSH2 0x68A JUMP JUMPDEST SWAP2 POP POP SWAP3 SWAP2 POP POP JUMP JUMPDEST PUSH32 0x4E487B7100000000000000000000000000000000000000000000000000000000 PUSH1 0x0 MSTORE PUSH1 0x32 PUSH1 0x4 MSTORE PUSH1 0x24 PUSH1 0x0 REVERT JUMPDEST PUSH32 0x4E487B7100000000000000000000000000000000000000000000000000000000 PUSH1 0x0 MSTORE PUSH1 0x11 PUSH1 0x4 MSTORE PUSH1 0x24 PUSH1 0x0 REVERT JUMPDEST PUSH1 0x0 PUSH2 0x735 DUP3 PUSH2 0x370 JUMP JUMPDEST SWAP2 POP PUSH32 0xFFFFFFFFFFFFFFFFFFFFFFFFFFFFFFFFFFFFFFFFFFFFFFFFFFFFFFFFFFFFFFFF DUP3 EQ ISZERO PUSH2 0x768 JUMPI PUSH2 0x767 PUSH2 0x6FB JUMP JUMPDEST JUMPDEST PUSH1 0x1 DUP3 ADD SWAP1 POP SWAP2 SWAP1 POP JUMP INVALID LOG2 PUSH5 0x6970667358 0x22 SLT KECCAK256 CREATE2 0x5C 0xCB 0xC5 JUMP PUSH26 0x3867EA59F7CD768473FCF54EDFBB93AEB7EF4AFC6F214D58DD46 PUSH5 0x736F6C6343 STOP ADDMOD EXP STOP CALLER "
		},
		"gasEstimates": {
			"creation": {
				"codeDepositCost": "392200",
				"executionCost": "430",
				"totalCost": "392630"
			},
			"external": {
				"bulkMint(address,string,string,bool,string,address,uint256)": "infinite"
			}
		},
		"methodIdentifiers": {
			"bulkMint(address,string,string,bool,string,address,uint256)": "f5429e73"
		}
	},
	"abi": [
		{
			"inputs": [
				{
					"internalType": "address",
					"name": "wallet",
					"type": "address"
				},
				{
					"internalType": "string",
					"name": "cardName",
					"type": "string"
				},
				{
					"internalType": "string",
					"name": "cardImage",
					"type": "string"
				},
				{
					"internalType": "bool",
					"name": "cardPhysical",
					"type": "bool"
				},
				{
					"internalType": "string",
					"name": "tokenURI_metadata",
					"type": "string"
				},
				{
					"internalType": "address",
					"name": "digiNFTContractAddress",
					"type": "address"
				},
				{
					"internalType": "uint256",
					"name": "qtyToMint",
					"type": "uint256"
				}
			],
			"name": "bulkMint",
			"outputs": [
				{
					"internalType": "uint256[]",
					"name": "",
					"type": "uint256[]"
				}
			],
			"stateMutability": "nonpayable",
			"type": "function"
		}
	]
}