{
	"data": {
		"bytecode": {
			"linkReferences": {},
			"object": "60c06040526001600855670de0b6b3a7640000600a553480156200002257600080fd5b50738c7382f9d8f56b33781fe506e897a4f1e2d1725560a05273326c977e6efc84e512bb9c30f76e30c160ed06fb6080523380600081620000aa5760405162461bcd60e51b815260206004820152601860248201527f43616e6e6f7420736574206f776e657220746f207a65726f000000000000000060448201526064015b60405180910390fd5b600280546001600160a01b0319166001600160a01b0384811691909117909155811615620000dd57620000dd81620001b9565b50620000ef9150600090503362000266565b6200011b7f0e713d936ee004edc0a77c6094bd6a75d836bda1eece05c06df5d9ce4a89655f3362000266565b600d80546001600160a01b031990811673326c977e6efc84e512bb9c30f76e30c160ed06fb179091557f6e75b569a01ef56d18cab6a8e71e6600d6ce853834d4a5748b720d06f878b3a4600b55655af3107a4000600c55600e80548216734d8181f051e617642e233be09cea71cc3308ffd41790556011805490911633179055600a54620001ab906032620002fe565b600f55600a6010556200032c565b6001600160a01b038116331415620002145760405162461bcd60e51b815260206004820152601760248201527f43616e6e6f74207472616e7366657220746f2073656c660000000000000000006044820152606401620000a1565b600380546001600160a01b0319166001600160a01b03838116918217909255600254604051919216907fed8889f560326eb138920d842192f0eb3dd22b4f139c87a2c57538e05bae127890600090a350565b62000272828262000276565b5050565b60008281526001602090815260408083206001600160a01b038516845290915290205460ff16620002725760008281526001602081815260408084206001600160a01b0386168086529252808420805460ff19169093179092559051339285917f2f8788117e7eff1d82e926ec794901d17c78024a50270940304540a733656f0d9190a45050565b60008160001904831182151516156200032757634e487b7160e01b600052601160045260246000fd5b500290565b60805160a051613b436200036060003960008181611d830152612e04015260008181610c0e0152612dd50152613b436000f3fe6080604052600436106102305760003560e01c8063874b3afc1161012e578063bbfa3dfd116100ab578063df2e35851161006f578063df2e3585146107a2578063e6711a28146107c2578063f2fde38b146107e2578063f7490b3414610802578063fcecb2751461082257600080fd5b8063bbfa3dfd146106e1578063c2e4ee0814610701578063d35669b214610721578063d547741f14610741578063dd5d5cb51461076157600080fd5b80639499bc3c116100f25780639499bc3c1461062e578063a217fddf14610666578063afdd85dc1461067b578063b56f251b14610691578063b800f216146106b157600080fd5b8063874b3afc1461056257806389e075641461058f5780638da5cb5b146105d057806391d14854146105ee57806394985ddd1461060e57600080fd5b8063376a902a116101bc5780636c6c2efb116101805780636c6c2efb146104715780636d1bac41146104ac57806379ba5097146104da5780638577efc5146104ef578063873937fd1461052757600080fd5b8063376a902a146103c1578063442a9fd0146103fb57806344cf8d531461041b578063494b194e1461043b5780635725054b1461045b57600080fd5b8063248a9ca311610203578063248a9ca3146103075780632f2ff15d14610338578063337ca9621461035a5780633463cdbc1461038e57806336568abe146103a157600080fd5b806301ffc9a7146102355780630bd19b301461026a578063150b7a02146102b057806320900a59146102f4575b600080fd5b34801561024157600080fd5b506102556102503660046132d9565b610842565b60405190151581526020015b60405180910390f35b34801561027657600080fd5b506102a26102853660046133ae565b805160208183018101805160178252928201919093012091525481565b604051908152602001610261565b3480156102bc57600080fd5b506102db6102cb3660046133f7565b630a85bd0160e11b949350505050565b6040516001600160e01b03199091168152602001610261565b610255610302366004613476565b610879565b34801561031357600080fd5b506102a26103223660046134d4565b6000908152600160208190526040909120015490565b34801561034457600080fd5b506103586103533660046134ed565b610afd565b005b34801561036657600080fd5b506102a27f0e713d936ee004edc0a77c6094bd6a75d836bda1eece05c06df5d9ce4a89655f81565b61025561039c36600461351d565b610b29565b3480156103ad57600080fd5b506103586103bc3660046134ed565b610ee4565b3480156103cd57600080fd5b506102556103dc3660046133ae565b8051602081830181018051828252928201919093012091525460ff1681565b34801561040757600080fd5b506102556104163660046133ae565b610f62565b34801561042757600080fd5b50610358610436366004613476565b6111a1565b34801561044757600080fd5b506103586104563660046135c4565b6112ef565b34801561046757600080fd5b506102a2600f5481565b34801561047d57600080fd5b5061025561048c3660046133ae565b805160208183018101805160158252928201919093012091525460ff1681565b3480156104b857600080fd5b506104cc6104c73660046133ae565b61130d565b604051610261929190613621565b3480156104e657600080fd5b50610358611beb565b3480156104fb57600080fd5b50600e5461050f906001600160a01b031681565b6040516001600160a01b039091168152602001610261565b34801561053357600080fd5b506102556105423660046133ae565b805160208183018101805160168252928201919093012091525460ff1681565b34801561056e57600080fd5b5061058261057d3660046135c4565b611c99565b6040516102619190613681565b34801561059b57600080fd5b5061050f6105aa3660046133ae565b80516020818301810180516012825292820191909301209152546001600160a01b031681565b3480156105dc57600080fd5b506002546001600160a01b031661050f565b3480156105fa57600080fd5b506102556106093660046134ed565b611d4d565b34801561061a57600080fd5b506103586106293660046135c4565b611d78565b34801561063a57600080fd5b506102a26106493660046133ae565b805160208183018101805160138252928201919093012091525481565b34801561067257600080fd5b506102a2600081565b34801561068757600080fd5b506102a260105481565b34801561069d57600080fd5b506103586106ac366004613694565b611dfa565b3480156106bd57600080fd5b506102556106cc3660046134d4565b60246020526000908152604090205460ff1681565b3480156106ed57600080fd5b506102a26106fc3660046133ae565b611f26565b34801561070d57600080fd5b5061035861071c3660046136b1565b6120c2565b34801561072d57600080fd5b5061025561073c3660046136f5565b6121d2565b34801561074d57600080fd5b5061035861075c3660046134ed565b612523565b34801561076d57600080fd5b5061050f61077c3660046133ae565b80516020818301810180516018825292820191909301209152546001600160a01b031681565b3480156107ae57600080fd5b5061050f6107bd3660046136b1565b61254a565b3480156107ce57600080fd5b506102556107dd36600461375e565b612591565b3480156107ee57600080fd5b506103586107fd366004613694565b612a3b565b34801561080e57600080fd5b5061035861081d3660046135c4565b612a4f565b34801561082e57600080fd5b5061035861083d3660046137b2565b612a62565b60006001600160e01b03198216637965db0b60e01b148061087357506301ffc9a760e01b6001600160e01b03198316145b92915050565b6000336001600160a01b03166012866040516108959190613845565b908152604051908190036020019020546001600160a01b031614806108c057506108c0600033611d4d565b6108e55760405162461bcd60e51b81526004016108dc90613861565b60405180910390fd5b6025856040516108f59190613845565b9081526040519081900360200190205460ff166109495760405162461bcd60e51b8152602060048201526012602482015271109bde08111bd95cc8139bdd08115e1a5cdd60721b60448201526064016108dc565b825b828111610af1576040516331a9108f60e11b81526004810182905233906001600160a01b03871690636352211e90602401602060405180830381865afa158015610999573d6000803e3d6000fd5b505050506040513d601f19601f820116820180604052508101906109bd919061388d565b6001600160a01b0316146109ff5760405162461bcd60e51b81526020600482015260096024820152682737ba1027bbb732b960b91b60448201526064016108dc565b604051632142170760e11b81526001600160a01b038616906342842e0e90610a2f903390309086906004016138aa565b600060405180830381600087803b158015610a4957600080fd5b505af1158015610a5d573d6000803e3d6000fd5b50505050601986604051610a719190613845565b908152604051602091819003820181208054600181018255600091825292902090910180546001600160a01b0319166001600160a01b038816179055601a90610abb908890613845565b90815260405160209181900382019020805460018101825560009182529190200181905580610ae9816138e4565b91505061094b565b50600195945050505050565b60008281526001602081905260409091200154610b1a8133612b2a565b610b248383612b8e565b505050565b6000610b557f0e713d936ee004edc0a77c6094bd6a75d836bda1eece05c06df5d9ce4a89655f33611d4d565b610b955760405162461bcd60e51b815260206004820152601160248201527027b7363c903337b9102ba0ac26a0a5a2a960791b60448201526064016108dc565b60258a604051610ba59190613845565b9081526040519081900360200190205460ff1615610bf65760405162461bcd60e51b815260206004820152600e60248201526d29b2ba103730b6b2903a30b5b2b760911b60448201526064016108dc565b600c546040516370a0823160e01b81523060048201527f00000000000000000000000000000000000000000000000000000000000000006001600160a01b0316906370a0823190602401602060405180830381865afa158015610c5d573d6000803e3d6000fd5b505050506040513d601f19601f82011682018060405250810190610c8191906138ff565b1015610ccf5760405162461bcd60e51b815260206004820152601f60248201527f4e6f7420656e6f756768204c494e4b20746f206f66666572206f72616c63650060448201526064016108dc565b600e54601154600f546040516323b872dd60e01b81526001600160a01b03938416936323b872dd93610d0a93339392909116916004016138aa565b6020604051808303816000875af1158015610d29573d6000803e3d6000fd5b505050506040513d601f19601f82011682018060405250810190610d4d9190613918565b610d905760405162461bcd60e51b8152602060048201526014602482015273111251d248119959481611995c8819985a5b195960621b60448201526064016108dc565b600160258b604051610da29190613845565b908152604051908190036020018120805492151560ff19909316929092179091553390601290610dd3908d90613845565b90815260405190819003602001902080546001600160a01b03929092166001600160a01b03199092169190911790558315610e1457610e148a8787876111a1565b8115610e7f578260188b604051610e2b9190613845565b908152602001604051809103902060006101000a8154816001600160a01b0302191690836001600160a01b031602179055508160178b604051610e6e9190613845565b908152604051908190036020019020555b610e8b8a8a8a8a610879565b5089604051610e9a9190613845565b604051908190038120338252907f2562c9ae389148b8d76739f9da5b0db6424543bf03094fee0ddc18c67914437e9060200160405180910390a25060019998505050505050505050565b6001600160a01b0381163314610f545760405162461bcd60e51b815260206004820152602f60248201527f416363657373436f6e74726f6c3a2063616e206f6e6c792072656e6f756e636560448201526e103937b632b9903337b91039b2b63360891b60648201526084016108dc565b610f5e8282612bf9565b5050565b6000336001600160a01b0316601283604051610f7e9190613845565b908152604051908190036020019020546001600160a01b03161480610fa95750610fa9600033611d4d565b610fc55760405162461bcd60e51b81526004016108dc90613861565b602582604051610fd59190613845565b9081526040519081900360200190205460ff166110275760405162461bcd60e51b815260206004820152601060248201526f4e6f207375636820626f78206e616d6560801b60448201526064016108dc565b60005b601a8360405161103a9190613845565b90815260405190819003602001902054811015611166576019836040516110619190613845565b9081526020016040518091039020818154811061108057611080613935565b6000918252602090912001546040516001600160a01b03909116906342842e0e9030906012906110b1908890613845565b908152604051908190036020018120546001600160a01b031690601a906110d9908990613845565b908152602001604051809103902085815481106110f8576110f8613935565b90600052602060002001546040518463ffffffff1660e01b8152600401611121939291906138aa565b600060405180830381600087803b15801561113b57600080fd5b505af115801561114f573d6000803e3d6000fd5b50505050808061115e906138e4565b91505061102a565b5060016014836040516111799190613845565b908152604051908190036020019020805491151560ff19909216919091179055506001919050565b336001600160a01b03166012856040516111bb9190613845565b908152604051908190036020019020546001600160a01b031614806111e657506111e6600033611d4d565b6112025760405162461bcd60e51b81526004016108dc90613861565b815b8181116112e857601b8560405161121b9190613845565b908152604051602091819003820181208054600181018255600091825292902090910180546001600160a01b0319166001600160a01b038716179055601c90611265908790613845565b9081526040516020918190038201812080546001808201835560009283529390912001839055601d90611299908890613845565b90815260408051602092819003830190206001600160a01b03881660009081529083528181208582529092529020805460ff1916911515919091179055806112e0816138e4565b915050611204565b5050505050565b6112f7612c60565b600a54611304908361394b565b600f5560105550565b606080336001600160a01b031660128460405161132a9190613845565b908152604051908190036020019020546001600160a01b031614806113555750611355600033611d4d565b6113715760405162461bcd60e51b81526004016108dc90613861565b6014836040516113819190613845565b9081526040519081900360200190205460ff16156113d25760405162461bcd60e51b815260206004820152600e60248201526d426f782077617320756e646f6e6560901b60448201526064016108dc565b6025836040516113e29190613845565b9081526040519081900360200190205460ff1661142f5760405162461bcd60e51b815260206004820152600b60248201526a09cde40e6eac6d040c4def60ab1b60448201526064016108dc565b60208360405161143f9190613845565b9081526040519081900360200190205460ff1661149e5760405162461bcd60e51b815260206004820152601e60248201527f4f7261636c65204861736e27742053687566666c656420426f7820596574000060448201526064016108dc565b60006013846040516114b09190613845565b908152602001604051809103902054905060006021600083815260200190815260200160002080546114e19061396a565b80601f016020809104026020016040519081016040528092919081815260200182805461150d9061396a565b801561155a5780601f1061152f5761010080835404028352916020019161155a565b820191906000526020600020905b81548152906001019060200180831161153d57829003601f168201915b505050505090506000601a826040516115739190613845565b908152604051908190036020018120549150601490611593908490613845565b9081526040519081900360200190205460ff16156115e45760405162461bcd60e51b815260206004820152600e60248201526d426f782077617320756e646f6e6560901b60448201526064016108dc565b80601e836040516115f59190613845565b908152604051908190036020019020541461164c5760405162461bcd60e51b81526020600482015260176024820152765061727469636970616e7420636f756e742077726f6e6760481b60448201526064016108dc565b336001600160a01b03166012836040516116669190613845565b908152604051908190036020019020546001600160a01b031614806116915750611691600033611d4d565b6116d25760405162461bcd60e51b8152602060048201526012602482015271466f7220626f78206f776e6572206f6e6c7960701b60448201526064016108dc565b60008381526026602052604081205490826001600160401b038111156116fa576116fa613303565b604051908082528060200260200182016040528015611723578160200160208202803683370190505b50905060005b8381101561178d5760408051602081018590529081018290526060016040516020818303038152906040528051906020012060001c82828151811061177057611770613935565b602090810291909101015280611785816138e4565b915050611729565b506000836001600160401b038111156117a8576117a8613303565b6040519080825280602002602001820160405280156117d1578160200160208202803683370190505b5090506000846001600160401b038111156117ee576117ee613303565b604051908082528060200260200182016040528015611817578160200160208202803683370190505b509050601a8660405161182a9190613845565b908152604080519182900360209081018320805480830285018301909352828452919083018282801561187c57602002820191906000526020600020905b815481526020019060010190808311611868575b505050505091506019866040516118939190613845565b90815260408051918290036020908101832080548083028501830190935282845291908301828280156118ef57602002820191906000526020600020905b81546001600160a01b031681526001909101906020018083116118d1575b5050505050905060005b85811015611a5c57600061190e6001886139a5565b85838151811061192057611920613935565b602002602001015161193291906139d2565b9050600084828151811061194857611948613935565b60200260200101519050600084838151811061196657611966613935565b6020026020010151905085848151811061198257611982613935565b602002602001015186848151811061199c5761199c613935565b6020026020010181815250508484815181106119ba576119ba613935565b60200260200101518584815181106119d4576119d4613935565b60200260200101906001600160a01b031690816001600160a01b03168152505081868581518110611a0757611a07613935565b60200260200101818152505080858581518110611a2657611a26613935565b60200260200101906001600160a01b031690816001600160a01b0316815250505050508080611a54906138e4565b9150506118f9565b5060008781526022602090815260409091208351611a7c928501906131b1565b5060008781526023602090815260409091208251611a9c928401906131fc565b5060005b600088815260226020526040902054811015611bdc576000888152602360205260408120805483908110611ad657611ad6613935565b60009182526020808320909101548b835260229091526040822080546001600160a01b0390921693509084908110611b1057611b10613935565b90600052602060002001549050816001600160a01b03166342842e0e30601e8c604051611b3d9190613845565b90815260200160405180910390208681548110611b5c57611b5c613935565b6000918252602090912001546040516001600160e01b031960e085901b168152611b9592916001600160a01b03169086906004016138aa565b600060405180830381600087803b158015611baf57600080fd5b505af1158015611bc3573d6000803e3d6000fd5b5050505050508080611bd4906138e4565b915050611aa0565b50999098509650505050505050565b6003546001600160a01b03163314611c3e5760405162461bcd60e51b815260206004820152601660248201527526bab9ba10313290383937b837b9b2b21037bbb732b960511b60448201526064016108dc565b600280546001600160a01b0319808216339081179093556003805490911690556040516001600160a01b03909116919082907f8be0079c531659141344cd1fd0a4f28419497f9722a3daafe3b4186f6b6457e090600090a350565b6060816001600160401b03811115611cb357611cb3613303565b604051908082528060200260200182016040528015611cdc578160200160208202803683370190505b50905060005b82811015611d465760408051602081018690529081018290526060016040516020818303038152906040528051906020012060001c828281518110611d2957611d29613935565b602090810291909101015280611d3e816138e4565b915050611ce2565b5092915050565b60009182526001602090815260408084206001600160a01b0393909316845291905290205460ff1690565b336001600160a01b037f00000000000000000000000000000000000000000000000000000000000000001614611df05760405162461bcd60e51b815260206004820152601f60248201527f4f6e6c7920565246436f6f7264696e61746f722063616e2066756c66696c6c0060448201526064016108dc565b610f5e8282612cb5565b611e02612c60565b6040516370a0823160e01b815230600482015281906001600160a01b0382169063a9059cbb90339083906370a0823190602401602060405180830381865afa158015611e52573d6000803e3d6000fd5b505050506040513d601f19601f82011682018060405250810190611e7691906138ff565b6040516001600160e01b031960e085901b1681526001600160a01b03909216600483015260248201526044016020604051808303816000875af1158015611ec1573d6000803e3d6000fd5b505050506040513d601f19601f82011682018060405250810190611ee59190613918565b610f5e5760405162461bcd60e51b81526020600482015260126024820152712ab730b13632903a37903a3930b739b332b960711b60448201526064016108dc565b6000601a82604051611f389190613845565b9081526040519081900360200181205490601e90611f57908590613845565b9081526040519081900360200190205414611fae5760405162461bcd60e51b81526020600482015260176024820152765061727469636970616e7420636f756e742077726f6e6760481b60448201526064016108dc565b336001600160a01b0316601283604051611fc89190613845565b908152604051908190036020019020546001600160a01b03161480611ff35750611ff3600033611d4d565b61200f5760405162461bcd60e51b81526004016108dc90613861565b600061201f600b54600c54612dd1565b9050806013846040516120329190613845565b90815260408051602092819003830190209290925560008381526021825291909120845161206292860190613251565b5060008181526024602052604090819020805460ff191660011790555161208a908490613845565b6040519081900381209082907f844d0db67f0eaf76c1c6f375aaf8ca8fc58bbb0c59c23f9c108dc5c75e79780590600090a392915050565b6120ca612c60565b6025826040516120da9190613845565b9081526040519081900360200190205460ff166121275760405162461bcd60e51b815260206004820152600b60248201526a09cde40e6eac6d040c4def60ab1b60448201526064016108dc565b60006013836040516121399190613845565b908152604080519182900360209081018320546000818152602683529290922085905590925060019161216d908690613845565b908152604051908190036020018120805492151560ff19909316929092179091558290829061219d908690613845565b604051908190038120907fd21d47b2733aaafbffc1355c71aff0747151b3314fafb5d8e50241ac74275ba090600090a4505050565b60006016856040516121e49190613845565b9081526040519081900360200190205460ff1661224d5760405162461bcd60e51b815260206004820152602160248201527f4b657920537562736372697074696f6e206973206e6f74206f70656e207965746044820152602160f81b60648201526084016108dc565b601d8560405161225d9190613845565b90815260408051602092819003830190206001600160a01b038616600090815290835281812085825290925290205460ff166122e75760405162461bcd60e51b8152602060048201526024808201527f4b65792077617320616c72656164792075736564206f72206e6f6e2d657869736044820152631d185b9d60e21b60648201526084016108dc565b601a856040516122f79190613845565b9081526040519081900360200181205490601e90612316908890613845565b90815260405190819003602001902054106123685760405162461bcd60e51b8152602060048201526012602482015271139bc8135bdc994814dc1bdd1cc81319599d60721b60448201526064016108dc565b6040516331a9108f60e11b8152600481018390526001600160a01b038086169190851690636352211e90602401602060405180830381865afa1580156123b2573d6000803e3d6000fd5b505050506040513d601f19601f820116820180604052508101906123d6919061388d565b6001600160a01b03161461242c5760405162461bcd60e51b815260206004820152601f60248201527f53756273637269626572206e6f74206f776e6572206f6620746865204b65790060448201526064016108dc565b601e8560405161243c9190613845565b908152604051602091819003820181208054600181018255600091825292812090920180546001600160a01b0319166001600160a01b038816179055601d90612486908890613845565b90815260408051602092819003830181206001600160a01b03881660009081529084528281208782529093529120805460ff1916921515929092179091556124cf908690613845565b604080519182900382206001600160a01b038716835260016020840152917f67652d8cc5c8d54581f4b2f6bd33513a6bc34f68f7dce9cc837aafc6b5a81429910160405180910390a2506001949350505050565b600082815260016020819052604090912001546125408133612b2a565b610b248383612bf9565b8151602081840181018051601e82529282019185019190912091905280548290811061257557600080fd5b6000918252602090912001546001600160a01b03169150829050565b60006015836040516125a39190613845565b9081526040519081900360200190205460ff166126105760405162461bcd60e51b815260206004820152602560248201527f47656e6572616c20537562736372697074696f6e206973206e6f74206f70656e604482015264207965742160d81b60648201526084016108dc565b601f836040516126209190613845565b90815260408051602092819003830190206001600160a01b0385166000908152925290205460ff16158061265a575061265a600033611d4d565b6126a65760405162461bcd60e51b815260206004820152601960248201527f57616c6c657420416c726561647920537562736372696265640000000000000060448201526064016108dc565b601a836040516126b69190613845565b9081526040519081900360200181205490601e906126d5908690613845565b90815260405190819003602001902054106127275760405162461bcd60e51b8152602060048201526012602482015271139bc8135bdc994814dc1bdd1cc81319599d60721b60448201526064016108dc565b60006018846040516127399190613845565b908152602001604051809103902060009054906101000a90046001600160a01b031690506000612796606461279060105460178960405161277a9190613845565b9081526040519081900360200190205490612f4c565b90612f5f565b905060006127c1606461279060105460646127b191906139a5565b60178a60405161277a9190613845565b90506017866040516127d39190613845565b9081526020016040518091039020546000148061290857506011546040516323b872dd60e01b81526001600160a01b03808616926323b872dd9261281f923392169087906004016138aa565b6020604051808303816000875af115801561283e573d6000803e3d6000fd5b505050506040513d601f19601f820116820180604052508101906128629190613918565b80156129085750826001600160a01b03166323b872dd336012896040516128899190613845565b908152604051908190036020018120546001600160e01b031960e085901b1682526128c592916001600160a01b039091169086906004016138aa565b6020604051808303816000875af11580156128e4573d6000803e3d6000fd5b505050506040513d601f19601f820116820180604052508101906129089190613918565b61294d5760405162461bcd60e51b81526020600482015260166024820152751058d8d95cdcc81199595cc81611948811985a5b195960521b60448201526064016108dc565b601e8660405161295d9190613845565b908152604051602091819003820181208054600180820183556000928352939091200180546001600160a01b0319166001600160a01b038916179055601f906129a7908990613845565b90815260408051602092819003830181206001600160a01b038a16600090815293529120805460ff1916921515929092179091556129e6908790613845565b604080519182900382206001600160a01b038816835260006020840152917f67652d8cc5c8d54581f4b2f6bd33513a6bc34f68f7dce9cc837aafc6b5a81429910160405180910390a250600195945050505050565b612a43612c60565b612a4c81612f6b565b50565b612a57612c60565b600c91909155600b55565b336001600160a01b0316601284604051612a7c9190613845565b908152604051908190036020019020546001600160a01b03161480612aa75750612aa7600033611d4d565b612ac35760405162461bcd60e51b81526004016108dc90613861565b81601584604051612ad49190613845565b908152604051908190036020018120805492151560ff19909316929092179091558190601690612b05908690613845565b908152604051908190036020019020805491151560ff19909216919091179055505050565b612b348282611d4d565b610f5e57612b4c816001600160a01b03166014613016565b612b57836020613016565b604051602001612b689291906139e6565b60408051601f198184030181529082905262461bcd60e51b82526108dc91600401613a87565b612b988282611d4d565b610f5e5760008281526001602081815260408084206001600160a01b0386168086529252808420805460ff19169093179092559051339285917f2f8788117e7eff1d82e926ec794901d17c78024a50270940304540a733656f0d9190a45050565b612c038282611d4d565b15610f5e5760008281526001602090815260408083206001600160a01b0385168085529252808320805460ff1916905551339285917ff6391f5c32d9c69d2a47ea670b442974b53935d1edc7fd64eb21e047a839171b9190a45050565b6002546001600160a01b03163314612cb35760405162461bcd60e51b815260206004820152601660248201527527b7363c9031b0b63630b1363290313c9037bbb732b960511b60448201526064016108dc565b565b60008281526021602052604081208054612cce9061396a565b80601f0160208091040260200160405190810160405280929190818152602001828054612cfa9061396a565b8015612d475780601f10612d1c57610100808354040283529160200191612d47565b820191906000526020600020905b815481529060010190602001808311612d2a57829003601f168201915b50505050509050818382604051612d5e9190613845565b604051908190038120907fd21d47b2733aaafbffc1355c71aff0747151b3314fafb5d8e50241ac74275ba090600090a46001602082604051612da09190613845565b9081526040805160209281900383019020805460ff1916931515939093179092556000948552602690529092205550565b60007f00000000000000000000000000000000000000000000000000000000000000006001600160a01b0316634000aea07f000000000000000000000000000000000000000000000000000000000000000084866000604051602001612e41929190918252602082015260400190565b6040516020818303038152906040526040518463ffffffff1660e01b8152600401612e6e93929190613a9a565b6020604051808303816000875af1158015612e8d573d6000803e3d6000fd5b505050506040513d601f19601f82011682018060405250810190612eb19190613918565b5060008381526020818152604080832054815180840188905280830185905230606082015260808082018390528351808303909101815260a090910190925281519183019190912086845292909152612f0b906001613aca565b60008581526020818152604091829020929092558051808301879052808201849052815180820383018152606090910190915280519101205b949350505050565b6000612f58828461394b565b9392505050565b6000612f588284613ae2565b6001600160a01b038116331415612fc45760405162461bcd60e51b815260206004820152601760248201527f43616e6e6f74207472616e7366657220746f2073656c6600000000000000000060448201526064016108dc565b600380546001600160a01b0319166001600160a01b03838116918217909255600254604051919216907fed8889f560326eb138920d842192f0eb3dd22b4f139c87a2c57538e05bae127890600090a350565b6060600061302583600261394b565b613030906002613aca565b6001600160401b0381111561304757613047613303565b6040519080825280601f01601f191660200182016040528015613071576020820181803683370190505b509050600360fc1b8160008151811061308c5761308c613935565b60200101906001600160f81b031916908160001a905350600f60fb1b816001815181106130bb576130bb613935565b60200101906001600160f81b031916908160001a90535060006130df84600261394b565b6130ea906001613aca565b90505b6001811115613162576f181899199a1a9b1b9c1cb0b131b232b360811b85600f166010811061311e5761311e613935565b1a60f81b82828151811061313457613134613935565b60200101906001600160f81b031916908160001a90535060049490941c9361315b81613af6565b90506130ed565b508315612f585760405162461bcd60e51b815260206004820181905260248201527f537472696e67733a20686578206c656e67746820696e73756666696369656e7460448201526064016108dc565b8280548282559060005260206000209081019282156131ec579160200282015b828111156131ec5782518255916020019190600101906131d1565b506131f89291506132c4565b5090565b8280548282559060005260206000209081019282156131ec579160200282015b828111156131ec57825182546001600160a01b0319166001600160a01b0390911617825560209092019160019091019061321c565b82805461325d9061396a565b90600052602060002090601f01602090048101928261327f57600085556131ec565b82601f1061329857805160ff19168380011785556131ec565b828001600101855582156131ec57918201828111156131ec5782518255916020019190600101906131d1565b5b808211156131f857600081556001016132c5565b6000602082840312156132eb57600080fd5b81356001600160e01b031981168114612f5857600080fd5b634e487b7160e01b600052604160045260246000fd5b60006001600160401b038084111561333357613333613303565b604051601f8501601f19908116603f0116810190828211818310171561335b5761335b613303565b8160405280935085815286868601111561337457600080fd5b858560208301376000602087830101525050509392505050565b600082601f83011261339f57600080fd5b612f5883833560208501613319565b6000602082840312156133c057600080fd5b81356001600160401b038111156133d657600080fd5b612f448482850161338e565b6001600160a01b0381168114612a4c57600080fd5b6000806000806080858703121561340d57600080fd5b8435613418816133e2565b93506020850135613428816133e2565b92506040850135915060608501356001600160401b0381111561344a57600080fd5b8501601f8101871361345b57600080fd5b61346a87823560208401613319565b91505092959194509250565b6000806000806080858703121561348c57600080fd5b84356001600160401b038111156134a257600080fd5b6134ae8782880161338e565b94505060208501356134bf816133e2565b93969395505050506040820135916060013590565b6000602082840312156134e657600080fd5b5035919050565b6000806040838503121561350057600080fd5b823591506020830135613512816133e2565b809150509250929050565b60008060008060008060008060006101208a8c03121561353c57600080fd5b89356001600160401b0381111561355257600080fd5b61355e8c828d0161338e565b99505060208a013561356f816133e2565b975060408a0135965060608a0135955060808a013561358d816133e2565b945060a08a0135935060c08a0135925060e08a01356135ab816133e2565b809250506101008a013590509295985092959850929598565b600080604083850312156135d757600080fd5b50508035926020909101359150565b600081518084526020808501945080840160005b83811015613616578151875295820195908201906001016135fa565b509495945050505050565b604080825283519082018190526000906020906060840190828701845b828110156136635781516001600160a01b03168452928401929084019060010161363e565b5050508381038285015261367781866135e6565b9695505050505050565b602081526000612f5860208301846135e6565b6000602082840312156136a657600080fd5b8135612f58816133e2565b600080604083850312156136c457600080fd5b82356001600160401b038111156136da57600080fd5b6136e68582860161338e565b95602094909401359450505050565b6000806000806080858703121561370b57600080fd5b84356001600160401b0381111561372157600080fd5b61372d8782880161338e565b945050602085013561373e816133e2565b9250604085013561374e816133e2565b9396929550929360600135925050565b6000806040838503121561377157600080fd5b82356001600160401b0381111561378757600080fd5b6137938582860161338e565b9250506020830135613512816133e2565b8015158114612a4c57600080fd5b6000806000606084860312156137c757600080fd5b83356001600160401b038111156137dd57600080fd5b6137e98682870161338e565b93505060208401356137fa816137a4565b9150604084013561380a816137a4565b809150509250925092565b60005b83811015613830578181015183820152602001613818565b8381111561383f576000848401525b50505050565b60008251613857818460208701613815565b9190910192915050565b602080825260129082015271466f7220426f78204f776e6572204f6e6c7960701b604082015260600190565b60006020828403121561389f57600080fd5b8151612f58816133e2565b6001600160a01b039384168152919092166020820152604081019190915260600190565b634e487b7160e01b600052601160045260246000fd5b60006000198214156138f8576138f86138ce565b5060010190565b60006020828403121561391157600080fd5b5051919050565b60006020828403121561392a57600080fd5b8151612f58816137a4565b634e487b7160e01b600052603260045260246000fd5b6000816000190483118215151615613965576139656138ce565b500290565b600181811c9082168061397e57607f821691505b6020821081141561399f57634e487b7160e01b600052602260045260246000fd5b50919050565b6000828210156139b7576139b76138ce565b500390565b634e487b7160e01b600052601260045260246000fd5b6000826139e1576139e16139bc565b500690565b7f416363657373436f6e74726f6c3a206163636f756e7420000000000000000000815260008351613a1e816017850160208801613815565b7001034b99036b4b9b9b4b733903937b6329607d1b6017918401918201528351613a4f816028840160208801613815565b01602801949350505050565b60008151808452613a73816020860160208601613815565b601f01601f19169290920160200192915050565b602081526000612f586020830184613a5b565b60018060a01b0384168152826020820152606060408201526000613ac16060830184613a5b565b95945050505050565b60008219821115613add57613add6138ce565b500190565b600082613af157613af16139bc565b500490565b600081613b0557613b056138ce565b50600019019056fea2646970667358221220bdc697cd5efff42a6d16e074b3b4afe1ab386756ca7984f8c20b97bc77bee83c64736f6c634300080b0033",
			"opcodes": "PUSH1 0xC0 PUSH1 0x40 MSTORE PUSH1 0x1 PUSH1 0x8 SSTORE PUSH8 0xDE0B6B3A7640000 PUSH1 0xA SSTORE CALLVALUE DUP1 ISZERO PUSH3 0x22 JUMPI PUSH1 0x0 DUP1 REVERT JUMPDEST POP PUSH20 0x8C7382F9D8F56B33781FE506E897A4F1E2D17255 PUSH1 0xA0 MSTORE PUSH20 0x326C977E6EFC84E512BB9C30F76E30C160ED06FB PUSH1 0x80 MSTORE CALLER DUP1 PUSH1 0x0 DUP2 PUSH3 0xAA JUMPI PUSH1 0x40 MLOAD PUSH3 0x461BCD PUSH1 0xE5 SHL DUP2 MSTORE PUSH1 0x20 PUSH1 0x4 DUP3 ADD MSTORE PUSH1 0x18 PUSH1 0x24 DUP3 ADD MSTORE PUSH32 0x43616E6E6F7420736574206F776E657220746F207A65726F0000000000000000 PUSH1 0x44 DUP3 ADD MSTORE PUSH1 0x64 ADD JUMPDEST PUSH1 0x40 MLOAD DUP1 SWAP2 SUB SWAP1 REVERT JUMPDEST PUSH1 0x2 DUP1 SLOAD PUSH1 0x1 PUSH1 0x1 PUSH1 0xA0 SHL SUB NOT AND PUSH1 0x1 PUSH1 0x1 PUSH1 0xA0 SHL SUB DUP5 DUP2 AND SWAP2 SWAP1 SWAP2 OR SWAP1 SWAP2 SSTORE DUP2 AND ISZERO PUSH3 0xDD JUMPI PUSH3 0xDD DUP2 PUSH3 0x1B9 JUMP JUMPDEST POP PUSH3 0xEF SWAP2 POP PUSH1 0x0 SWAP1 POP CALLER PUSH3 0x266 JUMP JUMPDEST PUSH3 0x11B PUSH32 0xE713D936EE004EDC0A77C6094BD6A75D836BDA1EECE05C06DF5D9CE4A89655F CALLER PUSH3 0x266 JUMP JUMPDEST PUSH1 0xD DUP1 SLOAD PUSH1 0x1 PUSH1 0x1 PUSH1 0xA0 SHL SUB NOT SWAP1 DUP2 AND PUSH20 0x326C977E6EFC84E512BB9C30F76E30C160ED06FB OR SWAP1 SWAP2 SSTORE PUSH32 0x6E75B569A01EF56D18CAB6A8E71E6600D6CE853834D4A5748B720D06F878B3A4 PUSH1 0xB SSTORE PUSH6 0x5AF3107A4000 PUSH1 0xC SSTORE PUSH1 0xE DUP1 SLOAD DUP3 AND PUSH20 0x4D8181F051E617642E233BE09CEA71CC3308FFD4 OR SWAP1 SSTORE PUSH1 0x11 DUP1 SLOAD SWAP1 SWAP2 AND CALLER OR SWAP1 SSTORE PUSH1 0xA SLOAD PUSH3 0x1AB SWAP1 PUSH1 0x32 PUSH3 0x2FE JUMP JUMPDEST PUSH1 0xF SSTORE PUSH1 0xA PUSH1 0x10 SSTORE PUSH3 0x32C JUMP JUMPDEST PUSH1 0x1 PUSH1 0x1 PUSH1 0xA0 SHL SUB DUP2 AND CALLER EQ ISZERO PUSH3 0x214 JUMPI PUSH1 0x40 MLOAD PUSH3 0x461BCD PUSH1 0xE5 SHL DUP2 MSTORE PUSH1 0x20 PUSH1 0x4 DUP3 ADD MSTORE PUSH1 0x17 PUSH1 0x24 DUP3 ADD MSTORE PUSH32 0x43616E6E6F74207472616E7366657220746F2073656C66000000000000000000 PUSH1 0x44 DUP3 ADD MSTORE PUSH1 0x64 ADD PUSH3 0xA1 JUMP JUMPDEST PUSH1 0x3 DUP1 SLOAD PUSH1 0x1 PUSH1 0x1 PUSH1 0xA0 SHL SUB NOT AND PUSH1 0x1 PUSH1 0x1 PUSH1 0xA0 SHL SUB DUP4 DUP2 AND SWAP2 DUP3 OR SWAP1 SWAP3 SSTORE PUSH1 0x2 SLOAD PUSH1 0x40 MLOAD SWAP2 SWAP3 AND SWAP1 PUSH32 0xED8889F560326EB138920D842192F0EB3DD22B4F139C87A2C57538E05BAE1278 SWAP1 PUSH1 0x0 SWAP1 LOG3 POP JUMP JUMPDEST PUSH3 0x272 DUP3 DUP3 PUSH3 0x276 JUMP JUMPDEST POP POP JUMP JUMPDEST PUSH1 0x0 DUP3 DUP2 MSTORE PUSH1 0x1 PUSH1 0x20 SWAP1 DUP2 MSTORE PUSH1 0x40 DUP1 DUP4 KECCAK256 PUSH1 0x1 PUSH1 0x1 PUSH1 0xA0 SHL SUB DUP6 AND DUP5 MSTORE SWAP1 SWAP2 MSTORE SWAP1 KECCAK256 SLOAD PUSH1 0xFF AND PUSH3 0x272 JUMPI PUSH1 0x0 DUP3 DUP2 MSTORE PUSH1 0x1 PUSH1 0x20 DUP2 DUP2 MSTORE PUSH1 0x40 DUP1 DUP5 KECCAK256 PUSH1 0x1 PUSH1 0x1 PUSH1 0xA0 SHL SUB DUP7 AND DUP1 DUP7 MSTORE SWAP3 MSTORE DUP1 DUP5 KECCAK256 DUP1 SLOAD PUSH1 0xFF NOT AND SWAP1 SWAP4 OR SWAP1 SWAP3 SSTORE SWAP1 MLOAD CALLER SWAP3 DUP6 SWAP2 PUSH32 0x2F8788117E7EFF1D82E926EC794901D17C78024A50270940304540A733656F0D SWAP2 SWAP1 LOG4 POP POP JUMP JUMPDEST PUSH1 0x0 DUP2 PUSH1 0x0 NOT DIV DUP4 GT DUP3 ISZERO ISZERO AND ISZERO PUSH3 0x327 JUMPI PUSH4 0x4E487B71 PUSH1 0xE0 SHL PUSH1 0x0 MSTORE PUSH1 0x11 PUSH1 0x4 MSTORE PUSH1 0x24 PUSH1 0x0 REVERT JUMPDEST POP MUL SWAP1 JUMP JUMPDEST PUSH1 0x80 MLOAD PUSH1 0xA0 MLOAD PUSH2 0x3B43 PUSH3 0x360 PUSH1 0x0 CODECOPY PUSH1 0x0 DUP2 DUP2 PUSH2 0x1D83 ADD MSTORE PUSH2 0x2E04 ADD MSTORE PUSH1 0x0 DUP2 DUP2 PUSH2 0xC0E ADD MSTORE PUSH2 0x2DD5 ADD MSTORE PUSH2 0x3B43 PUSH1 0x0 RETURN INVALID PUSH1 0x80 PUSH1 0x40 MSTORE PUSH1 0x4 CALLDATASIZE LT PUSH2 0x230 JUMPI PUSH1 0x0 CALLDATALOAD PUSH1 0xE0 SHR DUP1 PUSH4 0x874B3AFC GT PUSH2 0x12E JUMPI DUP1 PUSH4 0xBBFA3DFD GT PUSH2 0xAB JUMPI DUP1 PUSH4 0xDF2E3585 GT PUSH2 0x6F JUMPI DUP1 PUSH4 0xDF2E3585 EQ PUSH2 0x7A2 JUMPI DUP1 PUSH4 0xE6711A28 EQ PUSH2 0x7C2 JUMPI DUP1 PUSH4 0xF2FDE38B EQ PUSH2 0x7E2 JUMPI DUP1 PUSH4 0xF7490B34 EQ PUSH2 0x802 JUMPI DUP1 PUSH4 0xFCECB275 EQ PUSH2 0x822 JUMPI PUSH1 0x0 DUP1 REVERT JUMPDEST DUP1 PUSH4 0xBBFA3DFD EQ PUSH2 0x6E1 JUMPI DUP1 PUSH4 0xC2E4EE08 EQ PUSH2 0x701 JUMPI DUP1 PUSH4 0xD35669B2 EQ PUSH2 0x721 JUMPI DUP1 PUSH4 0xD547741F EQ PUSH2 0x741 JUMPI DUP1 PUSH4 0xDD5D5CB5 EQ PUSH2 0x761 JUMPI PUSH1 0x0 DUP1 REVERT JUMPDEST DUP1 PUSH4 0x9499BC3C GT PUSH2 0xF2 JUMPI DUP1 PUSH4 0x9499BC3C EQ PUSH2 0x62E JUMPI DUP1 PUSH4 0xA217FDDF EQ PUSH2 0x666 JUMPI DUP1 PUSH4 0xAFDD85DC EQ PUSH2 0x67B JUMPI DUP1 PUSH4 0xB56F251B EQ PUSH2 0x691 JUMPI DUP1 PUSH4 0xB800F216 EQ PUSH2 0x6B1 JUMPI PUSH1 0x0 DUP1 REVERT JUMPDEST DUP1 PUSH4 0x874B3AFC EQ PUSH2 0x562 JUMPI DUP1 PUSH4 0x89E07564 EQ PUSH2 0x58F JUMPI DUP1 PUSH4 0x8DA5CB5B EQ PUSH2 0x5D0 JUMPI DUP1 PUSH4 0x91D14854 EQ PUSH2 0x5EE JUMPI DUP1 PUSH4 0x94985DDD EQ PUSH2 0x60E JUMPI PUSH1 0x0 DUP1 REVERT JUMPDEST DUP1 PUSH4 0x376A902A GT PUSH2 0x1BC JUMPI DUP1 PUSH4 0x6C6C2EFB GT PUSH2 0x180 JUMPI DUP1 PUSH4 0x6C6C2EFB EQ PUSH2 0x471 JUMPI DUP1 PUSH4 0x6D1BAC41 EQ PUSH2 0x4AC JUMPI DUP1 PUSH4 0x79BA5097 EQ PUSH2 0x4DA JUMPI DUP1 PUSH4 0x8577EFC5 EQ PUSH2 0x4EF JUMPI DUP1 PUSH4 0x873937FD EQ PUSH2 0x527 JUMPI PUSH1 0x0 DUP1 REVERT JUMPDEST DUP1 PUSH4 0x376A902A EQ PUSH2 0x3C1 JUMPI DUP1 PUSH4 0x442A9FD0 EQ PUSH2 0x3FB JUMPI DUP1 PUSH4 0x44CF8D53 EQ PUSH2 0x41B JUMPI DUP1 PUSH4 0x494B194E EQ PUSH2 0x43B JUMPI DUP1 PUSH4 0x5725054B EQ PUSH2 0x45B JUMPI PUSH1 0x0 DUP1 REVERT JUMPDEST DUP1 PUSH4 0x248A9CA3 GT PUSH2 0x203 JUMPI DUP1 PUSH4 0x248A9CA3 EQ PUSH2 0x307 JUMPI DUP1 PUSH4 0x2F2FF15D EQ PUSH2 0x338 JUMPI DUP1 PUSH4 0x337CA962 EQ PUSH2 0x35A JUMPI DUP1 PUSH4 0x3463CDBC EQ PUSH2 0x38E JUMPI DUP1 PUSH4 0x36568ABE EQ PUSH2 0x3A1 JUMPI PUSH1 0x0 DUP1 REVERT JUMPDEST DUP1 PUSH4 0x1FFC9A7 EQ PUSH2 0x235 JUMPI DUP1 PUSH4 0xBD19B30 EQ PUSH2 0x26A JUMPI DUP1 PUSH4 0x150B7A02 EQ PUSH2 0x2B0 JUMPI DUP1 PUSH4 0x20900A59 EQ PUSH2 0x2F4 JUMPI JUMPDEST PUSH1 0x0 DUP1 REVERT JUMPDEST CALLVALUE DUP1 ISZERO PUSH2 0x241 JUMPI PUSH1 0x0 DUP1 REVERT JUMPDEST POP PUSH2 0x255 PUSH2 0x250 CALLDATASIZE PUSH1 0x4 PUSH2 0x32D9 JUMP JUMPDEST PUSH2 0x842 JUMP JUMPDEST PUSH1 0x40 MLOAD SWAP1 ISZERO ISZERO DUP2 MSTORE PUSH1 0x20 ADD JUMPDEST PUSH1 0x40 MLOAD DUP1 SWAP2 SUB SWAP1 RETURN JUMPDEST CALLVALUE DUP1 ISZERO PUSH2 0x276 JUMPI PUSH1 0x0 DUP1 REVERT JUMPDEST POP PUSH2 0x2A2 PUSH2 0x285 CALLDATASIZE PUSH1 0x4 PUSH2 0x33AE JUMP JUMPDEST DUP1 MLOAD PUSH1 0x20 DUP2 DUP4 ADD DUP2 ADD DUP1 MLOAD PUSH1 0x17 DUP3 MSTORE SWAP3 DUP3 ADD SWAP2 SWAP1 SWAP4 ADD KECCAK256 SWAP2 MSTORE SLOAD DUP2 JUMP JUMPDEST PUSH1 0x40 MLOAD SWAP1 DUP2 MSTORE PUSH1 0x20 ADD PUSH2 0x261 JUMP JUMPDEST CALLVALUE DUP1 ISZERO PUSH2 0x2BC JUMPI PUSH1 0x0 DUP1 REVERT JUMPDEST POP PUSH2 0x2DB PUSH2 0x2CB CALLDATASIZE PUSH1 0x4 PUSH2 0x33F7 JUMP JUMPDEST PUSH4 0xA85BD01 PUSH1 0xE1 SHL SWAP5 SWAP4 POP POP POP POP JUMP JUMPDEST PUSH1 0x40 MLOAD PUSH1 0x1 PUSH1 0x1 PUSH1 0xE0 SHL SUB NOT SWAP1 SWAP2 AND DUP2 MSTORE PUSH1 0x20 ADD PUSH2 0x261 JUMP JUMPDEST PUSH2 0x255 PUSH2 0x302 CALLDATASIZE PUSH1 0x4 PUSH2 0x3476 JUMP JUMPDEST PUSH2 0x879 JUMP JUMPDEST CALLVALUE DUP1 ISZERO PUSH2 0x313 JUMPI PUSH1 0x0 DUP1 REVERT JUMPDEST POP PUSH2 0x2A2 PUSH2 0x322 CALLDATASIZE PUSH1 0x4 PUSH2 0x34D4 JUMP JUMPDEST PUSH1 0x0 SWAP1 DUP2 MSTORE PUSH1 0x1 PUSH1 0x20 DUP2 SWAP1 MSTORE PUSH1 0x40 SWAP1 SWAP2 KECCAK256 ADD SLOAD SWAP1 JUMP JUMPDEST CALLVALUE DUP1 ISZERO PUSH2 0x344 JUMPI PUSH1 0x0 DUP1 REVERT JUMPDEST POP PUSH2 0x358 PUSH2 0x353 CALLDATASIZE PUSH1 0x4 PUSH2 0x34ED JUMP JUMPDEST PUSH2 0xAFD JUMP JUMPDEST STOP JUMPDEST CALLVALUE DUP1 ISZERO PUSH2 0x366 JUMPI PUSH1 0x0 DUP1 REVERT JUMPDEST POP PUSH2 0x2A2 PUSH32 0xE713D936EE004EDC0A77C6094BD6A75D836BDA1EECE05C06DF5D9CE4A89655F DUP2 JUMP JUMPDEST PUSH2 0x255 PUSH2 0x39C CALLDATASIZE PUSH1 0x4 PUSH2 0x351D JUMP JUMPDEST PUSH2 0xB29 JUMP JUMPDEST CALLVALUE DUP1 ISZERO PUSH2 0x3AD JUMPI PUSH1 0x0 DUP1 REVERT JUMPDEST POP PUSH2 0x358 PUSH2 0x3BC CALLDATASIZE PUSH1 0x4 PUSH2 0x34ED JUMP JUMPDEST PUSH2 0xEE4 JUMP JUMPDEST CALLVALUE DUP1 ISZERO PUSH2 0x3CD JUMPI PUSH1 0x0 DUP1 REVERT JUMPDEST POP PUSH2 0x255 PUSH2 0x3DC CALLDATASIZE PUSH1 0x4 PUSH2 0x33AE JUMP JUMPDEST DUP1 MLOAD PUSH1 0x20 DUP2 DUP4 ADD DUP2 ADD DUP1 MLOAD DUP3 DUP3 MSTORE SWAP3 DUP3 ADD SWAP2 SWAP1 SWAP4 ADD KECCAK256 SWAP2 MSTORE SLOAD PUSH1 0xFF AND DUP2 JUMP JUMPDEST CALLVALUE DUP1 ISZERO PUSH2 0x407 JUMPI PUSH1 0x0 DUP1 REVERT JUMPDEST POP PUSH2 0x255 PUSH2 0x416 CALLDATASIZE PUSH1 0x4 PUSH2 0x33AE JUMP JUMPDEST PUSH2 0xF62 JUMP JUMPDEST CALLVALUE DUP1 ISZERO PUSH2 0x427 JUMPI PUSH1 0x0 DUP1 REVERT JUMPDEST POP PUSH2 0x358 PUSH2 0x436 CALLDATASIZE PUSH1 0x4 PUSH2 0x3476 JUMP JUMPDEST PUSH2 0x11A1 JUMP JUMPDEST CALLVALUE DUP1 ISZERO PUSH2 0x447 JUMPI PUSH1 0x0 DUP1 REVERT JUMPDEST POP PUSH2 0x358 PUSH2 0x456 CALLDATASIZE PUSH1 0x4 PUSH2 0x35C4 JUMP JUMPDEST PUSH2 0x12EF JUMP JUMPDEST CALLVALUE DUP1 ISZERO PUSH2 0x467 JUMPI PUSH1 0x0 DUP1 REVERT JUMPDEST POP PUSH2 0x2A2 PUSH1 0xF SLOAD DUP2 JUMP JUMPDEST CALLVALUE DUP1 ISZERO PUSH2 0x47D JUMPI PUSH1 0x0 DUP1 REVERT JUMPDEST POP PUSH2 0x255 PUSH2 0x48C CALLDATASIZE PUSH1 0x4 PUSH2 0x33AE JUMP JUMPDEST DUP1 MLOAD PUSH1 0x20 DUP2 DUP4 ADD DUP2 ADD DUP1 MLOAD PUSH1 0x15 DUP3 MSTORE SWAP3 DUP3 ADD SWAP2 SWAP1 SWAP4 ADD KECCAK256 SWAP2 MSTORE SLOAD PUSH1 0xFF AND DUP2 JUMP JUMPDEST CALLVALUE DUP1 ISZERO PUSH2 0x4B8 JUMPI PUSH1 0x0 DUP1 REVERT JUMPDEST POP PUSH2 0x4CC PUSH2 0x4C7 CALLDATASIZE PUSH1 0x4 PUSH2 0x33AE JUMP JUMPDEST PUSH2 0x130D JUMP JUMPDEST PUSH1 0x40 MLOAD PUSH2 0x261 SWAP3 SWAP2 SWAP1 PUSH2 0x3621 JUMP JUMPDEST CALLVALUE DUP1 ISZERO PUSH2 0x4E6 JUMPI PUSH1 0x0 DUP1 REVERT JUMPDEST POP PUSH2 0x358 PUSH2 0x1BEB JUMP JUMPDEST CALLVALUE DUP1 ISZERO PUSH2 0x4FB JUMPI PUSH1 0x0 DUP1 REVERT JUMPDEST POP PUSH1 0xE SLOAD PUSH2 0x50F SWAP1 PUSH1 0x1 PUSH1 0x1 PUSH1 0xA0 SHL SUB AND DUP2 JUMP JUMPDEST PUSH1 0x40 MLOAD PUSH1 0x1 PUSH1 0x1 PUSH1 0xA0 SHL SUB SWAP1 SWAP2 AND DUP2 MSTORE PUSH1 0x20 ADD PUSH2 0x261 JUMP JUMPDEST CALLVALUE DUP1 ISZERO PUSH2 0x533 JUMPI PUSH1 0x0 DUP1 REVERT JUMPDEST POP PUSH2 0x255 PUSH2 0x542 CALLDATASIZE PUSH1 0x4 PUSH2 0x33AE JUMP JUMPDEST DUP1 MLOAD PUSH1 0x20 DUP2 DUP4 ADD DUP2 ADD DUP1 MLOAD PUSH1 0x16 DUP3 MSTORE SWAP3 DUP3 ADD SWAP2 SWAP1 SWAP4 ADD KECCAK256 SWAP2 MSTORE SLOAD PUSH1 0xFF AND DUP2 JUMP JUMPDEST CALLVALUE DUP1 ISZERO PUSH2 0x56E JUMPI PUSH1 0x0 DUP1 REVERT JUMPDEST POP PUSH2 0x582 PUSH2 0x57D CALLDATASIZE PUSH1 0x4 PUSH2 0x35C4 JUMP JUMPDEST PUSH2 0x1C99 JUMP JUMPDEST PUSH1 0x40 MLOAD PUSH2 0x261 SWAP2 SWAP1 PUSH2 0x3681 JUMP JUMPDEST CALLVALUE DUP1 ISZERO PUSH2 0x59B JUMPI PUSH1 0x0 DUP1 REVERT JUMPDEST POP PUSH2 0x50F PUSH2 0x5AA CALLDATASIZE PUSH1 0x4 PUSH2 0x33AE JUMP JUMPDEST DUP1 MLOAD PUSH1 0x20 DUP2 DUP4 ADD DUP2 ADD DUP1 MLOAD PUSH1 0x12 DUP3 MSTORE SWAP3 DUP3 ADD SWAP2 SWAP1 SWAP4 ADD KECCAK256 SWAP2 MSTORE SLOAD PUSH1 0x1 PUSH1 0x1 PUSH1 0xA0 SHL SUB AND DUP2 JUMP JUMPDEST CALLVALUE DUP1 ISZERO PUSH2 0x5DC JUMPI PUSH1 0x0 DUP1 REVERT JUMPDEST POP PUSH1 0x2 SLOAD PUSH1 0x1 PUSH1 0x1 PUSH1 0xA0 SHL SUB AND PUSH2 0x50F JUMP JUMPDEST CALLVALUE DUP1 ISZERO PUSH2 0x5FA JUMPI PUSH1 0x0 DUP1 REVERT JUMPDEST POP PUSH2 0x255 PUSH2 0x609 CALLDATASIZE PUSH1 0x4 PUSH2 0x34ED JUMP JUMPDEST PUSH2 0x1D4D JUMP JUMPDEST CALLVALUE DUP1 ISZERO PUSH2 0x61A JUMPI PUSH1 0x0 DUP1 REVERT JUMPDEST POP PUSH2 0x358 PUSH2 0x629 CALLDATASIZE PUSH1 0x4 PUSH2 0x35C4 JUMP JUMPDEST PUSH2 0x1D78 JUMP JUMPDEST CALLVALUE DUP1 ISZERO PUSH2 0x63A JUMPI PUSH1 0x0 DUP1 REVERT JUMPDEST POP PUSH2 0x2A2 PUSH2 0x649 CALLDATASIZE PUSH1 0x4 PUSH2 0x33AE JUMP JUMPDEST DUP1 MLOAD PUSH1 0x20 DUP2 DUP4 ADD DUP2 ADD DUP1 MLOAD PUSH1 0x13 DUP3 MSTORE SWAP3 DUP3 ADD SWAP2 SWAP1 SWAP4 ADD KECCAK256 SWAP2 MSTORE SLOAD DUP2 JUMP JUMPDEST CALLVALUE DUP1 ISZERO PUSH2 0x672 JUMPI PUSH1 0x0 DUP1 REVERT JUMPDEST POP PUSH2 0x2A2 PUSH1 0x0 DUP2 JUMP JUMPDEST CALLVALUE DUP1 ISZERO PUSH2 0x687 JUMPI PUSH1 0x0 DUP1 REVERT JUMPDEST POP PUSH2 0x2A2 PUSH1 0x10 SLOAD DUP2 JUMP JUMPDEST CALLVALUE DUP1 ISZERO PUSH2 0x69D JUMPI PUSH1 0x0 DUP1 REVERT JUMPDEST POP PUSH2 0x358 PUSH2 0x6AC CALLDATASIZE PUSH1 0x4 PUSH2 0x3694 JUMP JUMPDEST PUSH2 0x1DFA JUMP JUMPDEST CALLVALUE DUP1 ISZERO PUSH2 0x6BD JUMPI PUSH1 0x0 DUP1 REVERT JUMPDEST POP PUSH2 0x255 PUSH2 0x6CC CALLDATASIZE PUSH1 0x4 PUSH2 0x34D4 JUMP JUMPDEST PUSH1 0x24 PUSH1 0x20 MSTORE PUSH1 0x0 SWAP1 DUP2 MSTORE PUSH1 0x40 SWAP1 KECCAK256 SLOAD PUSH1 0xFF AND DUP2 JUMP JUMPDEST CALLVALUE DUP1 ISZERO PUSH2 0x6ED JUMPI PUSH1 0x0 DUP1 REVERT JUMPDEST POP PUSH2 0x2A2 PUSH2 0x6FC CALLDATASIZE PUSH1 0x4 PUSH2 0x33AE JUMP JUMPDEST PUSH2 0x1F26 JUMP JUMPDEST CALLVALUE DUP1 ISZERO PUSH2 0x70D JUMPI PUSH1 0x0 DUP1 REVERT JUMPDEST POP PUSH2 0x358 PUSH2 0x71C CALLDATASIZE PUSH1 0x4 PUSH2 0x36B1 JUMP JUMPDEST PUSH2 0x20C2 JUMP JUMPDEST CALLVALUE DUP1 ISZERO PUSH2 0x72D JUMPI PUSH1 0x0 DUP1 REVERT JUMPDEST POP PUSH2 0x255 PUSH2 0x73C CALLDATASIZE PUSH1 0x4 PUSH2 0x36F5 JUMP JUMPDEST PUSH2 0x21D2 JUMP JUMPDEST CALLVALUE DUP1 ISZERO PUSH2 0x74D JUMPI PUSH1 0x0 DUP1 REVERT JUMPDEST POP PUSH2 0x358 PUSH2 0x75C CALLDATASIZE PUSH1 0x4 PUSH2 0x34ED JUMP JUMPDEST PUSH2 0x2523 JUMP JUMPDEST CALLVALUE DUP1 ISZERO PUSH2 0x76D JUMPI PUSH1 0x0 DUP1 REVERT JUMPDEST POP PUSH2 0x50F PUSH2 0x77C CALLDATASIZE PUSH1 0x4 PUSH2 0x33AE JUMP JUMPDEST DUP1 MLOAD PUSH1 0x20 DUP2 DUP4 ADD DUP2 ADD DUP1 MLOAD PUSH1 0x18 DUP3 MSTORE SWAP3 DUP3 ADD SWAP2 SWAP1 SWAP4 ADD KECCAK256 SWAP2 MSTORE SLOAD PUSH1 0x1 PUSH1 0x1 PUSH1 0xA0 SHL SUB AND DUP2 JUMP JUMPDEST CALLVALUE DUP1 ISZERO PUSH2 0x7AE JUMPI PUSH1 0x0 DUP1 REVERT JUMPDEST POP PUSH2 0x50F PUSH2 0x7BD CALLDATASIZE PUSH1 0x4 PUSH2 0x36B1 JUMP JUMPDEST PUSH2 0x254A JUMP JUMPDEST CALLVALUE DUP1 ISZERO PUSH2 0x7CE JUMPI PUSH1 0x0 DUP1 REVERT JUMPDEST POP PUSH2 0x255 PUSH2 0x7DD CALLDATASIZE PUSH1 0x4 PUSH2 0x375E JUMP JUMPDEST PUSH2 0x2591 JUMP JUMPDEST CALLVALUE DUP1 ISZERO PUSH2 0x7EE JUMPI PUSH1 0x0 DUP1 REVERT JUMPDEST POP PUSH2 0x358 PUSH2 0x7FD CALLDATASIZE PUSH1 0x4 PUSH2 0x3694 JUMP JUMPDEST PUSH2 0x2A3B JUMP JUMPDEST CALLVALUE DUP1 ISZERO PUSH2 0x80E JUMPI PUSH1 0x0 DUP1 REVERT JUMPDEST POP PUSH2 0x358 PUSH2 0x81D CALLDATASIZE PUSH1 0x4 PUSH2 0x35C4 JUMP JUMPDEST PUSH2 0x2A4F JUMP JUMPDEST CALLVALUE DUP1 ISZERO PUSH2 0x82E JUMPI PUSH1 0x0 DUP1 REVERT JUMPDEST POP PUSH2 0x358 PUSH2 0x83D CALLDATASIZE PUSH1 0x4 PUSH2 0x37B2 JUMP JUMPDEST PUSH2 0x2A62 JUMP JUMPDEST PUSH1 0x0 PUSH1 0x1 PUSH1 0x1 PUSH1 0xE0 SHL SUB NOT DUP3 AND PUSH4 0x7965DB0B PUSH1 0xE0 SHL EQ DUP1 PUSH2 0x873 JUMPI POP PUSH4 0x1FFC9A7 PUSH1 0xE0 SHL PUSH1 0x1 PUSH1 0x1 PUSH1 0xE0 SHL SUB NOT DUP4 AND EQ JUMPDEST SWAP3 SWAP2 POP POP JUMP JUMPDEST PUSH1 0x0 CALLER PUSH1 0x1 PUSH1 0x1 PUSH1 0xA0 SHL SUB AND PUSH1 0x12 DUP7 PUSH1 0x40 MLOAD PUSH2 0x895 SWAP2 SWAP1 PUSH2 0x3845 JUMP JUMPDEST SWAP1 DUP2 MSTORE PUSH1 0x40 MLOAD SWAP1 DUP2 SWAP1 SUB PUSH1 0x20 ADD SWAP1 KECCAK256 SLOAD PUSH1 0x1 PUSH1 0x1 PUSH1 0xA0 SHL SUB AND EQ DUP1 PUSH2 0x8C0 JUMPI POP PUSH2 0x8C0 PUSH1 0x0 CALLER PUSH2 0x1D4D JUMP JUMPDEST PUSH2 0x8E5 JUMPI PUSH1 0x40 MLOAD PUSH3 0x461BCD PUSH1 0xE5 SHL DUP2 MSTORE PUSH1 0x4 ADD PUSH2 0x8DC SWAP1 PUSH2 0x3861 JUMP JUMPDEST PUSH1 0x40 MLOAD DUP1 SWAP2 SUB SWAP1 REVERT JUMPDEST PUSH1 0x25 DUP6 PUSH1 0x40 MLOAD PUSH2 0x8F5 SWAP2 SWAP1 PUSH2 0x3845 JUMP JUMPDEST SWAP1 DUP2 MSTORE PUSH1 0x40 MLOAD SWAP1 DUP2 SWAP1 SUB PUSH1 0x20 ADD SWAP1 KECCAK256 SLOAD PUSH1 0xFF AND PUSH2 0x949 JUMPI PUSH1 0x40 MLOAD PUSH3 0x461BCD PUSH1 0xE5 SHL DUP2 MSTORE PUSH1 0x20 PUSH1 0x4 DUP3 ADD MSTORE PUSH1 0x12 PUSH1 0x24 DUP3 ADD MSTORE PUSH18 0x109BDE08111BD95CC8139BDD08115E1A5CDD PUSH1 0x72 SHL PUSH1 0x44 DUP3 ADD MSTORE PUSH1 0x64 ADD PUSH2 0x8DC JUMP JUMPDEST DUP3 JUMPDEST DUP3 DUP2 GT PUSH2 0xAF1 JUMPI PUSH1 0x40 MLOAD PUSH4 0x31A9108F PUSH1 0xE1 SHL DUP2 MSTORE PUSH1 0x4 DUP2 ADD DUP3 SWAP1 MSTORE CALLER SWAP1 PUSH1 0x1 PUSH1 0x1 PUSH1 0xA0 SHL SUB DUP8 AND SWAP1 PUSH4 0x6352211E SWAP1 PUSH1 0x24 ADD PUSH1 0x20 PUSH1 0x40 MLOAD DUP1 DUP4 SUB DUP2 DUP7 GAS STATICCALL ISZERO DUP1 ISZERO PUSH2 0x999 JUMPI RETURNDATASIZE PUSH1 0x0 DUP1 RETURNDATACOPY RETURNDATASIZE PUSH1 0x0 REVERT JUMPDEST POP POP POP POP PUSH1 0x40 MLOAD RETURNDATASIZE PUSH1 0x1F NOT PUSH1 0x1F DUP3 ADD AND DUP3 ADD DUP1 PUSH1 0x40 MSTORE POP DUP2 ADD SWAP1 PUSH2 0x9BD SWAP2 SWAP1 PUSH2 0x388D JUMP JUMPDEST PUSH1 0x1 PUSH1 0x1 PUSH1 0xA0 SHL SUB AND EQ PUSH2 0x9FF JUMPI PUSH1 0x40 MLOAD PUSH3 0x461BCD PUSH1 0xE5 SHL DUP2 MSTORE PUSH1 0x20 PUSH1 0x4 DUP3 ADD MSTORE PUSH1 0x9 PUSH1 0x24 DUP3 ADD MSTORE PUSH9 0x2737BA1027BBB732B9 PUSH1 0xB9 SHL PUSH1 0x44 DUP3 ADD MSTORE PUSH1 0x64 ADD PUSH2 0x8DC JUMP JUMPDEST PUSH1 0x40 MLOAD PUSH4 0x21421707 PUSH1 0xE1 SHL DUP2 MSTORE PUSH1 0x1 PUSH1 0x1 PUSH1 0xA0 SHL SUB DUP7 AND SWAP1 PUSH4 0x42842E0E SWAP1 PUSH2 0xA2F SWAP1 CALLER SWAP1 ADDRESS SWAP1 DUP7 SWAP1 PUSH1 0x4 ADD PUSH2 0x38AA JUMP JUMPDEST PUSH1 0x0 PUSH1 0x40 MLOAD DUP1 DUP4 SUB DUP2 PUSH1 0x0 DUP8 DUP1 EXTCODESIZE ISZERO DUP1 ISZERO PUSH2 0xA49 JUMPI PUSH1 0x0 DUP1 REVERT JUMPDEST POP GAS CALL ISZERO DUP1 ISZERO PUSH2 0xA5D JUMPI RETURNDATASIZE PUSH1 0x0 DUP1 RETURNDATACOPY RETURNDATASIZE PUSH1 0x0 REVERT JUMPDEST POP POP POP POP PUSH1 0x19 DUP7 PUSH1 0x40 MLOAD PUSH2 0xA71 SWAP2 SWAP1 PUSH2 0x3845 JUMP JUMPDEST SWAP1 DUP2 MSTORE PUSH1 0x40 MLOAD PUSH1 0x20 SWAP2 DUP2 SWAP1 SUB DUP3 ADD DUP2 KECCAK256 DUP1 SLOAD PUSH1 0x1 DUP2 ADD DUP3 SSTORE PUSH1 0x0 SWAP2 DUP3 MSTORE SWAP3 SWAP1 KECCAK256 SWAP1 SWAP2 ADD DUP1 SLOAD PUSH1 0x1 PUSH1 0x1 PUSH1 0xA0 SHL SUB NOT AND PUSH1 0x1 PUSH1 0x1 PUSH1 0xA0 SHL SUB DUP9 AND OR SWAP1 SSTORE PUSH1 0x1A SWAP1 PUSH2 0xABB SWAP1 DUP9 SWAP1 PUSH2 0x3845 JUMP JUMPDEST SWAP1 DUP2 MSTORE PUSH1 0x40 MLOAD PUSH1 0x20 SWAP2 DUP2 SWAP1 SUB DUP3 ADD SWAP1 KECCAK256 DUP1 SLOAD PUSH1 0x1 DUP2 ADD DUP3 SSTORE PUSH1 0x0 SWAP2 DUP3 MSTORE SWAP2 SWAP1 KECCAK256 ADD DUP2 SWAP1 SSTORE DUP1 PUSH2 0xAE9 DUP2 PUSH2 0x38E4 JUMP JUMPDEST SWAP2 POP POP PUSH2 0x94B JUMP JUMPDEST POP PUSH1 0x1 SWAP6 SWAP5 POP POP POP POP POP JUMP JUMPDEST PUSH1 0x0 DUP3 DUP2 MSTORE PUSH1 0x1 PUSH1 0x20 DUP2 SWAP1 MSTORE PUSH1 0x40 SWAP1 SWAP2 KECCAK256 ADD SLOAD PUSH2 0xB1A DUP2 CALLER PUSH2 0x2B2A JUMP JUMPDEST PUSH2 0xB24 DUP4 DUP4 PUSH2 0x2B8E JUMP JUMPDEST POP POP POP JUMP JUMPDEST PUSH1 0x0 PUSH2 0xB55 PUSH32 0xE713D936EE004EDC0A77C6094BD6A75D836BDA1EECE05C06DF5D9CE4A89655F CALLER PUSH2 0x1D4D JUMP JUMPDEST PUSH2 0xB95 JUMPI PUSH1 0x40 MLOAD PUSH3 0x461BCD PUSH1 0xE5 SHL DUP2 MSTORE PUSH1 0x20 PUSH1 0x4 DUP3 ADD MSTORE PUSH1 0x11 PUSH1 0x24 DUP3 ADD MSTORE PUSH17 0x27B7363C903337B9102BA0AC26A0A5A2A9 PUSH1 0x79 SHL PUSH1 0x44 DUP3 ADD MSTORE PUSH1 0x64 ADD PUSH2 0x8DC JUMP JUMPDEST PUSH1 0x25 DUP11 PUSH1 0x40 MLOAD PUSH2 0xBA5 SWAP2 SWAP1 PUSH2 0x3845 JUMP JUMPDEST SWAP1 DUP2 MSTORE PUSH1 0x40 MLOAD SWAP1 DUP2 SWAP1 SUB PUSH1 0x20 ADD SWAP1 KECCAK256 SLOAD PUSH1 0xFF AND ISZERO PUSH2 0xBF6 JUMPI PUSH1 0x40 MLOAD PUSH3 0x461BCD PUSH1 0xE5 SHL DUP2 MSTORE PUSH1 0x20 PUSH1 0x4 DUP3 ADD MSTORE PUSH1 0xE PUSH1 0x24 DUP3 ADD MSTORE PUSH14 0x29B2BA103730B6B2903A30B5B2B7 PUSH1 0x91 SHL PUSH1 0x44 DUP3 ADD MSTORE PUSH1 0x64 ADD PUSH2 0x8DC JUMP JUMPDEST PUSH1 0xC SLOAD PUSH1 0x40 MLOAD PUSH4 0x70A08231 PUSH1 0xE0 SHL DUP2 MSTORE ADDRESS PUSH1 0x4 DUP3 ADD MSTORE PUSH32 0x0 PUSH1 0x1 PUSH1 0x1 PUSH1 0xA0 SHL SUB AND SWAP1 PUSH4 0x70A08231 SWAP1 PUSH1 0x24 ADD PUSH1 0x20 PUSH1 0x40 MLOAD DUP1 DUP4 SUB DUP2 DUP7 GAS STATICCALL ISZERO DUP1 ISZERO PUSH2 0xC5D JUMPI RETURNDATASIZE PUSH1 0x0 DUP1 RETURNDATACOPY RETURNDATASIZE PUSH1 0x0 REVERT JUMPDEST POP POP POP POP PUSH1 0x40 MLOAD RETURNDATASIZE PUSH1 0x1F NOT PUSH1 0x1F DUP3 ADD AND DUP3 ADD DUP1 PUSH1 0x40 MSTORE POP DUP2 ADD SWAP1 PUSH2 0xC81 SWAP2 SWAP1 PUSH2 0x38FF JUMP JUMPDEST LT ISZERO PUSH2 0xCCF JUMPI PUSH1 0x40 MLOAD PUSH3 0x461BCD PUSH1 0xE5 SHL DUP2 MSTORE PUSH1 0x20 PUSH1 0x4 DUP3 ADD MSTORE PUSH1 0x1F PUSH1 0x24 DUP3 ADD MSTORE PUSH32 0x4E6F7420656E6F756768204C494E4B20746F206F66666572206F72616C636500 PUSH1 0x44 DUP3 ADD MSTORE PUSH1 0x64 ADD PUSH2 0x8DC JUMP JUMPDEST PUSH1 0xE SLOAD PUSH1 0x11 SLOAD PUSH1 0xF SLOAD PUSH1 0x40 MLOAD PUSH4 0x23B872DD PUSH1 0xE0 SHL DUP2 MSTORE PUSH1 0x1 PUSH1 0x1 PUSH1 0xA0 SHL SUB SWAP4 DUP5 AND SWAP4 PUSH4 0x23B872DD SWAP4 PUSH2 0xD0A SWAP4 CALLER SWAP4 SWAP3 SWAP1 SWAP2 AND SWAP2 PUSH1 0x4 ADD PUSH2 0x38AA JUMP JUMPDEST PUSH1 0x20 PUSH1 0x40 MLOAD DUP1 DUP4 SUB DUP2 PUSH1 0x0 DUP8 GAS CALL ISZERO DUP1 ISZERO PUSH2 0xD29 JUMPI RETURNDATASIZE PUSH1 0x0 DUP1 RETURNDATACOPY RETURNDATASIZE PUSH1 0x0 REVERT JUMPDEST POP POP POP POP PUSH1 0x40 MLOAD RETURNDATASIZE PUSH1 0x1F NOT PUSH1 0x1F DUP3 ADD AND DUP3 ADD DUP1 PUSH1 0x40 MSTORE POP DUP2 ADD SWAP1 PUSH2 0xD4D SWAP2 SWAP1 PUSH2 0x3918 JUMP JUMPDEST PUSH2 0xD90 JUMPI PUSH1 0x40 MLOAD PUSH3 0x461BCD PUSH1 0xE5 SHL DUP2 MSTORE PUSH1 0x20 PUSH1 0x4 DUP3 ADD MSTORE PUSH1 0x14 PUSH1 0x24 DUP3 ADD MSTORE PUSH20 0x111251D248119959481611995C8819985A5B1959 PUSH1 0x62 SHL PUSH1 0x44 DUP3 ADD MSTORE PUSH1 0x64 ADD PUSH2 0x8DC JUMP JUMPDEST PUSH1 0x1 PUSH1 0x25 DUP12 PUSH1 0x40 MLOAD PUSH2 0xDA2 SWAP2 SWAP1 PUSH2 0x3845 JUMP JUMPDEST SWAP1 DUP2 MSTORE PUSH1 0x40 MLOAD SWAP1 DUP2 SWAP1 SUB PUSH1 0x20 ADD DUP2 KECCAK256 DUP1 SLOAD SWAP3 ISZERO ISZERO PUSH1 0xFF NOT SWAP1 SWAP4 AND SWAP3 SWAP1 SWAP3 OR SWAP1 SWAP2 SSTORE CALLER SWAP1 PUSH1 0x12 SWAP1 PUSH2 0xDD3 SWAP1 DUP14 SWAP1 PUSH2 0x3845 JUMP JUMPDEST SWAP1 DUP2 MSTORE PUSH1 0x40 MLOAD SWAP1 DUP2 SWAP1 SUB PUSH1 0x20 ADD SWAP1 KECCAK256 DUP1 SLOAD PUSH1 0x1 PUSH1 0x1 PUSH1 0xA0 SHL SUB SWAP3 SWAP1 SWAP3 AND PUSH1 0x1 PUSH1 0x1 PUSH1 0xA0 SHL SUB NOT SWAP1 SWAP3 AND SWAP2 SWAP1 SWAP2 OR SWAP1 SSTORE DUP4 ISZERO PUSH2 0xE14 JUMPI PUSH2 0xE14 DUP11 DUP8 DUP8 DUP8 PUSH2 0x11A1 JUMP JUMPDEST DUP2 ISZERO PUSH2 0xE7F JUMPI DUP3 PUSH1 0x18 DUP12 PUSH1 0x40 MLOAD PUSH2 0xE2B SWAP2 SWAP1 PUSH2 0x3845 JUMP JUMPDEST SWAP1 DUP2 MSTORE PUSH1 0x20 ADD PUSH1 0x40 MLOAD DUP1 SWAP2 SUB SWAP1 KECCAK256 PUSH1 0x0 PUSH2 0x100 EXP DUP2 SLOAD DUP2 PUSH1 0x1 PUSH1 0x1 PUSH1 0xA0 SHL SUB MUL NOT AND SWAP1 DUP4 PUSH1 0x1 PUSH1 0x1 PUSH1 0xA0 SHL SUB AND MUL OR SWAP1 SSTORE POP DUP2 PUSH1 0x17 DUP12 PUSH1 0x40 MLOAD PUSH2 0xE6E SWAP2 SWAP1 PUSH2 0x3845 JUMP JUMPDEST SWAP1 DUP2 MSTORE PUSH1 0x40 MLOAD SWAP1 DUP2 SWAP1 SUB PUSH1 0x20 ADD SWAP1 KECCAK256 SSTORE JUMPDEST PUSH2 0xE8B DUP11 DUP11 DUP11 DUP11 PUSH2 0x879 JUMP JUMPDEST POP DUP10 PUSH1 0x40 MLOAD PUSH2 0xE9A SWAP2 SWAP1 PUSH2 0x3845 JUMP JUMPDEST PUSH1 0x40 MLOAD SWAP1 DUP2 SWAP1 SUB DUP2 KECCAK256 CALLER DUP3 MSTORE SWAP1 PUSH32 0x2562C9AE389148B8D76739F9DA5B0DB6424543BF03094FEE0DDC18C67914437E SWAP1 PUSH1 0x20 ADD PUSH1 0x40 MLOAD DUP1 SWAP2 SUB SWAP1 LOG2 POP PUSH1 0x1 SWAP10 SWAP9 POP POP POP POP POP POP POP POP POP JUMP JUMPDEST PUSH1 0x1 PUSH1 0x1 PUSH1 0xA0 SHL SUB DUP2 AND CALLER EQ PUSH2 0xF54 JUMPI PUSH1 0x40 MLOAD PUSH3 0x461BCD PUSH1 0xE5 SHL DUP2 MSTORE PUSH1 0x20 PUSH1 0x4 DUP3 ADD MSTORE PUSH1 0x2F PUSH1 0x24 DUP3 ADD MSTORE PUSH32 0x416363657373436F6E74726F6C3A2063616E206F6E6C792072656E6F756E6365 PUSH1 0x44 DUP3 ADD MSTORE PUSH15 0x103937B632B9903337B91039B2B633 PUSH1 0x89 SHL PUSH1 0x64 DUP3 ADD MSTORE PUSH1 0x84 ADD PUSH2 0x8DC JUMP JUMPDEST PUSH2 0xF5E DUP3 DUP3 PUSH2 0x2BF9 JUMP JUMPDEST POP POP JUMP JUMPDEST PUSH1 0x0 CALLER PUSH1 0x1 PUSH1 0x1 PUSH1 0xA0 SHL SUB AND PUSH1 0x12 DUP4 PUSH1 0x40 MLOAD PUSH2 0xF7E SWAP2 SWAP1 PUSH2 0x3845 JUMP JUMPDEST SWAP1 DUP2 MSTORE PUSH1 0x40 MLOAD SWAP1 DUP2 SWAP1 SUB PUSH1 0x20 ADD SWAP1 KECCAK256 SLOAD PUSH1 0x1 PUSH1 0x1 PUSH1 0xA0 SHL SUB AND EQ DUP1 PUSH2 0xFA9 JUMPI POP PUSH2 0xFA9 PUSH1 0x0 CALLER PUSH2 0x1D4D JUMP JUMPDEST PUSH2 0xFC5 JUMPI PUSH1 0x40 MLOAD PUSH3 0x461BCD PUSH1 0xE5 SHL DUP2 MSTORE PUSH1 0x4 ADD PUSH2 0x8DC SWAP1 PUSH2 0x3861 JUMP JUMPDEST PUSH1 0x25 DUP3 PUSH1 0x40 MLOAD PUSH2 0xFD5 SWAP2 SWAP1 PUSH2 0x3845 JUMP JUMPDEST SWAP1 DUP2 MSTORE PUSH1 0x40 MLOAD SWAP1 DUP2 SWAP1 SUB PUSH1 0x20 ADD SWAP1 KECCAK256 SLOAD PUSH1 0xFF AND PUSH2 0x1027 JUMPI PUSH1 0x40 MLOAD PUSH3 0x461BCD PUSH1 0xE5 SHL DUP2 MSTORE PUSH1 0x20 PUSH1 0x4 DUP3 ADD MSTORE PUSH1 0x10 PUSH1 0x24 DUP3 ADD MSTORE PUSH16 0x4E6F207375636820626F78206E616D65 PUSH1 0x80 SHL PUSH1 0x44 DUP3 ADD MSTORE PUSH1 0x64 ADD PUSH2 0x8DC JUMP JUMPDEST PUSH1 0x0 JUMPDEST PUSH1 0x1A DUP4 PUSH1 0x40 MLOAD PUSH2 0x103A SWAP2 SWAP1 PUSH2 0x3845 JUMP JUMPDEST SWAP1 DUP2 MSTORE PUSH1 0x40 MLOAD SWAP1 DUP2 SWAP1 SUB PUSH1 0x20 ADD SWAP1 KECCAK256 SLOAD DUP2 LT ISZERO PUSH2 0x1166 JUMPI PUSH1 0x19 DUP4 PUSH1 0x40 MLOAD PUSH2 0x1061 SWAP2 SWAP1 PUSH2 0x3845 JUMP JUMPDEST SWAP1 DUP2 MSTORE PUSH1 0x20 ADD PUSH1 0x40 MLOAD DUP1 SWAP2 SUB SWAP1 KECCAK256 DUP2 DUP2 SLOAD DUP2 LT PUSH2 0x1080 JUMPI PUSH2 0x1080 PUSH2 0x3935 JUMP JUMPDEST PUSH1 0x0 SWAP2 DUP3 MSTORE PUSH1 0x20 SWAP1 SWAP2 KECCAK256 ADD SLOAD PUSH1 0x40 MLOAD PUSH1 0x1 PUSH1 0x1 PUSH1 0xA0 SHL SUB SWAP1 SWAP2 AND SWAP1 PUSH4 0x42842E0E SWAP1 ADDRESS SWAP1 PUSH1 0x12 SWAP1 PUSH2 0x10B1 SWAP1 DUP9 SWAP1 PUSH2 0x3845 JUMP JUMPDEST SWAP1 DUP2 MSTORE PUSH1 0x40 MLOAD SWAP1 DUP2 SWAP1 SUB PUSH1 0x20 ADD DUP2 KECCAK256 SLOAD PUSH1 0x1 PUSH1 0x1 PUSH1 0xA0 SHL SUB AND SWAP1 PUSH1 0x1A SWAP1 PUSH2 0x10D9 SWAP1 DUP10 SWAP1 PUSH2 0x3845 JUMP JUMPDEST SWAP1 DUP2 MSTORE PUSH1 0x20 ADD PUSH1 0x40 MLOAD DUP1 SWAP2 SUB SWAP1 KECCAK256 DUP6 DUP2 SLOAD DUP2 LT PUSH2 0x10F8 JUMPI PUSH2 0x10F8 PUSH2 0x3935 JUMP JUMPDEST SWAP1 PUSH1 0x0 MSTORE PUSH1 0x20 PUSH1 0x0 KECCAK256 ADD SLOAD PUSH1 0x40 MLOAD DUP5 PUSH4 0xFFFFFFFF AND PUSH1 0xE0 SHL DUP2 MSTORE PUSH1 0x4 ADD PUSH2 0x1121 SWAP4 SWAP3 SWAP2 SWAP1 PUSH2 0x38AA JUMP JUMPDEST PUSH1 0x0 PUSH1 0x40 MLOAD DUP1 DUP4 SUB DUP2 PUSH1 0x0 DUP8 DUP1 EXTCODESIZE ISZERO DUP1 ISZERO PUSH2 0x113B JUMPI PUSH1 0x0 DUP1 REVERT JUMPDEST POP GAS CALL ISZERO DUP1 ISZERO PUSH2 0x114F JUMPI RETURNDATASIZE PUSH1 0x0 DUP1 RETURNDATACOPY RETURNDATASIZE PUSH1 0x0 REVERT JUMPDEST POP POP POP POP DUP1 DUP1 PUSH2 0x115E SWAP1 PUSH2 0x38E4 JUMP JUMPDEST SWAP2 POP POP PUSH2 0x102A JUMP JUMPDEST POP PUSH1 0x1 PUSH1 0x14 DUP4 PUSH1 0x40 MLOAD PUSH2 0x1179 SWAP2 SWAP1 PUSH2 0x3845 JUMP JUMPDEST SWAP1 DUP2 MSTORE PUSH1 0x40 MLOAD SWAP1 DUP2 SWAP1 SUB PUSH1 0x20 ADD SWAP1 KECCAK256 DUP1 SLOAD SWAP2 ISZERO ISZERO PUSH1 0xFF NOT SWAP1 SWAP3 AND SWAP2 SWAP1 SWAP2 OR SWAP1 SSTORE POP PUSH1 0x1 SWAP2 SWAP1 POP JUMP JUMPDEST CALLER PUSH1 0x1 PUSH1 0x1 PUSH1 0xA0 SHL SUB AND PUSH1 0x12 DUP6 PUSH1 0x40 MLOAD PUSH2 0x11BB SWAP2 SWAP1 PUSH2 0x3845 JUMP JUMPDEST SWAP1 DUP2 MSTORE PUSH1 0x40 MLOAD SWAP1 DUP2 SWAP1 SUB PUSH1 0x20 ADD SWAP1 KECCAK256 SLOAD PUSH1 0x1 PUSH1 0x1 PUSH1 0xA0 SHL SUB AND EQ DUP1 PUSH2 0x11E6 JUMPI POP PUSH2 0x11E6 PUSH1 0x0 CALLER PUSH2 0x1D4D JUMP JUMPDEST PUSH2 0x1202 JUMPI PUSH1 0x40 MLOAD PUSH3 0x461BCD PUSH1 0xE5 SHL DUP2 MSTORE PUSH1 0x4 ADD PUSH2 0x8DC SWAP1 PUSH2 0x3861 JUMP JUMPDEST DUP2 JUMPDEST DUP2 DUP2 GT PUSH2 0x12E8 JUMPI PUSH1 0x1B DUP6 PUSH1 0x40 MLOAD PUSH2 0x121B SWAP2 SWAP1 PUSH2 0x3845 JUMP JUMPDEST SWAP1 DUP2 MSTORE PUSH1 0x40 MLOAD PUSH1 0x20 SWAP2 DUP2 SWAP1 SUB DUP3 ADD DUP2 KECCAK256 DUP1 SLOAD PUSH1 0x1 DUP2 ADD DUP3 SSTORE PUSH1 0x0 SWAP2 DUP3 MSTORE SWAP3 SWAP1 KECCAK256 SWAP1 SWAP2 ADD DUP1 SLOAD PUSH1 0x1 PUSH1 0x1 PUSH1 0xA0 SHL SUB NOT AND PUSH1 0x1 PUSH1 0x1 PUSH1 0xA0 SHL SUB DUP8 AND OR SWAP1 SSTORE PUSH1 0x1C SWAP1 PUSH2 0x1265 SWAP1 DUP8 SWAP1 PUSH2 0x3845 JUMP JUMPDEST SWAP1 DUP2 MSTORE PUSH1 0x40 MLOAD PUSH1 0x20 SWAP2 DUP2 SWAP1 SUB DUP3 ADD DUP2 KECCAK256 DUP1 SLOAD PUSH1 0x1 DUP1 DUP3 ADD DUP4 SSTORE PUSH1 0x0 SWAP3 DUP4 MSTORE SWAP4 SWAP1 SWAP2 KECCAK256 ADD DUP4 SWAP1 SSTORE PUSH1 0x1D SWAP1 PUSH2 0x1299 SWAP1 DUP9 SWAP1 PUSH2 0x3845 JUMP JUMPDEST SWAP1 DUP2 MSTORE PUSH1 0x40 DUP1 MLOAD PUSH1 0x20 SWAP3 DUP2 SWAP1 SUB DUP4 ADD SWAP1 KECCAK256 PUSH1 0x1 PUSH1 0x1 PUSH1 0xA0 SHL SUB DUP9 AND PUSH1 0x0 SWAP1 DUP2 MSTORE SWAP1 DUP4 MSTORE DUP2 DUP2 KECCAK256 DUP6 DUP3 MSTORE SWAP1 SWAP3 MSTORE SWAP1 KECCAK256 DUP1 SLOAD PUSH1 0xFF NOT AND SWAP2 ISZERO ISZERO SWAP2 SWAP1 SWAP2 OR SWAP1 SSTORE DUP1 PUSH2 0x12E0 DUP2 PUSH2 0x38E4 JUMP JUMPDEST SWAP2 POP POP PUSH2 0x1204 JUMP JUMPDEST POP POP POP POP POP JUMP JUMPDEST PUSH2 0x12F7 PUSH2 0x2C60 JUMP JUMPDEST PUSH1 0xA SLOAD PUSH2 0x1304 SWAP1 DUP4 PUSH2 0x394B JUMP JUMPDEST PUSH1 0xF SSTORE PUSH1 0x10 SSTORE POP JUMP JUMPDEST PUSH1 0x60 DUP1 CALLER PUSH1 0x1 PUSH1 0x1 PUSH1 0xA0 SHL SUB AND PUSH1 0x12 DUP5 PUSH1 0x40 MLOAD PUSH2 0x132A SWAP2 SWAP1 PUSH2 0x3845 JUMP JUMPDEST SWAP1 DUP2 MSTORE PUSH1 0x40 MLOAD SWAP1 DUP2 SWAP1 SUB PUSH1 0x20 ADD SWAP1 KECCAK256 SLOAD PUSH1 0x1 PUSH1 0x1 PUSH1 0xA0 SHL SUB AND EQ DUP1 PUSH2 0x1355 JUMPI POP PUSH2 0x1355 PUSH1 0x0 CALLER PUSH2 0x1D4D JUMP JUMPDEST PUSH2 0x1371 JUMPI PUSH1 0x40 MLOAD PUSH3 0x461BCD PUSH1 0xE5 SHL DUP2 MSTORE PUSH1 0x4 ADD PUSH2 0x8DC SWAP1 PUSH2 0x3861 JUMP JUMPDEST PUSH1 0x14 DUP4 PUSH1 0x40 MLOAD PUSH2 0x1381 SWAP2 SWAP1 PUSH2 0x3845 JUMP JUMPDEST SWAP1 DUP2 MSTORE PUSH1 0x40 MLOAD SWAP1 DUP2 SWAP1 SUB PUSH1 0x20 ADD SWAP1 KECCAK256 SLOAD PUSH1 0xFF AND ISZERO PUSH2 0x13D2 JUMPI PUSH1 0x40 MLOAD PUSH3 0x461BCD PUSH1 0xE5 SHL DUP2 MSTORE PUSH1 0x20 PUSH1 0x4 DUP3 ADD MSTORE PUSH1 0xE PUSH1 0x24 DUP3 ADD MSTORE PUSH14 0x426F782077617320756E646F6E65 PUSH1 0x90 SHL PUSH1 0x44 DUP3 ADD MSTORE PUSH1 0x64 ADD PUSH2 0x8DC JUMP JUMPDEST PUSH1 0x25 DUP4 PUSH1 0x40 MLOAD PUSH2 0x13E2 SWAP2 SWAP1 PUSH2 0x3845 JUMP JUMPDEST SWAP1 DUP2 MSTORE PUSH1 0x40 MLOAD SWAP1 DUP2 SWAP1 SUB PUSH1 0x20 ADD SWAP1 KECCAK256 SLOAD PUSH1 0xFF AND PUSH2 0x142F JUMPI PUSH1 0x40 MLOAD PUSH3 0x461BCD PUSH1 0xE5 SHL DUP2 MSTORE PUSH1 0x20 PUSH1 0x4 DUP3 ADD MSTORE PUSH1 0xB PUSH1 0x24 DUP3 ADD MSTORE PUSH11 0x9CDE40E6EAC6D040C4DEF PUSH1 0xAB SHL PUSH1 0x44 DUP3 ADD MSTORE PUSH1 0x64 ADD PUSH2 0x8DC JUMP JUMPDEST PUSH1 0x20 DUP4 PUSH1 0x40 MLOAD PUSH2 0x143F SWAP2 SWAP1 PUSH2 0x3845 JUMP JUMPDEST SWAP1 DUP2 MSTORE PUSH1 0x40 MLOAD SWAP1 DUP2 SWAP1 SUB PUSH1 0x20 ADD SWAP1 KECCAK256 SLOAD PUSH1 0xFF AND PUSH2 0x149E JUMPI PUSH1 0x40 MLOAD PUSH3 0x461BCD PUSH1 0xE5 SHL DUP2 MSTORE PUSH1 0x20 PUSH1 0x4 DUP3 ADD MSTORE PUSH1 0x1E PUSH1 0x24 DUP3 ADD MSTORE PUSH32 0x4F7261636C65204861736E27742053687566666C656420426F78205965740000 PUSH1 0x44 DUP3 ADD MSTORE PUSH1 0x64 ADD PUSH2 0x8DC JUMP JUMPDEST PUSH1 0x0 PUSH1 0x13 DUP5 PUSH1 0x40 MLOAD PUSH2 0x14B0 SWAP2 SWAP1 PUSH2 0x3845 JUMP JUMPDEST SWAP1 DUP2 MSTORE PUSH1 0x20 ADD PUSH1 0x40 MLOAD DUP1 SWAP2 SUB SWAP1 KECCAK256 SLOAD SWAP1 POP PUSH1 0x0 PUSH1 0x21 PUSH1 0x0 DUP4 DUP2 MSTORE PUSH1 0x20 ADD SWAP1 DUP2 MSTORE PUSH1 0x20 ADD PUSH1 0x0 KECCAK256 DUP1 SLOAD PUSH2 0x14E1 SWAP1 PUSH2 0x396A JUMP JUMPDEST DUP1 PUSH1 0x1F ADD PUSH1 0x20 DUP1 SWAP2 DIV MUL PUSH1 0x20 ADD PUSH1 0x40 MLOAD SWAP1 DUP2 ADD PUSH1 0x40 MSTORE DUP1 SWAP3 SWAP2 SWAP1 DUP2 DUP2 MSTORE PUSH1 0x20 ADD DUP3 DUP1 SLOAD PUSH2 0x150D SWAP1 PUSH2 0x396A JUMP JUMPDEST DUP1 ISZERO PUSH2 0x155A JUMPI DUP1 PUSH1 0x1F LT PUSH2 0x152F JUMPI PUSH2 0x100 DUP1 DUP4 SLOAD DIV MUL DUP4 MSTORE SWAP2 PUSH1 0x20 ADD SWAP2 PUSH2 0x155A JUMP JUMPDEST DUP3 ADD SWAP2 SWAP1 PUSH1 0x0 MSTORE PUSH1 0x20 PUSH1 0x0 KECCAK256 SWAP1 JUMPDEST DUP2 SLOAD DUP2 MSTORE SWAP1 PUSH1 0x1 ADD SWAP1 PUSH1 0x20 ADD DUP1 DUP4 GT PUSH2 0x153D JUMPI DUP3 SWAP1 SUB PUSH1 0x1F AND DUP3 ADD SWAP2 JUMPDEST POP POP POP POP POP SWAP1 POP PUSH1 0x0 PUSH1 0x1A DUP3 PUSH1 0x40 MLOAD PUSH2 0x1573 SWAP2 SWAP1 PUSH2 0x3845 JUMP JUMPDEST SWAP1 DUP2 MSTORE PUSH1 0x40 MLOAD SWAP1 DUP2 SWAP1 SUB PUSH1 0x20 ADD DUP2 KECCAK256 SLOAD SWAP2 POP PUSH1 0x14 SWAP1 PUSH2 0x1593 SWAP1 DUP5 SWAP1 PUSH2 0x3845 JUMP JUMPDEST SWAP1 DUP2 MSTORE PUSH1 0x40 MLOAD SWAP1 DUP2 SWAP1 SUB PUSH1 0x20 ADD SWAP1 KECCAK256 SLOAD PUSH1 0xFF AND ISZERO PUSH2 0x15E4 JUMPI PUSH1 0x40 MLOAD PUSH3 0x461BCD PUSH1 0xE5 SHL DUP2 MSTORE PUSH1 0x20 PUSH1 0x4 DUP3 ADD MSTORE PUSH1 0xE PUSH1 0x24 DUP3 ADD MSTORE PUSH14 0x426F782077617320756E646F6E65 PUSH1 0x90 SHL PUSH1 0x44 DUP3 ADD MSTORE PUSH1 0x64 ADD PUSH2 0x8DC JUMP JUMPDEST DUP1 PUSH1 0x1E DUP4 PUSH1 0x40 MLOAD PUSH2 0x15F5 SWAP2 SWAP1 PUSH2 0x3845 JUMP JUMPDEST SWAP1 DUP2 MSTORE PUSH1 0x40 MLOAD SWAP1 DUP2 SWAP1 SUB PUSH1 0x20 ADD SWAP1 KECCAK256 SLOAD EQ PUSH2 0x164C JUMPI PUSH1 0x40 MLOAD PUSH3 0x461BCD PUSH1 0xE5 SHL DUP2 MSTORE PUSH1 0x20 PUSH1 0x4 DUP3 ADD MSTORE PUSH1 0x17 PUSH1 0x24 DUP3 ADD MSTORE PUSH23 0x5061727469636970616E7420636F756E742077726F6E67 PUSH1 0x48 SHL PUSH1 0x44 DUP3 ADD MSTORE PUSH1 0x64 ADD PUSH2 0x8DC JUMP JUMPDEST CALLER PUSH1 0x1 PUSH1 0x1 PUSH1 0xA0 SHL SUB AND PUSH1 0x12 DUP4 PUSH1 0x40 MLOAD PUSH2 0x1666 SWAP2 SWAP1 PUSH2 0x3845 JUMP JUMPDEST SWAP1 DUP2 MSTORE PUSH1 0x40 MLOAD SWAP1 DUP2 SWAP1 SUB PUSH1 0x20 ADD SWAP1 KECCAK256 SLOAD PUSH1 0x1 PUSH1 0x1 PUSH1 0xA0 SHL SUB AND EQ DUP1 PUSH2 0x1691 JUMPI POP PUSH2 0x1691 PUSH1 0x0 CALLER PUSH2 0x1D4D JUMP JUMPDEST PUSH2 0x16D2 JUMPI PUSH1 0x40 MLOAD PUSH3 0x461BCD PUSH1 0xE5 SHL DUP2 MSTORE PUSH1 0x20 PUSH1 0x4 DUP3 ADD MSTORE PUSH1 0x12 PUSH1 0x24 DUP3 ADD MSTORE PUSH18 0x466F7220626F78206F776E6572206F6E6C79 PUSH1 0x70 SHL PUSH1 0x44 DUP3 ADD MSTORE PUSH1 0x64 ADD PUSH2 0x8DC JUMP JUMPDEST PUSH1 0x0 DUP4 DUP2 MSTORE PUSH1 0x26 PUSH1 0x20 MSTORE PUSH1 0x40 DUP2 KECCAK256 SLOAD SWAP1 DUP3 PUSH1 0x1 PUSH1 0x1 PUSH1 0x40 SHL SUB DUP2 GT ISZERO PUSH2 0x16FA JUMPI PUSH2 0x16FA PUSH2 0x3303 JUMP JUMPDEST PUSH1 0x40 MLOAD SWAP1 DUP1 DUP3 MSTORE DUP1 PUSH1 0x20 MUL PUSH1 0x20 ADD DUP3 ADD PUSH1 0x40 MSTORE DUP1 ISZERO PUSH2 0x1723 JUMPI DUP2 PUSH1 0x20 ADD PUSH1 0x20 DUP3 MUL DUP1 CALLDATASIZE DUP4 CALLDATACOPY ADD SWAP1 POP JUMPDEST POP SWAP1 POP PUSH1 0x0 JUMPDEST DUP4 DUP2 LT ISZERO PUSH2 0x178D JUMPI PUSH1 0x40 DUP1 MLOAD PUSH1 0x20 DUP2 ADD DUP6 SWAP1 MSTORE SWAP1 DUP2 ADD DUP3 SWAP1 MSTORE PUSH1 0x60 ADD PUSH1 0x40 MLOAD PUSH1 0x20 DUP2 DUP4 SUB SUB DUP2 MSTORE SWAP1 PUSH1 0x40 MSTORE DUP1 MLOAD SWAP1 PUSH1 0x20 ADD KECCAK256 PUSH1 0x0 SHR DUP3 DUP3 DUP2 MLOAD DUP2 LT PUSH2 0x1770 JUMPI PUSH2 0x1770 PUSH2 0x3935 JUMP JUMPDEST PUSH1 0x20 SWAP1 DUP2 MUL SWAP2 SWAP1 SWAP2 ADD ADD MSTORE DUP1 PUSH2 0x1785 DUP2 PUSH2 0x38E4 JUMP JUMPDEST SWAP2 POP POP PUSH2 0x1729 JUMP JUMPDEST POP PUSH1 0x0 DUP4 PUSH1 0x1 PUSH1 0x1 PUSH1 0x40 SHL SUB DUP2 GT ISZERO PUSH2 0x17A8 JUMPI PUSH2 0x17A8 PUSH2 0x3303 JUMP JUMPDEST PUSH1 0x40 MLOAD SWAP1 DUP1 DUP3 MSTORE DUP1 PUSH1 0x20 MUL PUSH1 0x20 ADD DUP3 ADD PUSH1 0x40 MSTORE DUP1 ISZERO PUSH2 0x17D1 JUMPI DUP2 PUSH1 0x20 ADD PUSH1 0x20 DUP3 MUL DUP1 CALLDATASIZE DUP4 CALLDATACOPY ADD SWAP1 POP JUMPDEST POP SWAP1 POP PUSH1 0x0 DUP5 PUSH1 0x1 PUSH1 0x1 PUSH1 0x40 SHL SUB DUP2 GT ISZERO PUSH2 0x17EE JUMPI PUSH2 0x17EE PUSH2 0x3303 JUMP JUMPDEST PUSH1 0x40 MLOAD SWAP1 DUP1 DUP3 MSTORE DUP1 PUSH1 0x20 MUL PUSH1 0x20 ADD DUP3 ADD PUSH1 0x40 MSTORE DUP1 ISZERO PUSH2 0x1817 JUMPI DUP2 PUSH1 0x20 ADD PUSH1 0x20 DUP3 MUL DUP1 CALLDATASIZE DUP4 CALLDATACOPY ADD SWAP1 POP JUMPDEST POP SWAP1 POP PUSH1 0x1A DUP7 PUSH1 0x40 MLOAD PUSH2 0x182A SWAP2 SWAP1 PUSH2 0x3845 JUMP JUMPDEST SWAP1 DUP2 MSTORE PUSH1 0x40 DUP1 MLOAD SWAP2 DUP3 SWAP1 SUB PUSH1 0x20 SWAP1 DUP2 ADD DUP4 KECCAK256 DUP1 SLOAD DUP1 DUP4 MUL DUP6 ADD DUP4 ADD SWAP1 SWAP4 MSTORE DUP3 DUP5 MSTORE SWAP2 SWAP1 DUP4 ADD DUP3 DUP3 DUP1 ISZERO PUSH2 0x187C JUMPI PUSH1 0x20 MUL DUP3 ADD SWAP2 SWAP1 PUSH1 0x0 MSTORE PUSH1 0x20 PUSH1 0x0 KECCAK256 SWAP1 JUMPDEST DUP2 SLOAD DUP2 MSTORE PUSH1 0x20 ADD SWAP1 PUSH1 0x1 ADD SWAP1 DUP1 DUP4 GT PUSH2 0x1868 JUMPI JUMPDEST POP POP POP POP POP SWAP2 POP PUSH1 0x19 DUP7 PUSH1 0x40 MLOAD PUSH2 0x1893 SWAP2 SWAP1 PUSH2 0x3845 JUMP JUMPDEST SWAP1 DUP2 MSTORE PUSH1 0x40 DUP1 MLOAD SWAP2 DUP3 SWAP1 SUB PUSH1 0x20 SWAP1 DUP2 ADD DUP4 KECCAK256 DUP1 SLOAD DUP1 DUP4 MUL DUP6 ADD DUP4 ADD SWAP1 SWAP4 MSTORE DUP3 DUP5 MSTORE SWAP2 SWAP1 DUP4 ADD DUP3 DUP3 DUP1 ISZERO PUSH2 0x18EF JUMPI PUSH1 0x20 MUL DUP3 ADD SWAP2 SWAP1 PUSH1 0x0 MSTORE PUSH1 0x20 PUSH1 0x0 KECCAK256 SWAP1 JUMPDEST DUP2 SLOAD PUSH1 0x1 PUSH1 0x1 PUSH1 0xA0 SHL SUB AND DUP2 MSTORE PUSH1 0x1 SWAP1 SWAP2 ADD SWAP1 PUSH1 0x20 ADD DUP1 DUP4 GT PUSH2 0x18D1 JUMPI JUMPDEST POP POP POP POP POP SWAP1 POP PUSH1 0x0 JUMPDEST DUP6 DUP2 LT ISZERO PUSH2 0x1A5C JUMPI PUSH1 0x0 PUSH2 0x190E PUSH1 0x1 DUP9 PUSH2 0x39A5 JUMP JUMPDEST DUP6 DUP4 DUP2 MLOAD DUP2 LT PUSH2 0x1920 JUMPI PUSH2 0x1920 PUSH2 0x3935 JUMP JUMPDEST PUSH1 0x20 MUL PUSH1 0x20 ADD ADD MLOAD PUSH2 0x1932 SWAP2 SWAP1 PUSH2 0x39D2 JUMP JUMPDEST SWAP1 POP PUSH1 0x0 DUP5 DUP3 DUP2 MLOAD DUP2 LT PUSH2 0x1948 JUMPI PUSH2 0x1948 PUSH2 0x3935 JUMP JUMPDEST PUSH1 0x20 MUL PUSH1 0x20 ADD ADD MLOAD SWAP1 POP PUSH1 0x0 DUP5 DUP4 DUP2 MLOAD DUP2 LT PUSH2 0x1966 JUMPI PUSH2 0x1966 PUSH2 0x3935 JUMP JUMPDEST PUSH1 0x20 MUL PUSH1 0x20 ADD ADD MLOAD SWAP1 POP DUP6 DUP5 DUP2 MLOAD DUP2 LT PUSH2 0x1982 JUMPI PUSH2 0x1982 PUSH2 0x3935 JUMP JUMPDEST PUSH1 0x20 MUL PUSH1 0x20 ADD ADD MLOAD DUP7 DUP5 DUP2 MLOAD DUP2 LT PUSH2 0x199C JUMPI PUSH2 0x199C PUSH2 0x3935 JUMP JUMPDEST PUSH1 0x20 MUL PUSH1 0x20 ADD ADD DUP2 DUP2 MSTORE POP POP DUP5 DUP5 DUP2 MLOAD DUP2 LT PUSH2 0x19BA JUMPI PUSH2 0x19BA PUSH2 0x3935 JUMP JUMPDEST PUSH1 0x20 MUL PUSH1 0x20 ADD ADD MLOAD DUP6 DUP5 DUP2 MLOAD DUP2 LT PUSH2 0x19D4 JUMPI PUSH2 0x19D4 PUSH2 0x3935 JUMP JUMPDEST PUSH1 0x20 MUL PUSH1 0x20 ADD ADD SWAP1 PUSH1 0x1 PUSH1 0x1 PUSH1 0xA0 SHL SUB AND SWAP1 DUP2 PUSH1 0x1 PUSH1 0x1 PUSH1 0xA0 SHL SUB AND DUP2 MSTORE POP POP DUP2 DUP7 DUP6 DUP2 MLOAD DUP2 LT PUSH2 0x1A07 JUMPI PUSH2 0x1A07 PUSH2 0x3935 JUMP JUMPDEST PUSH1 0x20 MUL PUSH1 0x20 ADD ADD DUP2 DUP2 MSTORE POP POP DUP1 DUP6 DUP6 DUP2 MLOAD DUP2 LT PUSH2 0x1A26 JUMPI PUSH2 0x1A26 PUSH2 0x3935 JUMP JUMPDEST PUSH1 0x20 MUL PUSH1 0x20 ADD ADD SWAP1 PUSH1 0x1 PUSH1 0x1 PUSH1 0xA0 SHL SUB AND SWAP1 DUP2 PUSH1 0x1 PUSH1 0x1 PUSH1 0xA0 SHL SUB AND DUP2 MSTORE POP POP POP POP POP DUP1 DUP1 PUSH2 0x1A54 SWAP1 PUSH2 0x38E4 JUMP JUMPDEST SWAP2 POP POP PUSH2 0x18F9 JUMP JUMPDEST POP PUSH1 0x0 DUP8 DUP2 MSTORE PUSH1 0x22 PUSH1 0x20 SWAP1 DUP2 MSTORE PUSH1 0x40 SWAP1 SWAP2 KECCAK256 DUP4 MLOAD PUSH2 0x1A7C SWAP3 DUP6 ADD SWAP1 PUSH2 0x31B1 JUMP JUMPDEST POP PUSH1 0x0 DUP8 DUP2 MSTORE PUSH1 0x23 PUSH1 0x20 SWAP1 DUP2 MSTORE PUSH1 0x40 SWAP1 SWAP2 KECCAK256 DUP3 MLOAD PUSH2 0x1A9C SWAP3 DUP5 ADD SWAP1 PUSH2 0x31FC JUMP JUMPDEST POP PUSH1 0x0 JUMPDEST PUSH1 0x0 DUP9 DUP2 MSTORE PUSH1 0x22 PUSH1 0x20 MSTORE PUSH1 0x40 SWAP1 KECCAK256 SLOAD DUP2 LT ISZERO PUSH2 0x1BDC JUMPI PUSH1 0x0 DUP9 DUP2 MSTORE PUSH1 0x23 PUSH1 0x20 MSTORE PUSH1 0x40 DUP2 KECCAK256 DUP1 SLOAD DUP4 SWAP1 DUP2 LT PUSH2 0x1AD6 JUMPI PUSH2 0x1AD6 PUSH2 0x3935 JUMP JUMPDEST PUSH1 0x0 SWAP2 DUP3 MSTORE PUSH1 0x20 DUP1 DUP4 KECCAK256 SWAP1 SWAP2 ADD SLOAD DUP12 DUP4 MSTORE PUSH1 0x22 SWAP1 SWAP2 MSTORE PUSH1 0x40 DUP3 KECCAK256 DUP1 SLOAD PUSH1 0x1 PUSH1 0x1 PUSH1 0xA0 SHL SUB SWAP1 SWAP3 AND SWAP4 POP SWAP1 DUP5 SWAP1 DUP2 LT PUSH2 0x1B10 JUMPI PUSH2 0x1B10 PUSH2 0x3935 JUMP JUMPDEST SWAP1 PUSH1 0x0 MSTORE PUSH1 0x20 PUSH1 0x0 KECCAK256 ADD SLOAD SWAP1 POP DUP2 PUSH1 0x1 PUSH1 0x1 PUSH1 0xA0 SHL SUB AND PUSH4 0x42842E0E ADDRESS PUSH1 0x1E DUP13 PUSH1 0x40 MLOAD PUSH2 0x1B3D SWAP2 SWAP1 PUSH2 0x3845 JUMP JUMPDEST SWAP1 DUP2 MSTORE PUSH1 0x20 ADD PUSH1 0x40 MLOAD DUP1 SWAP2 SUB SWAP1 KECCAK256 DUP7 DUP2 SLOAD DUP2 LT PUSH2 0x1B5C JUMPI PUSH2 0x1B5C PUSH2 0x3935 JUMP JUMPDEST PUSH1 0x0 SWAP2 DUP3 MSTORE PUSH1 0x20 SWAP1 SWAP2 KECCAK256 ADD SLOAD PUSH1 0x40 MLOAD PUSH1 0x1 PUSH1 0x1 PUSH1 0xE0 SHL SUB NOT PUSH1 0xE0 DUP6 SWAP1 SHL AND DUP2 MSTORE PUSH2 0x1B95 SWAP3 SWAP2 PUSH1 0x1 PUSH1 0x1 PUSH1 0xA0 SHL SUB AND SWAP1 DUP7 SWAP1 PUSH1 0x4 ADD PUSH2 0x38AA JUMP JUMPDEST PUSH1 0x0 PUSH1 0x40 MLOAD DUP1 DUP4 SUB DUP2 PUSH1 0x0 DUP8 DUP1 EXTCODESIZE ISZERO DUP1 ISZERO PUSH2 0x1BAF JUMPI PUSH1 0x0 DUP1 REVERT JUMPDEST POP GAS CALL ISZERO DUP1 ISZERO PUSH2 0x1BC3 JUMPI RETURNDATASIZE PUSH1 0x0 DUP1 RETURNDATACOPY RETURNDATASIZE PUSH1 0x0 REVERT JUMPDEST POP POP POP POP POP POP DUP1 DUP1 PUSH2 0x1BD4 SWAP1 PUSH2 0x38E4 JUMP JUMPDEST SWAP2 POP POP PUSH2 0x1AA0 JUMP JUMPDEST POP SWAP10 SWAP1 SWAP9 POP SWAP7 POP POP POP POP POP POP POP JUMP JUMPDEST PUSH1 0x3 SLOAD PUSH1 0x1 PUSH1 0x1 PUSH1 0xA0 SHL SUB AND CALLER EQ PUSH2 0x1C3E JUMPI PUSH1 0x40 MLOAD PUSH3 0x461BCD PUSH1 0xE5 SHL DUP2 MSTORE PUSH1 0x20 PUSH1 0x4 DUP3 ADD MSTORE PUSH1 0x16 PUSH1 0x24 DUP3 ADD MSTORE PUSH22 0x26BAB9BA10313290383937B837B9B2B21037BBB732B9 PUSH1 0x51 SHL PUSH1 0x44 DUP3 ADD MSTORE PUSH1 0x64 ADD PUSH2 0x8DC JUMP JUMPDEST PUSH1 0x2 DUP1 SLOAD PUSH1 0x1 PUSH1 0x1 PUSH1 0xA0 SHL SUB NOT DUP1 DUP3 AND CALLER SWAP1 DUP2 OR SWAP1 SWAP4 SSTORE PUSH1 0x3 DUP1 SLOAD SWAP1 SWAP2 AND SWAP1 SSTORE PUSH1 0x40 MLOAD PUSH1 0x1 PUSH1 0x1 PUSH1 0xA0 SHL SUB SWAP1 SWAP2 AND SWAP2 SWAP1 DUP3 SWAP1 PUSH32 0x8BE0079C531659141344CD1FD0A4F28419497F9722A3DAAFE3B4186F6B6457E0 SWAP1 PUSH1 0x0 SWAP1 LOG3 POP JUMP JUMPDEST PUSH1 0x60 DUP2 PUSH1 0x1 PUSH1 0x1 PUSH1 0x40 SHL SUB DUP2 GT ISZERO PUSH2 0x1CB3 JUMPI PUSH2 0x1CB3 PUSH2 0x3303 JUMP JUMPDEST PUSH1 0x40 MLOAD SWAP1 DUP1 DUP3 MSTORE DUP1 PUSH1 0x20 MUL PUSH1 0x20 ADD DUP3 ADD PUSH1 0x40 MSTORE DUP1 ISZERO PUSH2 0x1CDC JUMPI DUP2 PUSH1 0x20 ADD PUSH1 0x20 DUP3 MUL DUP1 CALLDATASIZE DUP4 CALLDATACOPY ADD SWAP1 POP JUMPDEST POP SWAP1 POP PUSH1 0x0 JUMPDEST DUP3 DUP2 LT ISZERO PUSH2 0x1D46 JUMPI PUSH1 0x40 DUP1 MLOAD PUSH1 0x20 DUP2 ADD DUP7 SWAP1 MSTORE SWAP1 DUP2 ADD DUP3 SWAP1 MSTORE PUSH1 0x60 ADD PUSH1 0x40 MLOAD PUSH1 0x20 DUP2 DUP4 SUB SUB DUP2 MSTORE SWAP1 PUSH1 0x40 MSTORE DUP1 MLOAD SWAP1 PUSH1 0x20 ADD KECCAK256 PUSH1 0x0 SHR DUP3 DUP3 DUP2 MLOAD DUP2 LT PUSH2 0x1D29 JUMPI PUSH2 0x1D29 PUSH2 0x3935 JUMP JUMPDEST PUSH1 0x20 SWAP1 DUP2 MUL SWAP2 SWAP1 SWAP2 ADD ADD MSTORE DUP1 PUSH2 0x1D3E DUP2 PUSH2 0x38E4 JUMP JUMPDEST SWAP2 POP POP PUSH2 0x1CE2 JUMP JUMPDEST POP SWAP3 SWAP2 POP POP JUMP JUMPDEST PUSH1 0x0 SWAP2 DUP3 MSTORE PUSH1 0x1 PUSH1 0x20 SWAP1 DUP2 MSTORE PUSH1 0x40 DUP1 DUP5 KECCAK256 PUSH1 0x1 PUSH1 0x1 PUSH1 0xA0 SHL SUB SWAP4 SWAP1 SWAP4 AND DUP5 MSTORE SWAP2 SWAP1 MSTORE SWAP1 KECCAK256 SLOAD PUSH1 0xFF AND SWAP1 JUMP JUMPDEST CALLER PUSH1 0x1 PUSH1 0x1 PUSH1 0xA0 SHL SUB PUSH32 0x0 AND EQ PUSH2 0x1DF0 JUMPI PUSH1 0x40 MLOAD PUSH3 0x461BCD PUSH1 0xE5 SHL DUP2 MSTORE PUSH1 0x20 PUSH1 0x4 DUP3 ADD MSTORE PUSH1 0x1F PUSH1 0x24 DUP3 ADD MSTORE PUSH32 0x4F6E6C7920565246436F6F7264696E61746F722063616E2066756C66696C6C00 PUSH1 0x44 DUP3 ADD MSTORE PUSH1 0x64 ADD PUSH2 0x8DC JUMP JUMPDEST PUSH2 0xF5E DUP3 DUP3 PUSH2 0x2CB5 JUMP JUMPDEST PUSH2 0x1E02 PUSH2 0x2C60 JUMP JUMPDEST PUSH1 0x40 MLOAD PUSH4 0x70A08231 PUSH1 0xE0 SHL DUP2 MSTORE ADDRESS PUSH1 0x4 DUP3 ADD MSTORE DUP2 SWAP1 PUSH1 0x1 PUSH1 0x1 PUSH1 0xA0 SHL SUB DUP3 AND SWAP1 PUSH4 0xA9059CBB SWAP1 CALLER SWAP1 DUP4 SWAP1 PUSH4 0x70A08231 SWAP1 PUSH1 0x24 ADD PUSH1 0x20 PUSH1 0x40 MLOAD DUP1 DUP4 SUB DUP2 DUP7 GAS STATICCALL ISZERO DUP1 ISZERO PUSH2 0x1E52 JUMPI RETURNDATASIZE PUSH1 0x0 DUP1 RETURNDATACOPY RETURNDATASIZE PUSH1 0x0 REVERT JUMPDEST POP POP POP POP PUSH1 0x40 MLOAD RETURNDATASIZE PUSH1 0x1F NOT PUSH1 0x1F DUP3 ADD AND DUP3 ADD DUP1 PUSH1 0x40 MSTORE POP DUP2 ADD SWAP1 PUSH2 0x1E76 SWAP2 SWAP1 PUSH2 0x38FF JUMP JUMPDEST PUSH1 0x40 MLOAD PUSH1 0x1 PUSH1 0x1 PUSH1 0xE0 SHL SUB NOT PUSH1 0xE0 DUP6 SWAP1 SHL AND DUP2 MSTORE PUSH1 0x1 PUSH1 0x1 PUSH1 0xA0 SHL SUB SWAP1 SWAP3 AND PUSH1 0x4 DUP4 ADD MSTORE PUSH1 0x24 DUP3 ADD MSTORE PUSH1 0x44 ADD PUSH1 0x20 PUSH1 0x40 MLOAD DUP1 DUP4 SUB DUP2 PUSH1 0x0 DUP8 GAS CALL ISZERO DUP1 ISZERO PUSH2 0x1EC1 JUMPI RETURNDATASIZE PUSH1 0x0 DUP1 RETURNDATACOPY RETURNDATASIZE PUSH1 0x0 REVERT JUMPDEST POP POP POP POP PUSH1 0x40 MLOAD RETURNDATASIZE PUSH1 0x1F NOT PUSH1 0x1F DUP3 ADD AND DUP3 ADD DUP1 PUSH1 0x40 MSTORE POP DUP2 ADD SWAP1 PUSH2 0x1EE5 SWAP2 SWAP1 PUSH2 0x3918 JUMP JUMPDEST PUSH2 0xF5E JUMPI PUSH1 0x40 MLOAD PUSH3 0x461BCD PUSH1 0xE5 SHL DUP2 MSTORE PUSH1 0x20 PUSH1 0x4 DUP3 ADD MSTORE PUSH1 0x12 PUSH1 0x24 DUP3 ADD MSTORE PUSH18 0x2AB730B13632903A37903A3930B739B332B9 PUSH1 0x71 SHL PUSH1 0x44 DUP3 ADD MSTORE PUSH1 0x64 ADD PUSH2 0x8DC JUMP JUMPDEST PUSH1 0x0 PUSH1 0x1A DUP3 PUSH1 0x40 MLOAD PUSH2 0x1F38 SWAP2 SWAP1 PUSH2 0x3845 JUMP JUMPDEST SWAP1 DUP2 MSTORE PUSH1 0x40 MLOAD SWAP1 DUP2 SWAP1 SUB PUSH1 0x20 ADD DUP2 KECCAK256 SLOAD SWAP1 PUSH1 0x1E SWAP1 PUSH2 0x1F57 SWAP1 DUP6 SWAP1 PUSH2 0x3845 JUMP JUMPDEST SWAP1 DUP2 MSTORE PUSH1 0x40 MLOAD SWAP1 DUP2 SWAP1 SUB PUSH1 0x20 ADD SWAP1 KECCAK256 SLOAD EQ PUSH2 0x1FAE JUMPI PUSH1 0x40 MLOAD PUSH3 0x461BCD PUSH1 0xE5 SHL DUP2 MSTORE PUSH1 0x20 PUSH1 0x4 DUP3 ADD MSTORE PUSH1 0x17 PUSH1 0x24 DUP3 ADD MSTORE PUSH23 0x5061727469636970616E7420636F756E742077726F6E67 PUSH1 0x48 SHL PUSH1 0x44 DUP3 ADD MSTORE PUSH1 0x64 ADD PUSH2 0x8DC JUMP JUMPDEST CALLER PUSH1 0x1 PUSH1 0x1 PUSH1 0xA0 SHL SUB AND PUSH1 0x12 DUP4 PUSH1 0x40 MLOAD PUSH2 0x1FC8 SWAP2 SWAP1 PUSH2 0x3845 JUMP JUMPDEST SWAP1 DUP2 MSTORE PUSH1 0x40 MLOAD SWAP1 DUP2 SWAP1 SUB PUSH1 0x20 ADD SWAP1 KECCAK256 SLOAD PUSH1 0x1 PUSH1 0x1 PUSH1 0xA0 SHL SUB AND EQ DUP1 PUSH2 0x1FF3 JUMPI POP PUSH2 0x1FF3 PUSH1 0x0 CALLER PUSH2 0x1D4D JUMP JUMPDEST PUSH2 0x200F JUMPI PUSH1 0x40 MLOAD PUSH3 0x461BCD PUSH1 0xE5 SHL DUP2 MSTORE PUSH1 0x4 ADD PUSH2 0x8DC SWAP1 PUSH2 0x3861 JUMP JUMPDEST PUSH1 0x0 PUSH2 0x201F PUSH1 0xB SLOAD PUSH1 0xC SLOAD PUSH2 0x2DD1 JUMP JUMPDEST SWAP1 POP DUP1 PUSH1 0x13 DUP5 PUSH1 0x40 MLOAD PUSH2 0x2032 SWAP2 SWAP1 PUSH2 0x3845 JUMP JUMPDEST SWAP1 DUP2 MSTORE PUSH1 0x40 DUP1 MLOAD PUSH1 0x20 SWAP3 DUP2 SWAP1 SUB DUP4 ADD SWAP1 KECCAK256 SWAP3 SWAP1 SWAP3 SSTORE PUSH1 0x0 DUP4 DUP2 MSTORE PUSH1 0x21 DUP3 MSTORE SWAP2 SWAP1 SWAP2 KECCAK256 DUP5 MLOAD PUSH2 0x2062 SWAP3 DUP7 ADD SWAP1 PUSH2 0x3251 JUMP JUMPDEST POP PUSH1 0x0 DUP2 DUP2 MSTORE PUSH1 0x24 PUSH1 0x20 MSTORE PUSH1 0x40 SWAP1 DUP2 SWAP1 KECCAK256 DUP1 SLOAD PUSH1 0xFF NOT AND PUSH1 0x1 OR SWAP1 SSTORE MLOAD PUSH2 0x208A SWAP1 DUP5 SWAP1 PUSH2 0x3845 JUMP JUMPDEST PUSH1 0x40 MLOAD SWAP1 DUP2 SWAP1 SUB DUP2 KECCAK256 SWAP1 DUP3 SWAP1 PUSH32 0x844D0DB67F0EAF76C1C6F375AAF8CA8FC58BBB0C59C23F9C108DC5C75E797805 SWAP1 PUSH1 0x0 SWAP1 LOG3 SWAP3 SWAP2 POP POP JUMP JUMPDEST PUSH2 0x20CA PUSH2 0x2C60 JUMP JUMPDEST PUSH1 0x25 DUP3 PUSH1 0x40 MLOAD PUSH2 0x20DA SWAP2 SWAP1 PUSH2 0x3845 JUMP JUMPDEST SWAP1 DUP2 MSTORE PUSH1 0x40 MLOAD SWAP1 DUP2 SWAP1 SUB PUSH1 0x20 ADD SWAP1 KECCAK256 SLOAD PUSH1 0xFF AND PUSH2 0x2127 JUMPI PUSH1 0x40 MLOAD PUSH3 0x461BCD PUSH1 0xE5 SHL DUP2 MSTORE PUSH1 0x20 PUSH1 0x4 DUP3 ADD MSTORE PUSH1 0xB PUSH1 0x24 DUP3 ADD MSTORE PUSH11 0x9CDE40E6EAC6D040C4DEF PUSH1 0xAB SHL PUSH1 0x44 DUP3 ADD MSTORE PUSH1 0x64 ADD PUSH2 0x8DC JUMP JUMPDEST PUSH1 0x0 PUSH1 0x13 DUP4 PUSH1 0x40 MLOAD PUSH2 0x2139 SWAP2 SWAP1 PUSH2 0x3845 JUMP JUMPDEST SWAP1 DUP2 MSTORE PUSH1 0x40 DUP1 MLOAD SWAP2 DUP3 SWAP1 SUB PUSH1 0x20 SWAP1 DUP2 ADD DUP4 KECCAK256 SLOAD PUSH1 0x0 DUP2 DUP2 MSTORE PUSH1 0x26 DUP4 MSTORE SWAP3 SWAP1 SWAP3 KECCAK256 DUP6 SWAP1 SSTORE SWAP1 SWAP3 POP PUSH1 0x1 SWAP2 PUSH2 0x216D SWAP1 DUP7 SWAP1 PUSH2 0x3845 JUMP JUMPDEST SWAP1 DUP2 MSTORE PUSH1 0x40 MLOAD SWAP1 DUP2 SWAP1 SUB PUSH1 0x20 ADD DUP2 KECCAK256 DUP1 SLOAD SWAP3 ISZERO ISZERO PUSH1 0xFF NOT SWAP1 SWAP4 AND SWAP3 SWAP1 SWAP3 OR SWAP1 SWAP2 SSTORE DUP3 SWAP1 DUP3 SWAP1 PUSH2 0x219D SWAP1 DUP7 SWAP1 PUSH2 0x3845 JUMP JUMPDEST PUSH1 0x40 MLOAD SWAP1 DUP2 SWAP1 SUB DUP2 KECCAK256 SWAP1 PUSH32 0xD21D47B2733AAAFBFFC1355C71AFF0747151B3314FAFB5D8E50241AC74275BA0 SWAP1 PUSH1 0x0 SWAP1 LOG4 POP POP POP JUMP JUMPDEST PUSH1 0x0 PUSH1 0x16 DUP6 PUSH1 0x40 MLOAD PUSH2 0x21E4 SWAP2 SWAP1 PUSH2 0x3845 JUMP JUMPDEST SWAP1 DUP2 MSTORE PUSH1 0x40 MLOAD SWAP1 DUP2 SWAP1 SUB PUSH1 0x20 ADD SWAP1 KECCAK256 SLOAD PUSH1 0xFF AND PUSH2 0x224D JUMPI PUSH1 0x40 MLOAD PUSH3 0x461BCD PUSH1 0xE5 SHL DUP2 MSTORE PUSH1 0x20 PUSH1 0x4 DUP3 ADD MSTORE PUSH1 0x21 PUSH1 0x24 DUP3 ADD MSTORE PUSH32 0x4B657920537562736372697074696F6E206973206E6F74206F70656E20796574 PUSH1 0x44 DUP3 ADD MSTORE PUSH1 0x21 PUSH1 0xF8 SHL PUSH1 0x64 DUP3 ADD MSTORE PUSH1 0x84 ADD PUSH2 0x8DC JUMP JUMPDEST PUSH1 0x1D DUP6 PUSH1 0x40 MLOAD PUSH2 0x225D SWAP2 SWAP1 PUSH2 0x3845 JUMP JUMPDEST SWAP1 DUP2 MSTORE PUSH1 0x40 DUP1 MLOAD PUSH1 0x20 SWAP3 DUP2 SWAP1 SUB DUP4 ADD SWAP1 KECCAK256 PUSH1 0x1 PUSH1 0x1 PUSH1 0xA0 SHL SUB DUP7 AND PUSH1 0x0 SWAP1 DUP2 MSTORE SWAP1 DUP4 MSTORE DUP2 DUP2 KECCAK256 DUP6 DUP3 MSTORE SWAP1 SWAP3 MSTORE SWAP1 KECCAK256 SLOAD PUSH1 0xFF AND PUSH2 0x22E7 JUMPI PUSH1 0x40 MLOAD PUSH3 0x461BCD PUSH1 0xE5 SHL DUP2 MSTORE PUSH1 0x20 PUSH1 0x4 DUP3 ADD MSTORE PUSH1 0x24 DUP1 DUP3 ADD MSTORE PUSH32 0x4B65792077617320616C72656164792075736564206F72206E6F6E2D65786973 PUSH1 0x44 DUP3 ADD MSTORE PUSH4 0x1D185B9D PUSH1 0xE2 SHL PUSH1 0x64 DUP3 ADD MSTORE PUSH1 0x84 ADD PUSH2 0x8DC JUMP JUMPDEST PUSH1 0x1A DUP6 PUSH1 0x40 MLOAD PUSH2 0x22F7 SWAP2 SWAP1 PUSH2 0x3845 JUMP JUMPDEST SWAP1 DUP2 MSTORE PUSH1 0x40 MLOAD SWAP1 DUP2 SWAP1 SUB PUSH1 0x20 ADD DUP2 KECCAK256 SLOAD SWAP1 PUSH1 0x1E SWAP1 PUSH2 0x2316 SWAP1 DUP9 SWAP1 PUSH2 0x3845 JUMP JUMPDEST SWAP1 DUP2 MSTORE PUSH1 0x40 MLOAD SWAP1 DUP2 SWAP1 SUB PUSH1 0x20 ADD SWAP1 KECCAK256 SLOAD LT PUSH2 0x2368 JUMPI PUSH1 0x40 MLOAD PUSH3 0x461BCD PUSH1 0xE5 SHL DUP2 MSTORE PUSH1 0x20 PUSH1 0x4 DUP3 ADD MSTORE PUSH1 0x12 PUSH1 0x24 DUP3 ADD MSTORE PUSH18 0x139BC8135BDC994814DC1BDD1CC81319599D PUSH1 0x72 SHL PUSH1 0x44 DUP3 ADD MSTORE PUSH1 0x64 ADD PUSH2 0x8DC JUMP JUMPDEST PUSH1 0x40 MLOAD PUSH4 0x31A9108F PUSH1 0xE1 SHL DUP2 MSTORE PUSH1 0x4 DUP2 ADD DUP4 SWAP1 MSTORE PUSH1 0x1 PUSH1 0x1 PUSH1 0xA0 SHL SUB DUP1 DUP7 AND SWAP2 SWAP1 DUP6 AND SWAP1 PUSH4 0x6352211E SWAP1 PUSH1 0x24 ADD PUSH1 0x20 PUSH1 0x40 MLOAD DUP1 DUP4 SUB DUP2 DUP7 GAS STATICCALL ISZERO DUP1 ISZERO PUSH2 0x23B2 JUMPI RETURNDATASIZE PUSH1 0x0 DUP1 RETURNDATACOPY RETURNDATASIZE PUSH1 0x0 REVERT JUMPDEST POP POP POP POP PUSH1 0x40 MLOAD RETURNDATASIZE PUSH1 0x1F NOT PUSH1 0x1F DUP3 ADD AND DUP3 ADD DUP1 PUSH1 0x40 MSTORE POP DUP2 ADD SWAP1 PUSH2 0x23D6 SWAP2 SWAP1 PUSH2 0x388D JUMP JUMPDEST PUSH1 0x1 PUSH1 0x1 PUSH1 0xA0 SHL SUB AND EQ PUSH2 0x242C JUMPI PUSH1 0x40 MLOAD PUSH3 0x461BCD PUSH1 0xE5 SHL DUP2 MSTORE PUSH1 0x20 PUSH1 0x4 DUP3 ADD MSTORE PUSH1 0x1F PUSH1 0x24 DUP3 ADD MSTORE PUSH32 0x53756273637269626572206E6F74206F776E6572206F6620746865204B657900 PUSH1 0x44 DUP3 ADD MSTORE PUSH1 0x64 ADD PUSH2 0x8DC JUMP JUMPDEST PUSH1 0x1E DUP6 PUSH1 0x40 MLOAD PUSH2 0x243C SWAP2 SWAP1 PUSH2 0x3845 JUMP JUMPDEST SWAP1 DUP2 MSTORE PUSH1 0x40 MLOAD PUSH1 0x20 SWAP2 DUP2 SWAP1 SUB DUP3 ADD DUP2 KECCAK256 DUP1 SLOAD PUSH1 0x1 DUP2 ADD DUP3 SSTORE PUSH1 0x0 SWAP2 DUP3 MSTORE SWAP3 DUP2 KECCAK256 SWAP1 SWAP3 ADD DUP1 SLOAD PUSH1 0x1 PUSH1 0x1 PUSH1 0xA0 SHL SUB NOT AND PUSH1 0x1 PUSH1 0x1 PUSH1 0xA0 SHL SUB DUP9 AND OR SWAP1 SSTORE PUSH1 0x1D SWAP1 PUSH2 0x2486 SWAP1 DUP9 SWAP1 PUSH2 0x3845 JUMP JUMPDEST SWAP1 DUP2 MSTORE PUSH1 0x40 DUP1 MLOAD PUSH1 0x20 SWAP3 DUP2 SWAP1 SUB DUP4 ADD DUP2 KECCAK256 PUSH1 0x1 PUSH1 0x1 PUSH1 0xA0 SHL SUB DUP9 AND PUSH1 0x0 SWAP1 DUP2 MSTORE SWAP1 DUP5 MSTORE DUP3 DUP2 KECCAK256 DUP8 DUP3 MSTORE SWAP1 SWAP4 MSTORE SWAP2 KECCAK256 DUP1 SLOAD PUSH1 0xFF NOT AND SWAP3 ISZERO ISZERO SWAP3 SWAP1 SWAP3 OR SWAP1 SWAP2 SSTORE PUSH2 0x24CF SWAP1 DUP7 SWAP1 PUSH2 0x3845 JUMP JUMPDEST PUSH1 0x40 DUP1 MLOAD SWAP2 DUP3 SWAP1 SUB DUP3 KECCAK256 PUSH1 0x1 PUSH1 0x1 PUSH1 0xA0 SHL SUB DUP8 AND DUP4 MSTORE PUSH1 0x1 PUSH1 0x20 DUP5 ADD MSTORE SWAP2 PUSH32 0x67652D8CC5C8D54581F4B2F6BD33513A6BC34F68F7DCE9CC837AAFC6B5A81429 SWAP2 ADD PUSH1 0x40 MLOAD DUP1 SWAP2 SUB SWAP1 LOG2 POP PUSH1 0x1 SWAP5 SWAP4 POP POP POP POP JUMP JUMPDEST PUSH1 0x0 DUP3 DUP2 MSTORE PUSH1 0x1 PUSH1 0x20 DUP2 SWAP1 MSTORE PUSH1 0x40 SWAP1 SWAP2 KECCAK256 ADD SLOAD PUSH2 0x2540 DUP2 CALLER PUSH2 0x2B2A JUMP JUMPDEST PUSH2 0xB24 DUP4 DUP4 PUSH2 0x2BF9 JUMP JUMPDEST DUP2 MLOAD PUSH1 0x20 DUP2 DUP5 ADD DUP2 ADD DUP1 MLOAD PUSH1 0x1E DUP3 MSTORE SWAP3 DUP3 ADD SWAP2 DUP6 ADD SWAP2 SWAP1 SWAP2 KECCAK256 SWAP2 SWAP1 MSTORE DUP1 SLOAD DUP3 SWAP1 DUP2 LT PUSH2 0x2575 JUMPI PUSH1 0x0 DUP1 REVERT JUMPDEST PUSH1 0x0 SWAP2 DUP3 MSTORE PUSH1 0x20 SWAP1 SWAP2 KECCAK256 ADD SLOAD PUSH1 0x1 PUSH1 0x1 PUSH1 0xA0 SHL SUB AND SWAP2 POP DUP3 SWAP1 POP JUMP JUMPDEST PUSH1 0x0 PUSH1 0x15 DUP4 PUSH1 0x40 MLOAD PUSH2 0x25A3 SWAP2 SWAP1 PUSH2 0x3845 JUMP JUMPDEST SWAP1 DUP2 MSTORE PUSH1 0x40 MLOAD SWAP1 DUP2 SWAP1 SUB PUSH1 0x20 ADD SWAP1 KECCAK256 SLOAD PUSH1 0xFF AND PUSH2 0x2610 JUMPI PUSH1 0x40 MLOAD PUSH3 0x461BCD PUSH1 0xE5 SHL DUP2 MSTORE PUSH1 0x20 PUSH1 0x4 DUP3 ADD MSTORE PUSH1 0x25 PUSH1 0x24 DUP3 ADD MSTORE PUSH32 0x47656E6572616C20537562736372697074696F6E206973206E6F74206F70656E PUSH1 0x44 DUP3 ADD MSTORE PUSH5 0x2079657421 PUSH1 0xD8 SHL PUSH1 0x64 DUP3 ADD MSTORE PUSH1 0x84 ADD PUSH2 0x8DC JUMP JUMPDEST PUSH1 0x1F DUP4 PUSH1 0x40 MLOAD PUSH2 0x2620 SWAP2 SWAP1 PUSH2 0x3845 JUMP JUMPDEST SWAP1 DUP2 MSTORE PUSH1 0x40 DUP1 MLOAD PUSH1 0x20 SWAP3 DUP2 SWAP1 SUB DUP4 ADD SWAP1 KECCAK256 PUSH1 0x1 PUSH1 0x1 PUSH1 0xA0 SHL SUB DUP6 AND PUSH1 0x0 SWAP1 DUP2 MSTORE SWAP3 MSTORE SWAP1 KECCAK256 SLOAD PUSH1 0xFF AND ISZERO DUP1 PUSH2 0x265A JUMPI POP PUSH2 0x265A PUSH1 0x0 CALLER PUSH2 0x1D4D JUMP JUMPDEST PUSH2 0x26A6 JUMPI PUSH1 0x40 MLOAD PUSH3 0x461BCD PUSH1 0xE5 SHL DUP2 MSTORE PUSH1 0x20 PUSH1 0x4 DUP3 ADD MSTORE PUSH1 0x19 PUSH1 0x24 DUP3 ADD MSTORE PUSH32 0x57616C6C657420416C7265616479205375627363726962656400000000000000 PUSH1 0x44 DUP3 ADD MSTORE PUSH1 0x64 ADD PUSH2 0x8DC JUMP JUMPDEST PUSH1 0x1A DUP4 PUSH1 0x40 MLOAD PUSH2 0x26B6 SWAP2 SWAP1 PUSH2 0x3845 JUMP JUMPDEST SWAP1 DUP2 MSTORE PUSH1 0x40 MLOAD SWAP1 DUP2 SWAP1 SUB PUSH1 0x20 ADD DUP2 KECCAK256 SLOAD SWAP1 PUSH1 0x1E SWAP1 PUSH2 0x26D5 SWAP1 DUP7 SWAP1 PUSH2 0x3845 JUMP JUMPDEST SWAP1 DUP2 MSTORE PUSH1 0x40 MLOAD SWAP1 DUP2 SWAP1 SUB PUSH1 0x20 ADD SWAP1 KECCAK256 SLOAD LT PUSH2 0x2727 JUMPI PUSH1 0x40 MLOAD PUSH3 0x461BCD PUSH1 0xE5 SHL DUP2 MSTORE PUSH1 0x20 PUSH1 0x4 DUP3 ADD MSTORE PUSH1 0x12 PUSH1 0x24 DUP3 ADD MSTORE PUSH18 0x139BC8135BDC994814DC1BDD1CC81319599D PUSH1 0x72 SHL PUSH1 0x44 DUP3 ADD MSTORE PUSH1 0x64 ADD PUSH2 0x8DC JUMP JUMPDEST PUSH1 0x0 PUSH1 0x18 DUP5 PUSH1 0x40 MLOAD PUSH2 0x2739 SWAP2 SWAP1 PUSH2 0x3845 JUMP JUMPDEST SWAP1 DUP2 MSTORE PUSH1 0x20 ADD PUSH1 0x40 MLOAD DUP1 SWAP2 SUB SWAP1 KECCAK256 PUSH1 0x0 SWAP1 SLOAD SWAP1 PUSH2 0x100 EXP SWAP1 DIV PUSH1 0x1 PUSH1 0x1 PUSH1 0xA0 SHL SUB AND SWAP1 POP PUSH1 0x0 PUSH2 0x2796 PUSH1 0x64 PUSH2 0x2790 PUSH1 0x10 SLOAD PUSH1 0x17 DUP10 PUSH1 0x40 MLOAD PUSH2 0x277A SWAP2 SWAP1 PUSH2 0x3845 JUMP JUMPDEST SWAP1 DUP2 MSTORE PUSH1 0x40 MLOAD SWAP1 DUP2 SWAP1 SUB PUSH1 0x20 ADD SWAP1 KECCAK256 SLOAD SWAP1 PUSH2 0x2F4C JUMP JUMPDEST SWAP1 PUSH2 0x2F5F JUMP JUMPDEST SWAP1 POP PUSH1 0x0 PUSH2 0x27C1 PUSH1 0x64 PUSH2 0x2790 PUSH1 0x10 SLOAD PUSH1 0x64 PUSH2 0x27B1 SWAP2 SWAP1 PUSH2 0x39A5 JUMP JUMPDEST PUSH1 0x17 DUP11 PUSH1 0x40 MLOAD PUSH2 0x277A SWAP2 SWAP1 PUSH2 0x3845 JUMP JUMPDEST SWAP1 POP PUSH1 0x17 DUP7 PUSH1 0x40 MLOAD PUSH2 0x27D3 SWAP2 SWAP1 PUSH2 0x3845 JUMP JUMPDEST SWAP1 DUP2 MSTORE PUSH1 0x20 ADD PUSH1 0x40 MLOAD DUP1 SWAP2 SUB SWAP1 KECCAK256 SLOAD PUSH1 0x0 EQ DUP1 PUSH2 0x2908 JUMPI POP PUSH1 0x11 SLOAD PUSH1 0x40 MLOAD PUSH4 0x23B872DD PUSH1 0xE0 SHL DUP2 MSTORE PUSH1 0x1 PUSH1 0x1 PUSH1 0xA0 SHL SUB DUP1 DUP7 AND SWAP3 PUSH4 0x23B872DD SWAP3 PUSH2 0x281F SWAP3 CALLER SWAP3 AND SWAP1 DUP8 SWAP1 PUSH1 0x4 ADD PUSH2 0x38AA JUMP JUMPDEST PUSH1 0x20 PUSH1 0x40 MLOAD DUP1 DUP4 SUB DUP2 PUSH1 0x0 DUP8 GAS CALL ISZERO DUP1 ISZERO PUSH2 0x283E JUMPI RETURNDATASIZE PUSH1 0x0 DUP1 RETURNDATACOPY RETURNDATASIZE PUSH1 0x0 REVERT JUMPDEST POP POP POP POP PUSH1 0x40 MLOAD RETURNDATASIZE PUSH1 0x1F NOT PUSH1 0x1F DUP3 ADD AND DUP3 ADD DUP1 PUSH1 0x40 MSTORE POP DUP2 ADD SWAP1 PUSH2 0x2862 SWAP2 SWAP1 PUSH2 0x3918 JUMP JUMPDEST DUP1 ISZERO PUSH2 0x2908 JUMPI POP DUP3 PUSH1 0x1 PUSH1 0x1 PUSH1 0xA0 SHL SUB AND PUSH4 0x23B872DD CALLER PUSH1 0x12 DUP10 PUSH1 0x40 MLOAD PUSH2 0x2889 SWAP2 SWAP1 PUSH2 0x3845 JUMP JUMPDEST SWAP1 DUP2 MSTORE PUSH1 0x40 MLOAD SWAP1 DUP2 SWAP1 SUB PUSH1 0x20 ADD DUP2 KECCAK256 SLOAD PUSH1 0x1 PUSH1 0x1 PUSH1 0xE0 SHL SUB NOT PUSH1 0xE0 DUP6 SWAP1 SHL AND DUP3 MSTORE PUSH2 0x28C5 SWAP3 SWAP2 PUSH1 0x1 PUSH1 0x1 PUSH1 0xA0 SHL SUB SWAP1 SWAP2 AND SWAP1 DUP7 SWAP1 PUSH1 0x4 ADD PUSH2 0x38AA JUMP JUMPDEST PUSH1 0x20 PUSH1 0x40 MLOAD DUP1 DUP4 SUB DUP2 PUSH1 0x0 DUP8 GAS CALL ISZERO DUP1 ISZERO PUSH2 0x28E4 JUMPI RETURNDATASIZE PUSH1 0x0 DUP1 RETURNDATACOPY RETURNDATASIZE PUSH1 0x0 REVERT JUMPDEST POP POP POP POP PUSH1 0x40 MLOAD RETURNDATASIZE PUSH1 0x1F NOT PUSH1 0x1F DUP3 ADD AND DUP3 ADD DUP1 PUSH1 0x40 MSTORE POP DUP2 ADD SWAP1 PUSH2 0x2908 SWAP2 SWAP1 PUSH2 0x3918 JUMP JUMPDEST PUSH2 0x294D JUMPI PUSH1 0x40 MLOAD PUSH3 0x461BCD PUSH1 0xE5 SHL DUP2 MSTORE PUSH1 0x20 PUSH1 0x4 DUP3 ADD MSTORE PUSH1 0x16 PUSH1 0x24 DUP3 ADD MSTORE PUSH22 0x1058D8D95CDCC81199595CC81611948811985A5B1959 PUSH1 0x52 SHL PUSH1 0x44 DUP3 ADD MSTORE PUSH1 0x64 ADD PUSH2 0x8DC JUMP JUMPDEST PUSH1 0x1E DUP7 PUSH1 0x40 MLOAD PUSH2 0x295D SWAP2 SWAP1 PUSH2 0x3845 JUMP JUMPDEST SWAP1 DUP2 MSTORE PUSH1 0x40 MLOAD PUSH1 0x20 SWAP2 DUP2 SWAP1 SUB DUP3 ADD DUP2 KECCAK256 DUP1 SLOAD PUSH1 0x1 DUP1 DUP3 ADD DUP4 SSTORE PUSH1 0x0 SWAP3 DUP4 MSTORE SWAP4 SWAP1 SWAP2 KECCAK256 ADD DUP1 SLOAD PUSH1 0x1 PUSH1 0x1 PUSH1 0xA0 SHL SUB NOT AND PUSH1 0x1 PUSH1 0x1 PUSH1 0xA0 SHL SUB DUP10 AND OR SWAP1 SSTORE PUSH1 0x1F SWAP1 PUSH2 0x29A7 SWAP1 DUP10 SWAP1 PUSH2 0x3845 JUMP JUMPDEST SWAP1 DUP2 MSTORE PUSH1 0x40 DUP1 MLOAD PUSH1 0x20 SWAP3 DUP2 SWAP1 SUB DUP4 ADD DUP2 KECCAK256 PUSH1 0x1 PUSH1 0x1 PUSH1 0xA0 SHL SUB DUP11 AND PUSH1 0x0 SWAP1 DUP2 MSTORE SWAP4 MSTORE SWAP2 KECCAK256 DUP1 SLOAD PUSH1 0xFF NOT AND SWAP3 ISZERO ISZERO SWAP3 SWAP1 SWAP3 OR SWAP1 SWAP2 SSTORE PUSH2 0x29E6 SWAP1 DUP8 SWAP1 PUSH2 0x3845 JUMP JUMPDEST PUSH1 0x40 DUP1 MLOAD SWAP2 DUP3 SWAP1 SUB DUP3 KECCAK256 PUSH1 0x1 PUSH1 0x1 PUSH1 0xA0 SHL SUB DUP9 AND DUP4 MSTORE PUSH1 0x0 PUSH1 0x20 DUP5 ADD MSTORE SWAP2 PUSH32 0x67652D8CC5C8D54581F4B2F6BD33513A6BC34F68F7DCE9CC837AAFC6B5A81429 SWAP2 ADD PUSH1 0x40 MLOAD DUP1 SWAP2 SUB SWAP1 LOG2 POP PUSH1 0x1 SWAP6 SWAP5 POP POP POP POP POP JUMP JUMPDEST PUSH2 0x2A43 PUSH2 0x2C60 JUMP JUMPDEST PUSH2 0x2A4C DUP2 PUSH2 0x2F6B JUMP JUMPDEST POP JUMP JUMPDEST PUSH2 0x2A57 PUSH2 0x2C60 JUMP JUMPDEST PUSH1 0xC SWAP2 SWAP1 SWAP2 SSTORE PUSH1 0xB SSTORE JUMP JUMPDEST CALLER PUSH1 0x1 PUSH1 0x1 PUSH1 0xA0 SHL SUB AND PUSH1 0x12 DUP5 PUSH1 0x40 MLOAD PUSH2 0x2A7C SWAP2 SWAP1 PUSH2 0x3845 JUMP JUMPDEST SWAP1 DUP2 MSTORE PUSH1 0x40 MLOAD SWAP1 DUP2 SWAP1 SUB PUSH1 0x20 ADD SWAP1 KECCAK256 SLOAD PUSH1 0x1 PUSH1 0x1 PUSH1 0xA0 SHL SUB AND EQ DUP1 PUSH2 0x2AA7 JUMPI POP PUSH2 0x2AA7 PUSH1 0x0 CALLER PUSH2 0x1D4D JUMP JUMPDEST PUSH2 0x2AC3 JUMPI PUSH1 0x40 MLOAD PUSH3 0x461BCD PUSH1 0xE5 SHL DUP2 MSTORE PUSH1 0x4 ADD PUSH2 0x8DC SWAP1 PUSH2 0x3861 JUMP JUMPDEST DUP2 PUSH1 0x15 DUP5 PUSH1 0x40 MLOAD PUSH2 0x2AD4 SWAP2 SWAP1 PUSH2 0x3845 JUMP JUMPDEST SWAP1 DUP2 MSTORE PUSH1 0x40 MLOAD SWAP1 DUP2 SWAP1 SUB PUSH1 0x20 ADD DUP2 KECCAK256 DUP1 SLOAD SWAP3 ISZERO ISZERO PUSH1 0xFF NOT SWAP1 SWAP4 AND SWAP3 SWAP1 SWAP3 OR SWAP1 SWAP2 SSTORE DUP2 SWAP1 PUSH1 0x16 SWAP1 PUSH2 0x2B05 SWAP1 DUP7 SWAP1 PUSH2 0x3845 JUMP JUMPDEST SWAP1 DUP2 MSTORE PUSH1 0x40 MLOAD SWAP1 DUP2 SWAP1 SUB PUSH1 0x20 ADD SWAP1 KECCAK256 DUP1 SLOAD SWAP2 ISZERO ISZERO PUSH1 0xFF NOT SWAP1 SWAP3 AND SWAP2 SWAP1 SWAP2 OR SWAP1 SSTORE POP POP POP JUMP JUMPDEST PUSH2 0x2B34 DUP3 DUP3 PUSH2 0x1D4D JUMP JUMPDEST PUSH2 0xF5E JUMPI PUSH2 0x2B4C DUP2 PUSH1 0x1 PUSH1 0x1 PUSH1 0xA0 SHL SUB AND PUSH1 0x14 PUSH2 0x3016 JUMP JUMPDEST PUSH2 0x2B57 DUP4 PUSH1 0x20 PUSH2 0x3016 JUMP JUMPDEST PUSH1 0x40 MLOAD PUSH1 0x20 ADD PUSH2 0x2B68 SWAP3 SWAP2 SWAP1 PUSH2 0x39E6 JUMP JUMPDEST PUSH1 0x40 DUP1 MLOAD PUSH1 0x1F NOT DUP2 DUP5 SUB ADD DUP2 MSTORE SWAP1 DUP3 SWAP1 MSTORE PUSH3 0x461BCD PUSH1 0xE5 SHL DUP3 MSTORE PUSH2 0x8DC SWAP2 PUSH1 0x4 ADD PUSH2 0x3A87 JUMP JUMPDEST PUSH2 0x2B98 DUP3 DUP3 PUSH2 0x1D4D JUMP JUMPDEST PUSH2 0xF5E JUMPI PUSH1 0x0 DUP3 DUP2 MSTORE PUSH1 0x1 PUSH1 0x20 DUP2 DUP2 MSTORE PUSH1 0x40 DUP1 DUP5 KECCAK256 PUSH1 0x1 PUSH1 0x1 PUSH1 0xA0 SHL SUB DUP7 AND DUP1 DUP7 MSTORE SWAP3 MSTORE DUP1 DUP5 KECCAK256 DUP1 SLOAD PUSH1 0xFF NOT AND SWAP1 SWAP4 OR SWAP1 SWAP3 SSTORE SWAP1 MLOAD CALLER SWAP3 DUP6 SWAP2 PUSH32 0x2F8788117E7EFF1D82E926EC794901D17C78024A50270940304540A733656F0D SWAP2 SWAP1 LOG4 POP POP JUMP JUMPDEST PUSH2 0x2C03 DUP3 DUP3 PUSH2 0x1D4D JUMP JUMPDEST ISZERO PUSH2 0xF5E JUMPI PUSH1 0x0 DUP3 DUP2 MSTORE PUSH1 0x1 PUSH1 0x20 SWAP1 DUP2 MSTORE PUSH1 0x40 DUP1 DUP4 KECCAK256 PUSH1 0x1 PUSH1 0x1 PUSH1 0xA0 SHL SUB DUP6 AND DUP1 DUP6 MSTORE SWAP3 MSTORE DUP1 DUP4 KECCAK256 DUP1 SLOAD PUSH1 0xFF NOT AND SWAP1 SSTORE MLOAD CALLER SWAP3 DUP6 SWAP2 PUSH32 0xF6391F5C32D9C69D2A47EA670B442974B53935D1EDC7FD64EB21E047A839171B SWAP2 SWAP1 LOG4 POP POP JUMP JUMPDEST PUSH1 0x2 SLOAD PUSH1 0x1 PUSH1 0x1 PUSH1 0xA0 SHL SUB AND CALLER EQ PUSH2 0x2CB3 JUMPI PUSH1 0x40 MLOAD PUSH3 0x461BCD PUSH1 0xE5 SHL DUP2 MSTORE PUSH1 0x20 PUSH1 0x4 DUP3 ADD MSTORE PUSH1 0x16 PUSH1 0x24 DUP3 ADD MSTORE PUSH22 0x27B7363C9031B0B63630B1363290313C9037BBB732B9 PUSH1 0x51 SHL PUSH1 0x44 DUP3 ADD MSTORE PUSH1 0x64 ADD PUSH2 0x8DC JUMP JUMPDEST JUMP JUMPDEST PUSH1 0x0 DUP3 DUP2 MSTORE PUSH1 0x21 PUSH1 0x20 MSTORE PUSH1 0x40 DUP2 KECCAK256 DUP1 SLOAD PUSH2 0x2CCE SWAP1 PUSH2 0x396A JUMP JUMPDEST DUP1 PUSH1 0x1F ADD PUSH1 0x20 DUP1 SWAP2 DIV MUL PUSH1 0x20 ADD PUSH1 0x40 MLOAD SWAP1 DUP2 ADD PUSH1 0x40 MSTORE DUP1 SWAP3 SWAP2 SWAP1 DUP2 DUP2 MSTORE PUSH1 0x20 ADD DUP3 DUP1 SLOAD PUSH2 0x2CFA SWAP1 PUSH2 0x396A JUMP JUMPDEST DUP1 ISZERO PUSH2 0x2D47 JUMPI DUP1 PUSH1 0x1F LT PUSH2 0x2D1C JUMPI PUSH2 0x100 DUP1 DUP4 SLOAD DIV MUL DUP4 MSTORE SWAP2 PUSH1 0x20 ADD SWAP2 PUSH2 0x2D47 JUMP JUMPDEST DUP3 ADD SWAP2 SWAP1 PUSH1 0x0 MSTORE PUSH1 0x20 PUSH1 0x0 KECCAK256 SWAP1 JUMPDEST DUP2 SLOAD DUP2 MSTORE SWAP1 PUSH1 0x1 ADD SWAP1 PUSH1 0x20 ADD DUP1 DUP4 GT PUSH2 0x2D2A JUMPI DUP3 SWAP1 SUB PUSH1 0x1F AND DUP3 ADD SWAP2 JUMPDEST POP POP POP POP POP SWAP1 POP DUP2 DUP4 DUP3 PUSH1 0x40 MLOAD PUSH2 0x2D5E SWAP2 SWAP1 PUSH2 0x3845 JUMP JUMPDEST PUSH1 0x40 MLOAD SWAP1 DUP2 SWAP1 SUB DUP2 KECCAK256 SWAP1 PUSH32 0xD21D47B2733AAAFBFFC1355C71AFF0747151B3314FAFB5D8E50241AC74275BA0 SWAP1 PUSH1 0x0 SWAP1 LOG4 PUSH1 0x1 PUSH1 0x20 DUP3 PUSH1 0x40 MLOAD PUSH2 0x2DA0 SWAP2 SWAP1 PUSH2 0x3845 JUMP JUMPDEST SWAP1 DUP2 MSTORE PUSH1 0x40 DUP1 MLOAD PUSH1 0x20 SWAP3 DUP2 SWAP1 SUB DUP4 ADD SWAP1 KECCAK256 DUP1 SLOAD PUSH1 0xFF NOT AND SWAP4 ISZERO ISZERO SWAP4 SWAP1 SWAP4 OR SWAP1 SWAP3 SSTORE PUSH1 0x0 SWAP5 DUP6 MSTORE PUSH1 0x26 SWAP1 MSTORE SWAP1 SWAP3 KECCAK256 SSTORE POP JUMP JUMPDEST PUSH1 0x0 PUSH32 0x0 PUSH1 0x1 PUSH1 0x1 PUSH1 0xA0 SHL SUB AND PUSH4 0x4000AEA0 PUSH32 0x0 DUP5 DUP7 PUSH1 0x0 PUSH1 0x40 MLOAD PUSH1 0x20 ADD PUSH2 0x2E41 SWAP3 SWAP2 SWAP1 SWAP2 DUP3 MSTORE PUSH1 0x20 DUP3 ADD MSTORE PUSH1 0x40 ADD SWAP1 JUMP JUMPDEST PUSH1 0x40 MLOAD PUSH1 0x20 DUP2 DUP4 SUB SUB DUP2 MSTORE SWAP1 PUSH1 0x40 MSTORE PUSH1 0x40 MLOAD DUP5 PUSH4 0xFFFFFFFF AND PUSH1 0xE0 SHL DUP2 MSTORE PUSH1 0x4 ADD PUSH2 0x2E6E SWAP4 SWAP3 SWAP2 SWAP1 PUSH2 0x3A9A JUMP JUMPDEST PUSH1 0x20 PUSH1 0x40 MLOAD DUP1 DUP4 SUB DUP2 PUSH1 0x0 DUP8 GAS CALL ISZERO DUP1 ISZERO PUSH2 0x2E8D JUMPI RETURNDATASIZE PUSH1 0x0 DUP1 RETURNDATACOPY RETURNDATASIZE PUSH1 0x0 REVERT JUMPDEST POP POP POP POP PUSH1 0x40 MLOAD RETURNDATASIZE PUSH1 0x1F NOT PUSH1 0x1F DUP3 ADD AND DUP3 ADD DUP1 PUSH1 0x40 MSTORE POP DUP2 ADD SWAP1 PUSH2 0x2EB1 SWAP2 SWAP1 PUSH2 0x3918 JUMP JUMPDEST POP PUSH1 0x0 DUP4 DUP2 MSTORE PUSH1 0x20 DUP2 DUP2 MSTORE PUSH1 0x40 DUP1 DUP4 KECCAK256 SLOAD DUP2 MLOAD DUP1 DUP5 ADD DUP9 SWAP1 MSTORE DUP1 DUP4 ADD DUP6 SWAP1 MSTORE ADDRESS PUSH1 0x60 DUP3 ADD MSTORE PUSH1 0x80 DUP1 DUP3 ADD DUP4 SWAP1 MSTORE DUP4 MLOAD DUP1 DUP4 SUB SWAP1 SWAP2 ADD DUP2 MSTORE PUSH1 0xA0 SWAP1 SWAP2 ADD SWAP1 SWAP3 MSTORE DUP2 MLOAD SWAP2 DUP4 ADD SWAP2 SWAP1 SWAP2 KECCAK256 DUP7 DUP5 MSTORE SWAP3 SWAP1 SWAP2 MSTORE PUSH2 0x2F0B SWAP1 PUSH1 0x1 PUSH2 0x3ACA JUMP JUMPDEST PUSH1 0x0 DUP6 DUP2 MSTORE PUSH1 0x20 DUP2 DUP2 MSTORE PUSH1 0x40 SWAP2 DUP3 SWAP1 KECCAK256 SWAP3 SWAP1 SWAP3 SSTORE DUP1 MLOAD DUP1 DUP4 ADD DUP8 SWAP1 MSTORE DUP1 DUP3 ADD DUP5 SWAP1 MSTORE DUP2 MLOAD DUP1 DUP3 SUB DUP4 ADD DUP2 MSTORE PUSH1 0x60 SWAP1 SWAP2 ADD SWAP1 SWAP2 MSTORE DUP1 MLOAD SWAP2 ADD KECCAK256 JUMPDEST SWAP5 SWAP4 POP POP POP POP JUMP JUMPDEST PUSH1 0x0 PUSH2 0x2F58 DUP3 DUP5 PUSH2 0x394B JUMP JUMPDEST SWAP4 SWAP3 POP POP POP JUMP JUMPDEST PUSH1 0x0 PUSH2 0x2F58 DUP3 DUP5 PUSH2 0x3AE2 JUMP JUMPDEST PUSH1 0x1 PUSH1 0x1 PUSH1 0xA0 SHL SUB DUP2 AND CALLER EQ ISZERO PUSH2 0x2FC4 JUMPI PUSH1 0x40 MLOAD PUSH3 0x461BCD PUSH1 0xE5 SHL DUP2 MSTORE PUSH1 0x20 PUSH1 0x4 DUP3 ADD MSTORE PUSH1 0x17 PUSH1 0x24 DUP3 ADD MSTORE PUSH32 0x43616E6E6F74207472616E7366657220746F2073656C66000000000000000000 PUSH1 0x44 DUP3 ADD MSTORE PUSH1 0x64 ADD PUSH2 0x8DC JUMP JUMPDEST PUSH1 0x3 DUP1 SLOAD PUSH1 0x1 PUSH1 0x1 PUSH1 0xA0 SHL SUB NOT AND PUSH1 0x1 PUSH1 0x1 PUSH1 0xA0 SHL SUB DUP4 DUP2 AND SWAP2 DUP3 OR SWAP1 SWAP3 SSTORE PUSH1 0x2 SLOAD PUSH1 0x40 MLOAD SWAP2 SWAP3 AND SWAP1 PUSH32 0xED8889F560326EB138920D842192F0EB3DD22B4F139C87A2C57538E05BAE1278 SWAP1 PUSH1 0x0 SWAP1 LOG3 POP JUMP JUMPDEST PUSH1 0x60 PUSH1 0x0 PUSH2 0x3025 DUP4 PUSH1 0x2 PUSH2 0x394B JUMP JUMPDEST PUSH2 0x3030 SWAP1 PUSH1 0x2 PUSH2 0x3ACA JUMP JUMPDEST PUSH1 0x1 PUSH1 0x1 PUSH1 0x40 SHL SUB DUP2 GT ISZERO PUSH2 0x3047 JUMPI PUSH2 0x3047 PUSH2 0x3303 JUMP JUMPDEST PUSH1 0x40 MLOAD SWAP1 DUP1 DUP3 MSTORE DUP1 PUSH1 0x1F ADD PUSH1 0x1F NOT AND PUSH1 0x20 ADD DUP3 ADD PUSH1 0x40 MSTORE DUP1 ISZERO PUSH2 0x3071 JUMPI PUSH1 0x20 DUP3 ADD DUP2 DUP1 CALLDATASIZE DUP4 CALLDATACOPY ADD SWAP1 POP JUMPDEST POP SWAP1 POP PUSH1 0x3 PUSH1 0xFC SHL DUP2 PUSH1 0x0 DUP2 MLOAD DUP2 LT PUSH2 0x308C JUMPI PUSH2 0x308C PUSH2 0x3935 JUMP JUMPDEST PUSH1 0x20 ADD ADD SWAP1 PUSH1 0x1 PUSH1 0x1 PUSH1 0xF8 SHL SUB NOT AND SWAP1 DUP2 PUSH1 0x0 BYTE SWAP1 MSTORE8 POP PUSH1 0xF PUSH1 0xFB SHL DUP2 PUSH1 0x1 DUP2 MLOAD DUP2 LT PUSH2 0x30BB JUMPI PUSH2 0x30BB PUSH2 0x3935 JUMP JUMPDEST PUSH1 0x20 ADD ADD SWAP1 PUSH1 0x1 PUSH1 0x1 PUSH1 0xF8 SHL SUB NOT AND SWAP1 DUP2 PUSH1 0x0 BYTE SWAP1 MSTORE8 POP PUSH1 0x0 PUSH2 0x30DF DUP5 PUSH1 0x2 PUSH2 0x394B JUMP JUMPDEST PUSH2 0x30EA SWAP1 PUSH1 0x1 PUSH2 0x3ACA JUMP JUMPDEST SWAP1 POP JUMPDEST PUSH1 0x1 DUP2 GT ISZERO PUSH2 0x3162 JUMPI PUSH16 0x181899199A1A9B1B9C1CB0B131B232B3 PUSH1 0x81 SHL DUP6 PUSH1 0xF AND PUSH1 0x10 DUP2 LT PUSH2 0x311E JUMPI PUSH2 0x311E PUSH2 0x3935 JUMP JUMPDEST BYTE PUSH1 0xF8 SHL DUP3 DUP3 DUP2 MLOAD DUP2 LT PUSH2 0x3134 JUMPI PUSH2 0x3134 PUSH2 0x3935 JUMP JUMPDEST PUSH1 0x20 ADD ADD SWAP1 PUSH1 0x1 PUSH1 0x1 PUSH1 0xF8 SHL SUB NOT AND SWAP1 DUP2 PUSH1 0x0 BYTE SWAP1 MSTORE8 POP PUSH1 0x4 SWAP5 SWAP1 SWAP5 SHR SWAP4 PUSH2 0x315B DUP2 PUSH2 0x3AF6 JUMP JUMPDEST SWAP1 POP PUSH2 0x30ED JUMP JUMPDEST POP DUP4 ISZERO PUSH2 0x2F58 JUMPI PUSH1 0x40 MLOAD PUSH3 0x461BCD PUSH1 0xE5 SHL DUP2 MSTORE PUSH1 0x20 PUSH1 0x4 DUP3 ADD DUP2 SWAP1 MSTORE PUSH1 0x24 DUP3 ADD MSTORE PUSH32 0x537472696E67733A20686578206C656E67746820696E73756666696369656E74 PUSH1 0x44 DUP3 ADD MSTORE PUSH1 0x64 ADD PUSH2 0x8DC JUMP JUMPDEST DUP3 DUP1 SLOAD DUP3 DUP3 SSTORE SWAP1 PUSH1 0x0 MSTORE PUSH1 0x20 PUSH1 0x0 KECCAK256 SWAP1 DUP2 ADD SWAP3 DUP3 ISZERO PUSH2 0x31EC JUMPI SWAP2 PUSH1 0x20 MUL DUP3 ADD JUMPDEST DUP3 DUP2 GT ISZERO PUSH2 0x31EC JUMPI DUP3 MLOAD DUP3 SSTORE SWAP2 PUSH1 0x20 ADD SWAP2 SWAP1 PUSH1 0x1 ADD SWAP1 PUSH2 0x31D1 JUMP JUMPDEST POP PUSH2 0x31F8 SWAP3 SWAP2 POP PUSH2 0x32C4 JUMP JUMPDEST POP SWAP1 JUMP JUMPDEST DUP3 DUP1 SLOAD DUP3 DUP3 SSTORE SWAP1 PUSH1 0x0 MSTORE PUSH1 0x20 PUSH1 0x0 KECCAK256 SWAP1 DUP2 ADD SWAP3 DUP3 ISZERO PUSH2 0x31EC JUMPI SWAP2 PUSH1 0x20 MUL DUP3 ADD JUMPDEST DUP3 DUP2 GT ISZERO PUSH2 0x31EC JUMPI DUP3 MLOAD DUP3 SLOAD PUSH1 0x1 PUSH1 0x1 PUSH1 0xA0 SHL SUB NOT AND PUSH1 0x1 PUSH1 0x1 PUSH1 0xA0 SHL SUB SWAP1 SWAP2 AND OR DUP3 SSTORE PUSH1 0x20 SWAP1 SWAP3 ADD SWAP2 PUSH1 0x1 SWAP1 SWAP2 ADD SWAP1 PUSH2 0x321C JUMP JUMPDEST DUP3 DUP1 SLOAD PUSH2 0x325D SWAP1 PUSH2 0x396A JUMP JUMPDEST SWAP1 PUSH1 0x0 MSTORE PUSH1 0x20 PUSH1 0x0 KECCAK256 SWAP1 PUSH1 0x1F ADD PUSH1 0x20 SWAP1 DIV DUP2 ADD SWAP3 DUP3 PUSH2 0x327F JUMPI PUSH1 0x0 DUP6 SSTORE PUSH2 0x31EC JUMP JUMPDEST DUP3 PUSH1 0x1F LT PUSH2 0x3298 JUMPI DUP1 MLOAD PUSH1 0xFF NOT AND DUP4 DUP1 ADD OR DUP6 SSTORE PUSH2 0x31EC JUMP JUMPDEST DUP3 DUP1 ADD PUSH1 0x1 ADD DUP6 SSTORE DUP3 ISZERO PUSH2 0x31EC JUMPI SWAP2 DUP3 ADD DUP3 DUP2 GT ISZERO PUSH2 0x31EC JUMPI DUP3 MLOAD DUP3 SSTORE SWAP2 PUSH1 0x20 ADD SWAP2 SWAP1 PUSH1 0x1 ADD SWAP1 PUSH2 0x31D1 JUMP JUMPDEST JUMPDEST DUP1 DUP3 GT ISZERO PUSH2 0x31F8 JUMPI PUSH1 0x0 DUP2 SSTORE PUSH1 0x1 ADD PUSH2 0x32C5 JUMP JUMPDEST PUSH1 0x0 PUSH1 0x20 DUP3 DUP5 SUB SLT ISZERO PUSH2 0x32EB JUMPI PUSH1 0x0 DUP1 REVERT JUMPDEST DUP2 CALLDATALOAD PUSH1 0x1 PUSH1 0x1 PUSH1 0xE0 SHL SUB NOT DUP2 AND DUP2 EQ PUSH2 0x2F58 JUMPI PUSH1 0x0 DUP1 REVERT JUMPDEST PUSH4 0x4E487B71 PUSH1 0xE0 SHL PUSH1 0x0 MSTORE PUSH1 0x41 PUSH1 0x4 MSTORE PUSH1 0x24 PUSH1 0x0 REVERT JUMPDEST PUSH1 0x0 PUSH1 0x1 PUSH1 0x1 PUSH1 0x40 SHL SUB DUP1 DUP5 GT ISZERO PUSH2 0x3333 JUMPI PUSH2 0x3333 PUSH2 0x3303 JUMP JUMPDEST PUSH1 0x40 MLOAD PUSH1 0x1F DUP6 ADD PUSH1 0x1F NOT SWAP1 DUP2 AND PUSH1 0x3F ADD AND DUP2 ADD SWAP1 DUP3 DUP3 GT DUP2 DUP4 LT OR ISZERO PUSH2 0x335B JUMPI PUSH2 0x335B PUSH2 0x3303 JUMP JUMPDEST DUP2 PUSH1 0x40 MSTORE DUP1 SWAP4 POP DUP6 DUP2 MSTORE DUP7 DUP7 DUP7 ADD GT ISZERO PUSH2 0x3374 JUMPI PUSH1 0x0 DUP1 REVERT JUMPDEST DUP6 DUP6 PUSH1 0x20 DUP4 ADD CALLDATACOPY PUSH1 0x0 PUSH1 0x20 DUP8 DUP4 ADD ADD MSTORE POP POP POP SWAP4 SWAP3 POP POP POP JUMP JUMPDEST PUSH1 0x0 DUP3 PUSH1 0x1F DUP4 ADD SLT PUSH2 0x339F JUMPI PUSH1 0x0 DUP1 REVERT JUMPDEST PUSH2 0x2F58 DUP4 DUP4 CALLDATALOAD PUSH1 0x20 DUP6 ADD PUSH2 0x3319 JUMP JUMPDEST PUSH1 0x0 PUSH1 0x20 DUP3 DUP5 SUB SLT ISZERO PUSH2 0x33C0 JUMPI PUSH1 0x0 DUP1 REVERT JUMPDEST DUP2 CALLDATALOAD PUSH1 0x1 PUSH1 0x1 PUSH1 0x40 SHL SUB DUP2 GT ISZERO PUSH2 0x33D6 JUMPI PUSH1 0x0 DUP1 REVERT JUMPDEST PUSH2 0x2F44 DUP5 DUP3 DUP6 ADD PUSH2 0x338E JUMP JUMPDEST PUSH1 0x1 PUSH1 0x1 PUSH1 0xA0 SHL SUB DUP2 AND DUP2 EQ PUSH2 0x2A4C JUMPI PUSH1 0x0 DUP1 REVERT JUMPDEST PUSH1 0x0 DUP1 PUSH1 0x0 DUP1 PUSH1 0x80 DUP6 DUP8 SUB SLT ISZERO PUSH2 0x340D JUMPI PUSH1 0x0 DUP1 REVERT JUMPDEST DUP5 CALLDATALOAD PUSH2 0x3418 DUP2 PUSH2 0x33E2 JUMP JUMPDEST SWAP4 POP PUSH1 0x20 DUP6 ADD CALLDATALOAD PUSH2 0x3428 DUP2 PUSH2 0x33E2 JUMP JUMPDEST SWAP3 POP PUSH1 0x40 DUP6 ADD CALLDATALOAD SWAP2 POP PUSH1 0x60 DUP6 ADD CALLDATALOAD PUSH1 0x1 PUSH1 0x1 PUSH1 0x40 SHL SUB DUP2 GT ISZERO PUSH2 0x344A JUMPI PUSH1 0x0 DUP1 REVERT JUMPDEST DUP6 ADD PUSH1 0x1F DUP2 ADD DUP8 SGT PUSH2 0x345B JUMPI PUSH1 0x0 DUP1 REVERT JUMPDEST PUSH2 0x346A DUP8 DUP3 CALLDATALOAD PUSH1 0x20 DUP5 ADD PUSH2 0x3319 JUMP JUMPDEST SWAP2 POP POP SWAP3 SWAP6 SWAP2 SWAP5 POP SWAP3 POP JUMP JUMPDEST PUSH1 0x0 DUP1 PUSH1 0x0 DUP1 PUSH1 0x80 DUP6 DUP8 SUB SLT ISZERO PUSH2 0x348C JUMPI PUSH1 0x0 DUP1 REVERT JUMPDEST DUP5 CALLDATALOAD PUSH1 0x1 PUSH1 0x1 PUSH1 0x40 SHL SUB DUP2 GT ISZERO PUSH2 0x34A2 JUMPI PUSH1 0x0 DUP1 REVERT JUMPDEST PUSH2 0x34AE DUP8 DUP3 DUP9 ADD PUSH2 0x338E JUMP JUMPDEST SWAP5 POP POP PUSH1 0x20 DUP6 ADD CALLDATALOAD PUSH2 0x34BF DUP2 PUSH2 0x33E2 JUMP JUMPDEST SWAP4 SWAP7 SWAP4 SWAP6 POP POP POP POP PUSH1 0x40 DUP3 ADD CALLDATALOAD SWAP2 PUSH1 0x60 ADD CALLDATALOAD SWAP1 JUMP JUMPDEST PUSH1 0x0 PUSH1 0x20 DUP3 DUP5 SUB SLT ISZERO PUSH2 0x34E6 JUMPI PUSH1 0x0 DUP1 REVERT JUMPDEST POP CALLDATALOAD SWAP2 SWAP1 POP JUMP JUMPDEST PUSH1 0x0 DUP1 PUSH1 0x40 DUP4 DUP6 SUB SLT ISZERO PUSH2 0x3500 JUMPI PUSH1 0x0 DUP1 REVERT JUMPDEST DUP3 CALLDATALOAD SWAP2 POP PUSH1 0x20 DUP4 ADD CALLDATALOAD PUSH2 0x3512 DUP2 PUSH2 0x33E2 JUMP JUMPDEST DUP1 SWAP2 POP POP SWAP3 POP SWAP3 SWAP1 POP JUMP JUMPDEST PUSH1 0x0 DUP1 PUSH1 0x0 DUP1 PUSH1 0x0 DUP1 PUSH1 0x0 DUP1 PUSH1 0x0 PUSH2 0x120 DUP11 DUP13 SUB SLT ISZERO PUSH2 0x353C JUMPI PUSH1 0x0 DUP1 REVERT JUMPDEST DUP10 CALLDATALOAD PUSH1 0x1 PUSH1 0x1 PUSH1 0x40 SHL SUB DUP2 GT ISZERO PUSH2 0x3552 JUMPI PUSH1 0x0 DUP1 REVERT JUMPDEST PUSH2 0x355E DUP13 DUP3 DUP14 ADD PUSH2 0x338E JUMP JUMPDEST SWAP10 POP POP PUSH1 0x20 DUP11 ADD CALLDATALOAD PUSH2 0x356F DUP2 PUSH2 0x33E2 JUMP JUMPDEST SWAP8 POP PUSH1 0x40 DUP11 ADD CALLDATALOAD SWAP7 POP PUSH1 0x60 DUP11 ADD CALLDATALOAD SWAP6 POP PUSH1 0x80 DUP11 ADD CALLDATALOAD PUSH2 0x358D DUP2 PUSH2 0x33E2 JUMP JUMPDEST SWAP5 POP PUSH1 0xA0 DUP11 ADD CALLDATALOAD SWAP4 POP PUSH1 0xC0 DUP11 ADD CALLDATALOAD SWAP3 POP PUSH1 0xE0 DUP11 ADD CALLDATALOAD PUSH2 0x35AB DUP2 PUSH2 0x33E2 JUMP JUMPDEST DUP1 SWAP3 POP POP PUSH2 0x100 DUP11 ADD CALLDATALOAD SWAP1 POP SWAP3 SWAP6 SWAP9 POP SWAP3 SWAP6 SWAP9 POP SWAP3 SWAP6 SWAP9 JUMP JUMPDEST PUSH1 0x0 DUP1 PUSH1 0x40 DUP4 DUP6 SUB SLT ISZERO PUSH2 0x35D7 JUMPI PUSH1 0x0 DUP1 REVERT JUMPDEST POP POP DUP1 CALLDATALOAD SWAP3 PUSH1 0x20 SWAP1 SWAP2 ADD CALLDATALOAD SWAP2 POP JUMP JUMPDEST PUSH1 0x0 DUP2 MLOAD DUP1 DUP5 MSTORE PUSH1 0x20 DUP1 DUP6 ADD SWAP5 POP DUP1 DUP5 ADD PUSH1 0x0 JUMPDEST DUP4 DUP2 LT ISZERO PUSH2 0x3616 JUMPI DUP2 MLOAD DUP8 MSTORE SWAP6 DUP3 ADD SWAP6 SWAP1 DUP3 ADD SWAP1 PUSH1 0x1 ADD PUSH2 0x35FA JUMP JUMPDEST POP SWAP5 SWAP6 SWAP5 POP POP POP POP POP JUMP JUMPDEST PUSH1 0x40 DUP1 DUP3 MSTORE DUP4 MLOAD SWAP1 DUP3 ADD DUP2 SWAP1 MSTORE PUSH1 0x0 SWAP1 PUSH1 0x20 SWAP1 PUSH1 0x60 DUP5 ADD SWAP1 DUP3 DUP8 ADD DUP5 JUMPDEST DUP3 DUP2 LT ISZERO PUSH2 0x3663 JUMPI DUP2 MLOAD PUSH1 0x1 PUSH1 0x1 PUSH1 0xA0 SHL SUB AND DUP5 MSTORE SWAP3 DUP5 ADD SWAP3 SWAP1 DUP5 ADD SWAP1 PUSH1 0x1 ADD PUSH2 0x363E JUMP JUMPDEST POP POP POP DUP4 DUP2 SUB DUP3 DUP6 ADD MSTORE PUSH2 0x3677 DUP2 DUP7 PUSH2 0x35E6 JUMP JUMPDEST SWAP7 SWAP6 POP POP POP POP POP POP JUMP JUMPDEST PUSH1 0x20 DUP2 MSTORE PUSH1 0x0 PUSH2 0x2F58 PUSH1 0x20 DUP4 ADD DUP5 PUSH2 0x35E6 JUMP JUMPDEST PUSH1 0x0 PUSH1 0x20 DUP3 DUP5 SUB SLT ISZERO PUSH2 0x36A6 JUMPI PUSH1 0x0 DUP1 REVERT JUMPDEST DUP2 CALLDATALOAD PUSH2 0x2F58 DUP2 PUSH2 0x33E2 JUMP JUMPDEST PUSH1 0x0 DUP1 PUSH1 0x40 DUP4 DUP6 SUB SLT ISZERO PUSH2 0x36C4 JUMPI PUSH1 0x0 DUP1 REVERT JUMPDEST DUP3 CALLDATALOAD PUSH1 0x1 PUSH1 0x1 PUSH1 0x40 SHL SUB DUP2 GT ISZERO PUSH2 0x36DA JUMPI PUSH1 0x0 DUP1 REVERT JUMPDEST PUSH2 0x36E6 DUP6 DUP3 DUP7 ADD PUSH2 0x338E JUMP JUMPDEST SWAP6 PUSH1 0x20 SWAP5 SWAP1 SWAP5 ADD CALLDATALOAD SWAP5 POP POP POP POP JUMP JUMPDEST PUSH1 0x0 DUP1 PUSH1 0x0 DUP1 PUSH1 0x80 DUP6 DUP8 SUB SLT ISZERO PUSH2 0x370B JUMPI PUSH1 0x0 DUP1 REVERT JUMPDEST DUP5 CALLDATALOAD PUSH1 0x1 PUSH1 0x1 PUSH1 0x40 SHL SUB DUP2 GT ISZERO PUSH2 0x3721 JUMPI PUSH1 0x0 DUP1 REVERT JUMPDEST PUSH2 0x372D DUP8 DUP3 DUP9 ADD PUSH2 0x338E JUMP JUMPDEST SWAP5 POP POP PUSH1 0x20 DUP6 ADD CALLDATALOAD PUSH2 0x373E DUP2 PUSH2 0x33E2 JUMP JUMPDEST SWAP3 POP PUSH1 0x40 DUP6 ADD CALLDATALOAD PUSH2 0x374E DUP2 PUSH2 0x33E2 JUMP JUMPDEST SWAP4 SWAP7 SWAP3 SWAP6 POP SWAP3 SWAP4 PUSH1 0x60 ADD CALLDATALOAD SWAP3 POP POP JUMP JUMPDEST PUSH1 0x0 DUP1 PUSH1 0x40 DUP4 DUP6 SUB SLT ISZERO PUSH2 0x3771 JUMPI PUSH1 0x0 DUP1 REVERT JUMPDEST DUP3 CALLDATALOAD PUSH1 0x1 PUSH1 0x1 PUSH1 0x40 SHL SUB DUP2 GT ISZERO PUSH2 0x3787 JUMPI PUSH1 0x0 DUP1 REVERT JUMPDEST PUSH2 0x3793 DUP6 DUP3 DUP7 ADD PUSH2 0x338E JUMP JUMPDEST SWAP3 POP POP PUSH1 0x20 DUP4 ADD CALLDATALOAD PUSH2 0x3512 DUP2 PUSH2 0x33E2 JUMP JUMPDEST DUP1 ISZERO ISZERO DUP2 EQ PUSH2 0x2A4C JUMPI PUSH1 0x0 DUP1 REVERT JUMPDEST PUSH1 0x0 DUP1 PUSH1 0x0 PUSH1 0x60 DUP5 DUP7 SUB SLT ISZERO PUSH2 0x37C7 JUMPI PUSH1 0x0 DUP1 REVERT JUMPDEST DUP4 CALLDATALOAD PUSH1 0x1 PUSH1 0x1 PUSH1 0x40 SHL SUB DUP2 GT ISZERO PUSH2 0x37DD JUMPI PUSH1 0x0 DUP1 REVERT JUMPDEST PUSH2 0x37E9 DUP7 DUP3 DUP8 ADD PUSH2 0x338E JUMP JUMPDEST SWAP4 POP POP PUSH1 0x20 DUP5 ADD CALLDATALOAD PUSH2 0x37FA DUP2 PUSH2 0x37A4 JUMP JUMPDEST SWAP2 POP PUSH1 0x40 DUP5 ADD CALLDATALOAD PUSH2 0x380A DUP2 PUSH2 0x37A4 JUMP JUMPDEST DUP1 SWAP2 POP POP SWAP3 POP SWAP3 POP SWAP3 JUMP JUMPDEST PUSH1 0x0 JUMPDEST DUP4 DUP2 LT ISZERO PUSH2 0x3830 JUMPI DUP2 DUP2 ADD MLOAD DUP4 DUP3 ADD MSTORE PUSH1 0x20 ADD PUSH2 0x3818 JUMP JUMPDEST DUP4 DUP2 GT ISZERO PUSH2 0x383F JUMPI PUSH1 0x0 DUP5 DUP5 ADD MSTORE JUMPDEST POP POP POP POP JUMP JUMPDEST PUSH1 0x0 DUP3 MLOAD PUSH2 0x3857 DUP2 DUP5 PUSH1 0x20 DUP8 ADD PUSH2 0x3815 JUMP JUMPDEST SWAP2 SWAP1 SWAP2 ADD SWAP3 SWAP2 POP POP JUMP JUMPDEST PUSH1 0x20 DUP1 DUP3 MSTORE PUSH1 0x12 SWAP1 DUP3 ADD MSTORE PUSH18 0x466F7220426F78204F776E6572204F6E6C79 PUSH1 0x70 SHL PUSH1 0x40 DUP3 ADD MSTORE PUSH1 0x60 ADD SWAP1 JUMP JUMPDEST PUSH1 0x0 PUSH1 0x20 DUP3 DUP5 SUB SLT ISZERO PUSH2 0x389F JUMPI PUSH1 0x0 DUP1 REVERT JUMPDEST DUP2 MLOAD PUSH2 0x2F58 DUP2 PUSH2 0x33E2 JUMP JUMPDEST PUSH1 0x1 PUSH1 0x1 PUSH1 0xA0 SHL SUB SWAP4 DUP5 AND DUP2 MSTORE SWAP2 SWAP1 SWAP3 AND PUSH1 0x20 DUP3 ADD MSTORE PUSH1 0x40 DUP2 ADD SWAP2 SWAP1 SWAP2 MSTORE PUSH1 0x60 ADD SWAP1 JUMP JUMPDEST PUSH4 0x4E487B71 PUSH1 0xE0 SHL PUSH1 0x0 MSTORE PUSH1 0x11 PUSH1 0x4 MSTORE PUSH1 0x24 PUSH1 0x0 REVERT JUMPDEST PUSH1 0x0 PUSH1 0x0 NOT DUP3 EQ ISZERO PUSH2 0x38F8 JUMPI PUSH2 0x38F8 PUSH2 0x38CE JUMP JUMPDEST POP PUSH1 0x1 ADD SWAP1 JUMP JUMPDEST PUSH1 0x0 PUSH1 0x20 DUP3 DUP5 SUB SLT ISZERO PUSH2 0x3911 JUMPI PUSH1 0x0 DUP1 REVERT JUMPDEST POP MLOAD SWAP2 SWAP1 POP JUMP JUMPDEST PUSH1 0x0 PUSH1 0x20 DUP3 DUP5 SUB SLT ISZERO PUSH2 0x392A JUMPI PUSH1 0x0 DUP1 REVERT JUMPDEST DUP2 MLOAD PUSH2 0x2F58 DUP2 PUSH2 0x37A4 JUMP JUMPDEST PUSH4 0x4E487B71 PUSH1 0xE0 SHL PUSH1 0x0 MSTORE PUSH1 0x32 PUSH1 0x4 MSTORE PUSH1 0x24 PUSH1 0x0 REVERT JUMPDEST PUSH1 0x0 DUP2 PUSH1 0x0 NOT DIV DUP4 GT DUP3 ISZERO ISZERO AND ISZERO PUSH2 0x3965 JUMPI PUSH2 0x3965 PUSH2 0x38CE JUMP JUMPDEST POP MUL SWAP1 JUMP JUMPDEST PUSH1 0x1 DUP2 DUP2 SHR SWAP1 DUP3 AND DUP1 PUSH2 0x397E JUMPI PUSH1 0x7F DUP3 AND SWAP2 POP JUMPDEST PUSH1 0x20 DUP3 LT DUP2 EQ ISZERO PUSH2 0x399F JUMPI PUSH4 0x4E487B71 PUSH1 0xE0 SHL PUSH1 0x0 MSTORE PUSH1 0x22 PUSH1 0x4 MSTORE PUSH1 0x24 PUSH1 0x0 REVERT JUMPDEST POP SWAP2 SWAP1 POP JUMP JUMPDEST PUSH1 0x0 DUP3 DUP3 LT ISZERO PUSH2 0x39B7 JUMPI PUSH2 0x39B7 PUSH2 0x38CE JUMP JUMPDEST POP SUB SWAP1 JUMP JUMPDEST PUSH4 0x4E487B71 PUSH1 0xE0 SHL PUSH1 0x0 MSTORE PUSH1 0x12 PUSH1 0x4 MSTORE PUSH1 0x24 PUSH1 0x0 REVERT JUMPDEST PUSH1 0x0 DUP3 PUSH2 0x39E1 JUMPI PUSH2 0x39E1 PUSH2 0x39BC JUMP JUMPDEST POP MOD SWAP1 JUMP JUMPDEST PUSH32 0x416363657373436F6E74726F6C3A206163636F756E7420000000000000000000 DUP2 MSTORE PUSH1 0x0 DUP4 MLOAD PUSH2 0x3A1E DUP2 PUSH1 0x17 DUP6 ADD PUSH1 0x20 DUP9 ADD PUSH2 0x3815 JUMP JUMPDEST PUSH17 0x1034B99036B4B9B9B4B733903937B6329 PUSH1 0x7D SHL PUSH1 0x17 SWAP2 DUP5 ADD SWAP2 DUP3 ADD MSTORE DUP4 MLOAD PUSH2 0x3A4F DUP2 PUSH1 0x28 DUP5 ADD PUSH1 0x20 DUP9 ADD PUSH2 0x3815 JUMP JUMPDEST ADD PUSH1 0x28 ADD SWAP5 SWAP4 POP POP POP POP JUMP JUMPDEST PUSH1 0x0 DUP2 MLOAD DUP1 DUP5 MSTORE PUSH2 0x3A73 DUP2 PUSH1 0x20 DUP7 ADD PUSH1 0x20 DUP7 ADD PUSH2 0x3815 JUMP JUMPDEST PUSH1 0x1F ADD PUSH1 0x1F NOT AND SWAP3 SWAP1 SWAP3 ADD PUSH1 0x20 ADD SWAP3 SWAP2 POP POP JUMP JUMPDEST PUSH1 0x20 DUP2 MSTORE PUSH1 0x0 PUSH2 0x2F58 PUSH1 0x20 DUP4 ADD DUP5 PUSH2 0x3A5B JUMP JUMPDEST PUSH1 0x1 DUP1 PUSH1 0xA0 SHL SUB DUP5 AND DUP2 MSTORE DUP3 PUSH1 0x20 DUP3 ADD MSTORE PUSH1 0x60 PUSH1 0x40 DUP3 ADD MSTORE PUSH1 0x0 PUSH2 0x3AC1 PUSH1 0x60 DUP4 ADD DUP5 PUSH2 0x3A5B JUMP JUMPDEST SWAP6 SWAP5 POP POP POP POP POP JUMP JUMPDEST PUSH1 0x0 DUP3 NOT DUP3 GT ISZERO PUSH2 0x3ADD JUMPI PUSH2 0x3ADD PUSH2 0x38CE JUMP JUMPDEST POP ADD SWAP1 JUMP JUMPDEST PUSH1 0x0 DUP3 PUSH2 0x3AF1 JUMPI PUSH2 0x3AF1 PUSH2 0x39BC JUMP JUMPDEST POP DIV SWAP1 JUMP JUMPDEST PUSH1 0x0 DUP2 PUSH2 0x3B05 JUMPI PUSH2 0x3B05 PUSH2 0x38CE JUMP JUMPDEST POP PUSH1 0x0 NOT ADD SWAP1 JUMP INVALID LOG2 PUSH5 0x6970667358 0x22 SLT KECCAK256 0xBD 0xC6 SWAP8 0xCD 0x5E SELFDESTRUCT DELEGATECALL 0x2A PUSH14 0x16E074B3B4AFE1AB386756CA7984 0xF8 0xC2 SIGNEXTEND SWAP8 0xBC PUSH24 0xBEE83C64736F6C634300080B003300000000000000000000 "
		},
		"gasEstimates": {
			"creation": {
				"codeDepositCost": "3034200",
				"executionCost": "infinite",
				"totalCost": "infinite"
			},
			"external": {
				"DEFAULT_ADMIN_ROLE()": "262",
				"DIGI()": "2448",
				"WAXMAKER()": "285",
				"acceptOwnership()": "52397",
				"accessPriceContractAddress_by_boxName_map(string)": "infinite",
				"accessPrice_by_boxName_map(string)": "infinite",
				"access_fee_percentage()": "2384",
				"boxOwner_map(string)": "infinite",
				"boxSealed_By_requestId_map(bytes32)": "2572",
				"breakWax_Box(string)": "infinite",
				"createBox(string,address,uint256,uint256,address,uint256,uint256,address,uint256)": "infinite",
				"digikeySubscriptionOpen_by_boxName_map(string)": "infinite",
				"enableDigikeys(string,address,uint256,uint256)": "infinite",
				"expand(uint256,uint256)": "infinite",
				"generalSubscriptionOpen_by_boxName_map(string)": "infinite",
				"getRoleAdmin(bytes32)": "2496",
				"grantRole(bytes32,address)": "infinite",
				"hasRole(bytes32,address)": "2765",
				"onERC721Received(address,address,uint256,bytes)": "infinite",
				"oracleSpoke_by_boxName_map(string)": "infinite",
				"oraclize(string,uint256)": "infinite",
				"owner()": "2421",
				"packBox(string,address,uint256,uint256)": "infinite",
				"participantWallets_by_boxName_map(string,uint256)": "infinite",
				"rawFulfillRandomness(bytes32,uint256)": "infinite",
				"renounceRole(bytes32,address)": "29134",
				"requestId_by_boxName_map(string)": "infinite",
				"revokeRole(bytes32,address)": "infinite",
				"sealWax(string)": "infinite",
				"setDigiFees(uint256,uint256)": "48923",
				"setFeeAndKeyHash(uint256,bytes32)": "46733",
				"subscribeWalletToBoxByName(string,address)": "infinite",
				"subscribeWalletToBoxByRequestIdUsingKey(string,address,address,uint256)": "infinite",
				"supportsInterface(bytes4)": "473",
				"transferOwnership(address)": "infinite",
				"undoBoxByName(string)": "infinite",
				"updateSubscriptionsByBox(string,bool,bool)": "infinite",
				"wax_fee_digi()": "2429",
				"withdrawGas(address)": "infinite"
			},
			"internal": {
				"fulfillRandomness(bytes32,uint256)": "infinite"
			}
		},
		"methodIdentifiers": {
			"DEFAULT_ADMIN_ROLE()": "a217fddf",
			"DIGI()": "8577efc5",
			"WAXMAKER()": "337ca962",
			"acceptOwnership()": "79ba5097",
			"accessPriceContractAddress_by_boxName_map(string)": "dd5d5cb5",
			"accessPrice_by_boxName_map(string)": "0bd19b30",
			"access_fee_percentage()": "afdd85dc",
			"boxOwner_map(string)": "89e07564",
			"boxSealed_By_requestId_map(bytes32)": "b800f216",
			"breakWax_Box(string)": "6d1bac41",
			"createBox(string,address,uint256,uint256,address,uint256,uint256,address,uint256)": "3463cdbc",
			"digikeySubscriptionOpen_by_boxName_map(string)": "873937fd",
			"enableDigikeys(string,address,uint256,uint256)": "44cf8d53",
			"expand(uint256,uint256)": "874b3afc",
			"generalSubscriptionOpen_by_boxName_map(string)": "6c6c2efb",
			"getRoleAdmin(bytes32)": "248a9ca3",
			"grantRole(bytes32,address)": "2f2ff15d",
			"hasRole(bytes32,address)": "91d14854",
			"onERC721Received(address,address,uint256,bytes)": "150b7a02",
			"oracleSpoke_by_boxName_map(string)": "376a902a",
			"oraclize(string,uint256)": "c2e4ee08",
			"owner()": "8da5cb5b",
			"packBox(string,address,uint256,uint256)": "20900a59",
			"participantWallets_by_boxName_map(string,uint256)": "df2e3585",
			"rawFulfillRandomness(bytes32,uint256)": "94985ddd",
			"renounceRole(bytes32,address)": "36568abe",
			"requestId_by_boxName_map(string)": "9499bc3c",
			"revokeRole(bytes32,address)": "d547741f",
			"sealWax(string)": "bbfa3dfd",
			"setDigiFees(uint256,uint256)": "494b194e",
			"setFeeAndKeyHash(uint256,bytes32)": "f7490b34",
			"subscribeWalletToBoxByName(string,address)": "e6711a28",
			"subscribeWalletToBoxByRequestIdUsingKey(string,address,address,uint256)": "d35669b2",
			"supportsInterface(bytes4)": "01ffc9a7",
			"transferOwnership(address)": "f2fde38b",
			"undoBoxByName(string)": "442a9fd0",
			"updateSubscriptionsByBox(string,bool,bool)": "fcecb275",
			"wax_fee_digi()": "5725054b",
			"withdrawGas(address)": "b56f251b"
		}
	},
	"abi": [
		{
			"inputs": [],
			"stateMutability": "nonpayable",
			"type": "constructor"
		},
		{
			"anonymous": false,
			"inputs": [
				{
					"indexed": true,
					"internalType": "string",
					"name": "boxname",
					"type": "string"
				},
				{
					"indexed": false,
					"internalType": "address",
					"name": "boxCreator",
					"type": "address"
				}
			],
			"name": "BoxCreated",
			"type": "event"
		},
		{
			"anonymous": false,
			"inputs": [
				{
					"indexed": true,
					"internalType": "bytes32",
					"name": "requestId",
					"type": "bytes32"
				},
				{
					"indexed": true,
					"internalType": "string",
					"name": "boxName",
					"type": "string"
				}
			],
			"name": "BoxWaxSealBroken",
			"type": "event"
		},
		{
			"anonymous": false,
			"inputs": [
				{
					"indexed": true,
					"internalType": "bytes32",
					"name": "requestId",
					"type": "bytes32"
				},
				{
					"indexed": true,
					"internalType": "string",
					"name": "boxName",
					"type": "string"
				}
			],
			"name": "BoxWaxSealSet",
			"type": "event"
		},
		{
			"anonymous": false,
			"inputs": [
				{
					"indexed": true,
					"internalType": "bytes32",
					"name": "id",
					"type": "bytes32"
				}
			],
			"name": "ChainlinkCancelled",
			"type": "event"
		},
		{
			"anonymous": false,
			"inputs": [
				{
					"indexed": true,
					"internalType": "bytes32",
					"name": "id",
					"type": "bytes32"
				}
			],
			"name": "ChainlinkFulfilled",
			"type": "event"
		},
		{
			"anonymous": false,
			"inputs": [
				{
					"indexed": true,
					"internalType": "bytes32",
					"name": "id",
					"type": "bytes32"
				}
			],
			"name": "ChainlinkRequested",
			"type": "event"
		},
		{
			"anonymous": false,
			"inputs": [
				{
					"indexed": true,
					"internalType": "address",
					"name": "from",
					"type": "address"
				},
				{
					"indexed": true,
					"internalType": "address",
					"name": "to",
					"type": "address"
				}
			],
			"name": "OwnershipTransferRequested",
			"type": "event"
		},
		{
			"anonymous": false,
			"inputs": [
				{
					"indexed": true,
					"internalType": "address",
					"name": "from",
					"type": "address"
				},
				{
					"indexed": true,
					"internalType": "address",
					"name": "to",
					"type": "address"
				}
			],
			"name": "OwnershipTransferred",
			"type": "event"
		},
		{
			"anonymous": false,
			"inputs": [
				{
					"indexed": true,
					"internalType": "string",
					"name": "boxname",
					"type": "string"
				},
				{
					"indexed": true,
					"internalType": "bytes32",
					"name": "requestId",
					"type": "bytes32"
				},
				{
					"indexed": true,
					"internalType": "uint256",
					"name": "result",
					"type": "uint256"
				}
			],
			"name": "RandomnessReceived",
			"type": "event"
		},
		{
			"anonymous": false,
			"inputs": [
				{
					"indexed": true,
					"internalType": "bytes32",
					"name": "role",
					"type": "bytes32"
				},
				{
					"indexed": true,
					"internalType": "bytes32",
					"name": "previousAdminRole",
					"type": "bytes32"
				},
				{
					"indexed": true,
					"internalType": "bytes32",
					"name": "newAdminRole",
					"type": "bytes32"
				}
			],
			"name": "RoleAdminChanged",
			"type": "event"
		},
		{
			"anonymous": false,
			"inputs": [
				{
					"indexed": true,
					"internalType": "bytes32",
					"name": "role",
					"type": "bytes32"
				},
				{
					"indexed": true,
					"internalType": "address",
					"name": "account",
					"type": "address"
				},
				{
					"indexed": true,
					"internalType": "address",
					"name": "sender",
					"type": "address"
				}
			],
			"name": "RoleGranted",
			"type": "event"
		},
		{
			"anonymous": false,
			"inputs": [
				{
					"indexed": true,
					"internalType": "bytes32",
					"name": "role",
					"type": "bytes32"
				},
				{
					"indexed": true,
					"internalType": "address",
					"name": "account",
					"type": "address"
				},
				{
					"indexed": true,
					"internalType": "address",
					"name": "sender",
					"type": "address"
				}
			],
			"name": "RoleRevoked",
			"type": "event"
		},
		{
			"anonymous": false,
			"inputs": [
				{
					"indexed": true,
					"internalType": "string",
					"name": "boxname",
					"type": "string"
				},
				{
					"indexed": false,
					"internalType": "address",
					"name": "wallet",
					"type": "address"
				},
				{
					"indexed": false,
					"internalType": "bool",
					"name": "usedKey",
					"type": "bool"
				}
			],
			"name": "WalletSubscribed",
			"type": "event"
		},
		{
			"inputs": [],
			"name": "DEFAULT_ADMIN_ROLE",
			"outputs": [
				{
					"internalType": "bytes32",
					"name": "",
					"type": "bytes32"
				}
			],
			"stateMutability": "view",
			"type": "function"
		},
		{
			"inputs": [],
			"name": "DIGI",
			"outputs": [
				{
					"internalType": "contract IERC20",
					"name": "",
					"type": "address"
				}
			],
			"stateMutability": "view",
			"type": "function"
		},
		{
			"inputs": [],
			"name": "WAXMAKER",
			"outputs": [
				{
					"internalType": "bytes32",
					"name": "",
					"type": "bytes32"
				}
			],
			"stateMutability": "view",
			"type": "function"
		},
		{
			"inputs": [],
			"name": "acceptOwnership",
			"outputs": [],
			"stateMutability": "nonpayable",
			"type": "function"
		},
		{
			"inputs": [
				{
					"internalType": "string",
					"name": "",
					"type": "string"
				}
			],
			"name": "accessPriceContractAddress_by_boxName_map",
			"outputs": [
				{
					"internalType": "address",
					"name": "",
					"type": "address"
				}
			],
			"stateMutability": "view",
			"type": "function"
		},
		{
			"inputs": [
				{
					"internalType": "string",
					"name": "",
					"type": "string"
				}
			],
			"name": "accessPrice_by_boxName_map",
			"outputs": [
				{
					"internalType": "uint256",
					"name": "",
					"type": "uint256"
				}
			],
			"stateMutability": "view",
			"type": "function"
		},
		{
			"inputs": [],
			"name": "access_fee_percentage",
			"outputs": [
				{
					"internalType": "uint256",
					"name": "",
					"type": "uint256"
				}
			],
			"stateMutability": "view",
			"type": "function"
		},
		{
			"inputs": [
				{
					"internalType": "string",
					"name": "",
					"type": "string"
				}
			],
			"name": "boxOwner_map",
			"outputs": [
				{
					"internalType": "address",
					"name": "",
					"type": "address"
				}
			],
			"stateMutability": "view",
			"type": "function"
		},
		{
			"inputs": [
				{
					"internalType": "bytes32",
					"name": "",
					"type": "bytes32"
				}
			],
			"name": "boxSealed_By_requestId_map",
			"outputs": [
				{
					"internalType": "bool",
					"name": "",
					"type": "bool"
				}
			],
			"stateMutability": "view",
			"type": "function"
		},
		{
			"inputs": [
				{
					"internalType": "string",
					"name": "boxName",
					"type": "string"
				}
			],
			"name": "breakWax_Box",
			"outputs": [
				{
					"internalType": "address[]",
					"name": "",
					"type": "address[]"
				},
				{
					"internalType": "uint256[]",
					"name": "",
					"type": "uint256[]"
				}
			],
			"stateMutability": "nonpayable",
			"type": "function"
		},
		{
			"inputs": [
				{
					"internalType": "string",
					"name": "boxName",
					"type": "string"
				},
				{
					"internalType": "address",
					"name": "nftContractAddress",
					"type": "address"
				},
				{
					"internalType": "uint256",
					"name": "start_tokenId",
					"type": "uint256"
				},
				{
					"internalType": "uint256",
					"name": "end_tokenId",
					"type": "uint256"
				},
				{
					"internalType": "address",
					"name": "digiKeyContractAddress",
					"type": "address"
				},
				{
					"internalType": "uint256",
					"name": "start_keyTokenId",
					"type": "uint256"
				},
				{
					"internalType": "uint256",
					"name": "end_keyTokenId",
					"type": "uint256"
				},
				{
					"internalType": "address",
					"name": "accessPriceContractAddress",
					"type": "address"
				},
				{
					"internalType": "uint256",
					"name": "accessPrice",
					"type": "uint256"
				}
			],
			"name": "createBox",
			"outputs": [
				{
					"internalType": "bool",
					"name": "",
					"type": "bool"
				}
			],
			"stateMutability": "payable",
			"type": "function"
		},
		{
			"inputs": [
				{
					"internalType": "string",
					"name": "",
					"type": "string"
				}
			],
			"name": "digikeySubscriptionOpen_by_boxName_map",
			"outputs": [
				{
					"internalType": "bool",
					"name": "",
					"type": "bool"
				}
			],
			"stateMutability": "view",
			"type": "function"
		},
		{
			"inputs": [
				{
					"internalType": "string",
					"name": "boxName",
					"type": "string"
				},
				{
					"internalType": "address",
					"name": "digiKeyContractAddress",
					"type": "address"
				},
				{
					"internalType": "uint256",
					"name": "start_keyTokenId",
					"type": "uint256"
				},
				{
					"internalType": "uint256",
					"name": "end_keyTokenId",
					"type": "uint256"
				}
			],
			"name": "enableDigikeys",
			"outputs": [],
			"stateMutability": "nonpayable",
			"type": "function"
		},
		{
			"inputs": [
				{
					"internalType": "uint256",
					"name": "randomValue",
					"type": "uint256"
				},
				{
					"internalType": "uint256",
					"name": "n",
					"type": "uint256"
				}
			],
			"name": "expand",
			"outputs": [
				{
					"internalType": "uint256[]",
					"name": "expandedValues",
					"type": "uint256[]"
				}
			],
			"stateMutability": "pure",
			"type": "function"
		},
		{
			"inputs": [
				{
					"internalType": "string",
					"name": "",
					"type": "string"
				}
			],
			"name": "generalSubscriptionOpen_by_boxName_map",
			"outputs": [
				{
					"internalType": "bool",
					"name": "",
					"type": "bool"
				}
			],
			"stateMutability": "view",
			"type": "function"
		},
		{
			"inputs": [
				{
					"internalType": "bytes32",
					"name": "role",
					"type": "bytes32"
				}
			],
			"name": "getRoleAdmin",
			"outputs": [
				{
					"internalType": "bytes32",
					"name": "",
					"type": "bytes32"
				}
			],
			"stateMutability": "view",
			"type": "function"
		},
		{
			"inputs": [
				{
					"internalType": "bytes32",
					"name": "role",
					"type": "bytes32"
				},
				{
					"internalType": "address",
					"name": "account",
					"type": "address"
				}
			],
			"name": "grantRole",
			"outputs": [],
			"stateMutability": "nonpayable",
			"type": "function"
		},
		{
			"inputs": [
				{
					"internalType": "bytes32",
					"name": "role",
					"type": "bytes32"
				},
				{
					"internalType": "address",
					"name": "account",
					"type": "address"
				}
			],
			"name": "hasRole",
			"outputs": [
				{
					"internalType": "bool",
					"name": "",
					"type": "bool"
				}
			],
			"stateMutability": "view",
			"type": "function"
		},
		{
			"inputs": [
				{
					"internalType": "address",
					"name": "",
					"type": "address"
				},
				{
					"internalType": "address",
					"name": "",
					"type": "address"
				},
				{
					"internalType": "uint256",
					"name": "",
					"type": "uint256"
				},
				{
					"internalType": "bytes",
					"name": "",
					"type": "bytes"
				}
			],
			"name": "onERC721Received",
			"outputs": [
				{
					"internalType": "bytes4",
					"name": "",
					"type": "bytes4"
				}
			],
			"stateMutability": "nonpayable",
			"type": "function"
		},
		{
			"inputs": [
				{
					"internalType": "string",
					"name": "",
					"type": "string"
				}
			],
			"name": "oracleSpoke_by_boxName_map",
			"outputs": [
				{
					"internalType": "bool",
					"name": "",
					"type": "bool"
				}
			],
			"stateMutability": "view",
			"type": "function"
		},
		{
			"inputs": [
				{
					"internalType": "string",
					"name": "boxName",
					"type": "string"
				},
				{
					"internalType": "uint256",
					"name": "randomness",
					"type": "uint256"
				}
			],
			"name": "oraclize",
			"outputs": [],
			"stateMutability": "nonpayable",
			"type": "function"
		},
		{
			"inputs": [],
			"name": "owner",
			"outputs": [
				{
					"internalType": "address",
					"name": "",
					"type": "address"
				}
			],
			"stateMutability": "view",
			"type": "function"
		},
		{
			"inputs": [
				{
					"internalType": "string",
					"name": "boxName",
					"type": "string"
				},
				{
					"internalType": "address",
					"name": "nftContractAddress",
					"type": "address"
				},
				{
					"internalType": "uint256",
					"name": "start_tokenId",
					"type": "uint256"
				},
				{
					"internalType": "uint256",
					"name": "end_tokenId",
					"type": "uint256"
				}
			],
			"name": "packBox",
			"outputs": [
				{
					"internalType": "bool",
					"name": "",
					"type": "bool"
				}
			],
			"stateMutability": "payable",
			"type": "function"
		},
		{
			"inputs": [
				{
					"internalType": "string",
					"name": "",
					"type": "string"
				},
				{
					"internalType": "uint256",
					"name": "",
					"type": "uint256"
				}
			],
			"name": "participantWallets_by_boxName_map",
			"outputs": [
				{
					"internalType": "address",
					"name": "",
					"type": "address"
				}
			],
			"stateMutability": "view",
			"type": "function"
		},
		{
			"inputs": [
				{
					"internalType": "bytes32",
					"name": "requestId",
					"type": "bytes32"
				},
				{
					"internalType": "uint256",
					"name": "randomness",
					"type": "uint256"
				}
			],
			"name": "rawFulfillRandomness",
			"outputs": [],
			"stateMutability": "nonpayable",
			"type": "function"
		},
		{
			"inputs": [
				{
					"internalType": "bytes32",
					"name": "role",
					"type": "bytes32"
				},
				{
					"internalType": "address",
					"name": "account",
					"type": "address"
				}
			],
			"name": "renounceRole",
			"outputs": [],
			"stateMutability": "nonpayable",
			"type": "function"
		},
		{
			"inputs": [
				{
					"internalType": "string",
					"name": "",
					"type": "string"
				}
			],
			"name": "requestId_by_boxName_map",
			"outputs": [
				{
					"internalType": "bytes32",
					"name": "",
					"type": "bytes32"
				}
			],
			"stateMutability": "view",
			"type": "function"
		},
		{
			"inputs": [
				{
					"internalType": "bytes32",
					"name": "role",
					"type": "bytes32"
				},
				{
					"internalType": "address",
					"name": "account",
					"type": "address"
				}
			],
			"name": "revokeRole",
			"outputs": [],
			"stateMutability": "nonpayable",
			"type": "function"
		},
		{
			"inputs": [
				{
					"internalType": "string",
					"name": "boxName",
					"type": "string"
				}
			],
			"name": "sealWax",
			"outputs": [
				{
					"internalType": "bytes32",
					"name": "",
					"type": "bytes32"
				}
			],
			"stateMutability": "nonpayable",
			"type": "function"
		},
		{
			"inputs": [
				{
					"internalType": "uint256",
					"name": "human_fee",
					"type": "uint256"
				},
				{
					"internalType": "uint256",
					"name": "human_percentage",
					"type": "uint256"
				}
			],
			"name": "setDigiFees",
			"outputs": [],
			"stateMutability": "nonpayable",
			"type": "function"
		},
		{
			"inputs": [
				{
					"internalType": "uint256",
					"name": "fee",
					"type": "uint256"
				},
				{
					"internalType": "bytes32",
					"name": "keyHash",
					"type": "bytes32"
				}
			],
			"name": "setFeeAndKeyHash",
			"outputs": [],
			"stateMutability": "nonpayable",
			"type": "function"
		},
		{
			"inputs": [
				{
					"internalType": "string",
					"name": "boxName",
					"type": "string"
				},
				{
					"internalType": "address",
					"name": "subscriber",
					"type": "address"
				}
			],
			"name": "subscribeWalletToBoxByName",
			"outputs": [
				{
					"internalType": "bool",
					"name": "",
					"type": "bool"
				}
			],
			"stateMutability": "nonpayable",
			"type": "function"
		},
		{
			"inputs": [
				{
					"internalType": "string",
					"name": "boxName",
					"type": "string"
				},
				{
					"internalType": "address",
					"name": "subscriber",
					"type": "address"
				},
				{
					"internalType": "address",
					"name": "digiKeyContractAddress",
					"type": "address"
				},
				{
					"internalType": "uint256",
					"name": "digikeyTokenId",
					"type": "uint256"
				}
			],
			"name": "subscribeWalletToBoxByRequestIdUsingKey",
			"outputs": [
				{
					"internalType": "bool",
					"name": "",
					"type": "bool"
				}
			],
			"stateMutability": "nonpayable",
			"type": "function"
		},
		{
			"inputs": [
				{
					"internalType": "bytes4",
					"name": "interfaceId",
					"type": "bytes4"
				}
			],
			"name": "supportsInterface",
			"outputs": [
				{
					"internalType": "bool",
					"name": "",
					"type": "bool"
				}
			],
			"stateMutability": "view",
			"type": "function"
		},
		{
			"inputs": [
				{
					"internalType": "address",
					"name": "to",
					"type": "address"
				}
			],
			"name": "transferOwnership",
			"outputs": [],
			"stateMutability": "nonpayable",
			"type": "function"
		},
		{
			"inputs": [
				{
					"internalType": "string",
					"name": "boxName",
					"type": "string"
				}
			],
			"name": "undoBoxByName",
			"outputs": [
				{
					"internalType": "bool",
					"name": "",
					"type": "bool"
				}
			],
			"stateMutability": "nonpayable",
			"type": "function"
		},
		{
			"inputs": [
				{
					"internalType": "string",
					"name": "boxName",
					"type": "string"
				},
				{
					"internalType": "bool",
					"name": "isOpen_Gen",
					"type": "bool"
				},
				{
					"internalType": "bool",
					"name": "isOpen_Key",
					"type": "bool"
				}
			],
			"name": "updateSubscriptionsByBox",
			"outputs": [],
			"stateMutability": "nonpayable",
			"type": "function"
		},
		{
			"inputs": [],
			"name": "wax_fee_digi",
			"outputs": [
				{
					"internalType": "uint256",
					"name": "",
					"type": "uint256"
				}
			],
			"stateMutability": "view",
			"type": "function"
		},
		{
			"inputs": [
				{
					"internalType": "address",
					"name": "tokenContract",
					"type": "address"
				}
			],
			"name": "withdrawGas",
			"outputs": [],
			"stateMutability": "nonpayable",
			"type": "function"
		}
	]
}